{"contracts/Play2EarnX.sol":{"PlayToEarnX":{"abi":[{"inputs":[{"internalType":"uint256","name":"_pct","type":"uint256"}],"stateMutability":"nonpayable","type":"constructor"},{"anonymous":false,"inputs":[{"indexed":true,"internalType":"address","name":"owner","type":"address"},{"indexed":true,"internalType":"address","name":"spender","type":"address"},{"indexed":false,"internalType":"uint256","name":"value","type":"uint256"}],"name":"Approval","type":"event"},{"anonymous":false,"inputs":[{"indexed":true,"internalType":"address","name":"previousOwner","type":"address"},{"indexed":true,"internalType":"address","name":"newOwner","type":"address"}],"name":"OwnershipTransferred","type":"event"},{"anonymous":false,"inputs":[{"indexed":true,"internalType":"address","name":"from","type":"address"},{"indexed":true,"internalType":"address","name":"to","type":"address"},{"indexed":false,"internalType":"uint256","name":"value","type":"uint256"}],"name":"Transfer","type":"event"},{"inputs":[{"internalType":"uint256","name":"gameId","type":"uint256"},{"internalType":"uint256","name":"index","type":"uint256"}],"name":"acceptInvitation","outputs":[],"stateMutability":"payable","type":"function"},{"inputs":[{"internalType":"address","name":"owner","type":"address"},{"internalType":"address","name":"spender","type":"address"}],"name":"allowance","outputs":[{"internalType":"uint256","name":"","type":"uint256"}],"stateMutability":"view","type":"function"},{"inputs":[{"internalType":"address","name":"spender","type":"address"},{"internalType":"uint256","name":"amount","type":"uint256"}],"name":"approve","outputs":[{"internalType":"bool","name":"","type":"bool"}],"stateMutability":"nonpayable","type":"function"},{"inputs":[{"internalType":"address","name":"account","type":"address"}],"name":"balanceOf","outputs":[{"internalType":"uint256","name":"","type":"uint256"}],"stateMutability":"view","type":"function"},{"inputs":[{"internalType":"string","name":"title","type":"string"},{"internalType":"string","name":"description","type":"string"},{"internalType":"uint256","name":"participants","type":"uint256"},{"internalType":"uint256","name":"numberOfWinners","type":"uint256"},{"internalType":"uint256","name":"startDate","type":"uint256"},{"internalType":"uint256","name":"endDate","type":"uint256"}],"name":"createGame","outputs":[],"stateMutability":"payable","type":"function"},{"inputs":[],"name":"decimals","outputs":[{"internalType":"uint8","name":"","type":"uint8"}],"stateMutability":"view","type":"function"},{"inputs":[{"internalType":"address","name":"spender","type":"address"},{"internalType":"uint256","name":"subtractedValue","type":"uint256"}],"name":"decreaseAllowance","outputs":[{"internalType":"bool","name":"","type":"bool"}],"stateMutability":"nonpayable","type":"function"},{"inputs":[{"internalType":"uint256","name":"gameId","type":"uint256"}],"name":"deleteGame","outputs":[],"stateMutability":"nonpayable","type":"function"},{"inputs":[{"internalType":"uint256","name":"gameId","type":"uint256"}],"name":"getGame","outputs":[{"components":[{"internalType":"uint256","name":"id","type":"uint256"},{"internalType":"string","name":"title","type":"string"},{"internalType":"string","name":"description","type":"string"},{"internalType":"address","name":"owner","type":"address"},{"internalType":"uint256","name":"participants","type":"uint256"},{"internalType":"uint256","name":"numberOfWinners","type":"uint256"},{"internalType":"uint256","name":"acceptees","type":"uint256"},{"internalType":"uint256","name":"stake","type":"uint256"},{"internalType":"uint256","name":"startDate","type":"uint256"},{"internalType":"uint256","name":"endDate","type":"uint256"},{"internalType":"uint256","name":"timestamp","type":"uint256"},{"internalType":"bool","name":"deleted","type":"bool"},{"internalType":"bool","name":"paidOut","type":"bool"}],"internalType":"struct PlayToEarnX.GameStruct","name":"","type":"tuple"}],"stateMutability":"view","type":"function"},{"inputs":[],"name":"getGames","outputs":[{"components":[{"internalType":"uint256","name":"id","type":"uint256"},{"internalType":"string","name":"title","type":"string"},{"internalType":"string","name":"description","type":"string"},{"internalType":"address","name":"owner","type":"address"},{"internalType":"uint256","name":"participants","type":"uint256"},{"internalType":"uint256","name":"numberOfWinners","type":"uint256"},{"internalType":"uint256","name":"acceptees","type":"uint256"},{"internalType":"uint256","name":"stake","type":"uint256"},{"internalType":"uint256","name":"startDate","type":"uint256"},{"internalType":"uint256","name":"endDate","type":"uint256"},{"internalType":"uint256","name":"timestamp","type":"uint256"},{"internalType":"bool","name":"deleted","type":"bool"},{"internalType":"bool","name":"paidOut","type":"bool"}],"internalType":"struct PlayToEarnX.GameStruct[]","name":"Games","type":"tuple[]"}],"stateMutability":"view","type":"function"},{"inputs":[{"internalType":"uint256","name":"gameId","type":"uint256"}],"name":"getInvitations","outputs":[{"components":[{"internalType":"uint256","name":"id","type":"uint256"},{"internalType":"string","name":"title","type":"string"},{"internalType":"uint256","name":"gameId","type":"uint256"},{"internalType":"address","name":"receiver","type":"address"},{"internalType":"address","name":"sender","type":"address"},{"internalType":"bool","name":"responded","type":"bool"},{"internalType":"bool","name":"accepted","type":"bool"},{"internalType":"uint256","name":"stake","type":"uint256"},{"internalType":"uint256","name":"timestamp","type":"uint256"}],"internalType":"struct PlayToEarnX.InvitationStruct[]","name":"","type":"tuple[]"}],"stateMutability":"view","type":"function"},{"inputs":[],"name":"getMyGames","outputs":[{"components":[{"internalType":"uint256","name":"id","type":"uint256"},{"internalType":"string","name":"title","type":"string"},{"internalType":"string","name":"description","type":"string"},{"internalType":"address","name":"owner","type":"address"},{"internalType":"uint256","name":"participants","type":"uint256"},{"internalType":"uint256","name":"numberOfWinners","type":"uint256"},{"internalType":"uint256","name":"acceptees","type":"uint256"},{"internalType":"uint256","name":"stake","type":"uint256"},{"internalType":"uint256","name":"startDate","type":"uint256"},{"internalType":"uint256","name":"endDate","type":"uint256"},{"internalType":"uint256","name":"timestamp","type":"uint256"},{"internalType":"bool","name":"deleted","type":"bool"},{"internalType":"bool","name":"paidOut","type":"bool"}],"internalType":"struct PlayToEarnX.GameStruct[]","name":"Games","type":"tuple[]"}],"stateMutability":"view","type":"function"},{"inputs":[],"name":"getMyInvitations","outputs":[{"components":[{"internalType":"uint256","name":"id","type":"uint256"},{"internalType":"string","name":"title","type":"string"},{"internalType":"uint256","name":"gameId","type":"uint256"},{"internalType":"address","name":"receiver","type":"address"},{"internalType":"address","name":"sender","type":"address"},{"internalType":"bool","name":"responded","type":"bool"},{"internalType":"bool","name":"accepted","type":"bool"},{"internalType":"uint256","name":"stake","type":"uint256"},{"internalType":"uint256","name":"timestamp","type":"uint256"}],"internalType":"struct PlayToEarnX.InvitationStruct[]","name":"Invitation","type":"tuple[]"}],"stateMutability":"view","type":"function"},{"inputs":[{"internalType":"uint256","name":"gameId","type":"uint256"}],"name":"getScores","outputs":[{"components":[{"internalType":"uint256","name":"id","type":"uint256"},{"internalType":"uint256","name":"gameId","type":"uint256"},{"internalType":"address","name":"player","type":"address"},{"internalType":"uint256","name":"score","type":"uint256"},{"internalType":"uint256","name":"prize","type":"uint256"},{"internalType":"bool","name":"played","type":"bool"}],"internalType":"struct PlayToEarnX.ScoreStruct[]","name":"","type":"tuple[]"}],"stateMutability":"view","type":"function"},{"inputs":[{"internalType":"address","name":"spender","type":"address"},{"internalType":"uint256","name":"addedValue","type":"uint256"}],"name":"increaseAllowance","outputs":[{"internalType":"bool","name":"","type":"bool"}],"stateMutability":"nonpayable","type":"function"},{"inputs":[{"internalType":"address","name":"receiver","type":"address"},{"internalType":"uint256","name":"gameId","type":"uint256"}],"name":"invitePlayer","outputs":[],"stateMutability":"nonpayable","type":"function"},{"inputs":[],"name":"name","outputs":[{"internalType":"string","name":"","type":"string"}],"stateMutability":"view","type":"function"},{"inputs":[],"name":"owner","outputs":[{"internalType":"address","name":"","type":"address"}],"stateMutability":"view","type":"function"},{"inputs":[{"internalType":"uint256","name":"gameId","type":"uint256"}],"name":"payout","outputs":[],"stateMutability":"nonpayable","type":"function"},{"inputs":[{"internalType":"uint256","name":"gameId","type":"uint256"},{"internalType":"uint256","name":"index","type":"uint256"}],"name":"rejectInvitation","outputs":[],"stateMutability":"payable","type":"function"},{"inputs":[],"name":"renounceOwnership","outputs":[],"stateMutability":"nonpayable","type":"function"},{"inputs":[{"internalType":"uint256","name":"gameId","type":"uint256"},{"internalType":"uint256","name":"index","type":"uint256"},{"internalType":"uint256","name":"score","type":"uint256"}],"name":"saveScore","outputs":[],"stateMutability":"nonpayable","type":"function"},{"inputs":[{"internalType":"uint256","name":"_pct","type":"uint256"}],"name":"setFeePercent","outputs":[],"stateMutability":"nonpayable","type":"function"},{"inputs":[{"components":[{"internalType":"uint256","name":"id","type":"uint256"},{"internalType":"uint256","name":"gameId","type":"uint256"},{"internalType":"address","name":"player","type":"address"},{"internalType":"uint256","name":"score","type":"uint256"},{"internalType":"uint256","name":"prize","type":"uint256"},{"internalType":"bool","name":"played","type":"bool"}],"internalType":"struct PlayToEarnX.ScoreStruct[]","name":"scoreSheet","type":"tuple[]"}],"name":"sortScores","outputs":[{"components":[{"internalType":"uint256","name":"id","type":"uint256"},{"internalType":"uint256","name":"gameId","type":"uint256"},{"internalType":"address","name":"player","type":"address"},{"internalType":"uint256","name":"score","type":"uint256"},{"internalType":"uint256","name":"prize","type":"uint256"},{"internalType":"bool","name":"played","type":"bool"}],"internalType":"struct PlayToEarnX.ScoreStruct[]","name":"","type":"tuple[]"}],"stateMutability":"pure","type":"function"},{"inputs":[],"name":"symbol","outputs":[{"internalType":"string","name":"","type":"string"}],"stateMutability":"view","type":"function"},{"inputs":[],"name":"totalSupply","outputs":[{"internalType":"uint256","name":"","type":"uint256"}],"stateMutability":"view","type":"function"},{"inputs":[{"internalType":"address","name":"to","type":"address"},{"internalType":"uint256","name":"amount","type":"uint256"}],"name":"transfer","outputs":[{"internalType":"bool","name":"","type":"bool"}],"stateMutability":"nonpayable","type":"function"},{"inputs":[{"internalType":"address","name":"from","type":"address"},{"internalType":"address","name":"to","type":"address"},{"internalType":"uint256","name":"amount","type":"uint256"}],"name":"transferFrom","outputs":[{"internalType":"bool","name":"","type":"bool"}],"stateMutability":"nonpayable","type":"function"},{"inputs":[{"internalType":"address","name":"newOwner","type":"address"}],"name":"transferOwnership","outputs":[],"stateMutability":"nonpayable","type":"function"}],"evm":{"bytecode":{"linkReferences":{},"object":"60806040523480156200001157600080fd5b506040516200409638038062004096833981016040819052620000349162000110565b6040518060400160405280600c81526020016b283630bc903a379022b0b93760a11b8152506040518060400160405280600381526020016250324560e81b8152506200008f62000089620000bc60201b60201c565b620000c0565b600180556005620000a18382620001cf565b506006620000b08282620001cf565b505050600b556200029b565b3390565b600080546001600160a01b038381166001600160a01b0319831681178455604051919092169283917f8be0079c531659141344cd1fd0a4f28419497f9722a3daafe3b4186f6b6457e09190a35050565b6000602082840312156200012357600080fd5b5051919050565b634e487b7160e01b600052604160045260246000fd5b600181811c908216806200015557607f821691505b6020821081036200017657634e487b7160e01b600052602260045260246000fd5b50919050565b601f821115620001ca57600081815260208120601f850160051c81016020861015620001a55750805b601f850160051c820191505b81811015620001c657828155600101620001b1565b5050505b505050565b81516001600160401b03811115620001eb57620001eb6200012a565b6200020381620001fc845462000140565b846200017c565b602080601f8311600181146200023b5760008415620002225750858301515b600019600386901b1c1916600185901b178555620001c6565b600085815260208120601f198616915b828110156200026c578886015182559484019460019091019084016200024b565b50858210156200028b5787850151600019600388901b60f8161c191681555b5050505050600190811b01905550565b613deb80620002ab6000396000f3fe6080604052600436106101c25760003560e01c806370a08231116100f7578063a09621c711610095578063c04c594711610064578063c04c5947146104fe578063dd62ed3e14610513578063e115234314610533578063f2fde38b1461055357600080fd5b8063a09621c714610471578063a2f77bcc14610491578063a457c2d7146104be578063a9059cbb146104de57600080fd5b80637ce3489b116100d15780637ce3489b146103f25780638da5cb5b1461041257806390d559a71461043a57806395d89b411461045c57600080fd5b806370a0823114610394578063715018a6146103ca5780637a2f2136146103df57600080fd5b80632246fe0b11610164578063313ce5671161013e578063313ce56714610325578063337b67db14610341578063395093511461036157806339bd3bbb1461038157600080fd5b80632246fe0b146102c557806323b872dd146102e5578063248a55a11461030557600080fd5b8063095ea7b3116101a0578063095ea7b3146102415780630af87c581461027157806318160ddd146102935780631eb4a1e5146102b257600080fd5b80630210d751146101c757806304527d90146101f257806306fdde031461021f575b600080fd5b3480156101d357600080fd5b506101dc610573565b6040516101e991906135ba565b60405180910390f35b3480156101fe57600080fd5b5061021261020d36600461361c565b610894565b6040516101e99190613635565b34801561022b57600080fd5b5061023461094a565b6040516101e991906136b8565b34801561024d57600080fd5b5061026161025c3660046136e7565b6109dc565b60405190151581526020016101e9565b34801561027d57600080fd5b5061029161028c366004613711565b6109f6565b005b34801561029f57600080fd5b506004545b6040519081526020016101e9565b6102916102c036600461381d565b610c9c565b3480156102d157600080fd5b506102916102e03660046136e7565b611148565b3480156102f157600080fd5b506102616103003660046138a4565b611447565b34801561031157600080fd5b5061029161032036600461361c565b61146b565b34801561033157600080fd5b50604051601281526020016101e9565b34801561034d57600080fd5b5061021261035c3660046138e0565b6115fc565b34801561036d57600080fd5b5061026161037c3660046136e7565b611871565b61029161038f3660046139e8565b611893565b3480156103a057600080fd5b506102a46103af366004613a0a565b6001600160a01b031660009081526002602052604090205490565b3480156103d657600080fd5b5061029161196e565b6102916103ed3660046139e8565b611982565b3480156103fe57600080fd5b5061029161040d36600461361c565b611bee565b34801561041e57600080fd5b506000546040516001600160a01b0390911681526020016101e9565b34801561044657600080fd5b5061044f611c6c565b6040516101e99190613a25565b34801561046857600080fd5b50610234611f07565b34801561047d57600080fd5b5061044f61048c36600461361c565b611f16565b34801561049d57600080fd5b506104b16104ac36600461361c565b612082565b6040516101e99190613b01565b3480156104ca57600080fd5b506102616104d93660046136e7565b61225c565b3480156104ea57600080fd5b506102616104f93660046136e7565b6122d7565b34801561050a57600080fd5b506101dc6122e5565b34801561051f57600080fd5b506102a461052e366004613b14565b6125fc565b34801561053f57600080fd5b5061029161054e36600461361c565b612627565b34801561055f57600080fd5b5061029161056e366004613a0a565b612c52565b6060600060015b60075481116105e3576000818152600d60205260409020600b015460ff161580156105be57506000818152600d60205260409020600301546001600160a01b031633145b156105d157816105cd81613b5d565b9250505b806105db81613b5d565b91505061057a565b508067ffffffffffffffff8111156105fd576105fd61373d565b60405190808252806020026020018201604052801561063657816020015b61062361338c565b81526020019060019003908161061b5790505b509150600060015b600754811161088e576000818152600d60205260409020600b015460ff1615801561068257506000818152600d60205260409020600301546001600160a01b031633145b1561087c57600d6000828152602001908152602001600020604051806101a0016040529081600082015481526020016001820180546106c090613b76565b80601f01602080910402602001604051908101604052809291908181526020018280546106ec90613b76565b80156107395780601f1061070e57610100808354040283529160200191610739565b820191906000526020600020905b81548152906001019060200180831161071c57829003601f168201915b5050505050815260200160028201805461075290613b76565b80601f016020809104026020016040519081016040528092919081815260200182805461077e90613b76565b80156107cb5780601f106107a0576101008083540402835291602001916107cb565b820191906000526020600020905b8154815290600101906020018083116107ae57829003601f168201915b505050918352505060038201546001600160a01b03166020820152600482015460408201526005820154606082015260068201546080820152600782015460a0820152600882015460c0820152600982015460e0820152600a82015461010080830191909152600b9092015460ff8082161515610120840152929004909116151561014090910152848361085e81613b5d565b94508151811061087057610870613bb0565b60200260200101819052505b8061088681613b5d565b91505061063e565b50505090565b6060600f6000838152602001908152602001600020805480602002602001604051908101604052809291908181526020016000905b8282101561093f5760008481526020908190206040805160c08101825260068602909201805483526001808201548486015260028201546001600160a01b03169284019290925260038101546060840152600481015460808401526005015460ff16151560a083015290835290920191016108c9565b505050509050919050565b60606005805461095990613b76565b80601f016020809104026020016040519081016040528092919081815260200182805461098590613b76565b80156109d25780601f106109a7576101008083540402835291602001916109d2565b820191906000526020600020905b8154815290600101906020018083116109b557829003601f168201915b5050505050905090565b6000336109ea818585612cc8565b60019150505b92915050565b6000838152600d60205260409020600581015460069091015411610a615760405162461bcd60e51b815260206004820152601760248201527f4e6f7420656e6f75676820706c6161796572732079657400000000000000000060448201526064015b60405180910390fd5b6000838152600f60205260409020805484919084908110610a8457610a84613bb0565b90600052602060002090600602016001015414610ad65760405162461bcd60e51b815260206004820152601060248201526f141b185e595c881b9bdd08199bdd5b9960821b6044820152606401610a58565b6000838152600f60205260409020805483908110610af657610af6613bb0565b600091825260209091206005600690920201015460ff1615610b5a5760405162461bcd60e51b815260206004820152601760248201527f506c6179657220616c7265616479207265636f726465640000000000000000006044820152606401610a58565b6000838152600f60205260409020805433919084908110610b7d57610b7d613bb0565b60009182526020909120600260069092020101546001600160a01b031614610bb75760405162461bcd60e51b8152600401610a5890613bc6565b6000838152600f60205260409020805482919084908110610bda57610bda613bb0565b9060005260206000209060060201600301819055506001600f60008581526020019081526020016000208381548110610c1557610c15613bb0565b906000526020600020906006020160050160006101000a81548160ff02191690831515021790555033600f60008581526020019081526020016000208381548110610c6257610c62613bb0565b906000526020600020906006020160020160006101000a8154816001600160a01b0302191690836001600160a01b03160217905550505050565b60003411610cec5760405162461bcd60e51b815260206004820152601f60248201527f5374616b65206d7573742062652067726561746572207468616e207a65726f006044820152606401610a58565b60018411610d4a5760405162461bcd60e51b815260206004820152602560248201527f5061727469636970616e7473206d7573742062652067726561746572207468616044820152646e206f6e6560d81b6064820152608401610a58565b6000865111610d935760405162461bcd60e51b81526020600482015260156024820152745469746c652063616e6e6f7420626520656d70747960581b6044820152606401610a58565b6000855111610de45760405162461bcd60e51b815260206004820152601b60248201527f4465736372697074696f6e2063616e6e6f7420626520656d70747900000000006044820152606401610a58565b60008211610e405760405162461bcd60e51b8152602060048201526024808201527f53746172742064617465206d7573742062652067726561746572207468616e206044820152637a65726f60e01b6064820152608401610a58565b818111610ea05760405162461bcd60e51b815260206004820152602860248201527f456e642064617465206d7573742062652067726561746572207468616e207374604482015267617274206461746560c01b6064820152608401610a58565b60008311610ef05760405162461bcd60e51b815260206004820181905260248201527f4e756d626572204f662077696e6e6572732063616e6e6f74206265207a65726f6044820152606401610a58565b610efe600780546001019055565b610f0661338c565b600754815260208101879052604081018690526080810185905260a08101849052610100810183905261012081018290523460e0820152336060820152610f4b612dec565b610140820152610f59613401565b81516000908152600f6020818152604080842054855285518583019081523386830190815287518652938352818520805460018082018355918752848720885160069092020190815591518282015593516002820180546001600160a01b0319166001600160a01b03909216919091179055606086015160038201556080860151600482015560a08601516005909101805460ff191691151591909117905585518452600d8252909220845181559184015184929182019061101b9082613c41565b50604082015160028201906110309082613c41565b5060608201516003820180546001600160a01b0319166001600160a01b039092169190911790556080820151600482015560a0820151600582015560c0820151600682015560e082015160078201556101008083015160088301556101208301516009830155610140830151600a830155610160830151600b90920180546101809094015161ffff1990941692151561ff001916929092179215150291909117905581516000908152600c60205260409020805460ff1916600117905581516110f890612e0b565b61113e5760405162461bcd60e51b81526020600482015260176024820152762330b4b632b2103a379031b932b0ba3290383630bcb2b960491b6044820152606401610a58565b5050505050505050565b6000818152600c602052604090205460ff166111975760405162461bcd60e51b815260206004820152600e60248201526d11d85b59481b9bdd08119bdd5b9960921b6044820152606401610a58565b6000818152600d60205260409020600481015460069091015411156111f05760405162461bcd60e51b815260206004820152600f60248201526e4f7574206f6620436170616369747960881b6044820152606401610a58565b60008181526010602090815260408083206001600160a01b038616845290915290205460ff16156112635760405162461bcd60e51b815260206004820152601e60248201527f506c6179657220697320616c726561647920696e20746869732067616d6500006044820152606401610a58565b611271600980546001019055565b611279613442565b600954815260408082018390526000838152600d60205220600101805461129f90613b76565b80601f01602080910402602001604051908101604052809291908181526020018280546112cb90613b76565b80156113185780601f106112ed57610100808354040283529160200191611318565b820191906000526020600020905b8154815290600101906020018083116112fb57829003601f168201915b50505050506020820152336080820152611330612dec565b6101008201526000828152600d6020908152604080832060079081015460e0860152858452601183528184206001600160a01b03881685528352818420805460ff1916600190811790915586855260128452918420805480840182559085529383902085519490910201928355908301518392918201906113b19082613c41565b506040820151600282015560608201516003820180546001600160a01b0319166001600160a01b03928316179055608083015160048301805460a086015160c0870151939094166001600160a81b031990911617600160a01b931515939093029290921760ff60a81b1916600160a81b9115159190910217905560e0820151600582015561010090910151600690910155505050565b600033611455858285612f0d565b611460858585612f87565b506001949350505050565b6000818152600c602052604090205460ff166114995760405162461bcd60e51b8152600401610a5890613d01565b6000818152600d60205260409020600301546001600160a01b031633146114d25760405162461bcd60e51b8152600401610a5890613bc6565b6000818152600d60205260409020600601546001146115335760405162461bcd60e51b815260206004820181905260248201527f5061727469636970616e747320616c726561647920696e207468652067616d656044820152606401610a58565b6000818152600e6020526040902080548061155057611550613d29565b600082815260208082206003600019909401938402018281556001810183905560020180546001600160a01b03191690559190925582825260108152604080832033808552908352818420805460ff19169055848452600d909252909120600701546115bc9190613132565b6000818152600d602052604081206006018054916115d983613d3f565b90915550506000908152600d60205260409020600b01805460ff19166001179055565b805160609060005b61160f600183613d56565b8110156118695760005b60016116258385613d56565b61162f9190613d56565b8110156118565784818151811061164857611648613bb0565b602002602001015160a001518015611684575084611667826001613d69565b8151811061167757611677613bb0565b602002602001015160a001515b156117655784611695826001613d69565b815181106116a5576116a5613bb0565b6020026020010151606001518582815181106116c3576116c3613bb0565b60200260200101516060015111156117605760008582815181106116e9576116e9613bb0565b60200260200101519050858260016117019190613d69565b8151811061171157611711613bb0565b602002602001015186838151811061172b5761172b613bb0565b60209081029190910101528086611743846001613d69565b8151811061175357611753613bb0565b6020026020010181905250505b611844565b84818151811061177757611777613bb0565b602002602001015160a001511580156117b4575084611797826001613d69565b815181106117a7576117a7613bb0565b602002602001015160a001515b156118445760008582815181106117cd576117cd613bb0565b60200260200101519050858260016117e59190613d69565b815181106117f5576117f5613bb0565b602002602001015186838151811061180f5761180f613bb0565b60209081029190910101528086611827846001613d69565b8151811061183757611837613bb0565b6020026020010181905250505b8061184e81613b5d565b915050611619565b508061186181613b5d565b915050611604565b509192915050565b6000336109ea81858561188483836125fc565b61188e9190613d69565b612cc8565b6000828152600c602052604090205460ff166118c15760405162461bcd60e51b8152600401610a5890613d01565b60008281526012602052604090208054339190839081106118e4576118e4613bb0565b60009182526020909120600360079092020101546001600160a01b03161461191e5760405162461bcd60e51b8152600401610a5890613bc6565b60008281526012602052604090208054600191908390811061194257611942613bb0565b906000526020600020906007020160040160146101000a81548160ff0219169083151502179055505050565b611976613197565b61198060006131f1565b565b6000828152600c602052604090205460ff166119b05760405162461bcd60e51b8152600401610a5890613d01565b6000828152600d6020526040902060070154341015611a065760405162461bcd60e51b8152602060048201526012602482015271496e73756666696369656e742066756e647360701b6044820152606401610a58565b6000828152601260205260409020805433919083908110611a2957611a29613bb0565b60009182526020909120600360079092020101546001600160a01b031614611a635760405162461bcd60e51b8152600401610a5890613bc6565b611a6c82612e0b565b611ab25760405162461bcd60e51b81526020600482015260176024820152762330b4b632b2103a379031b932b0ba3290383630bcb2b960491b6044820152606401610a58565b600082815260126020526040902080546001919083908110611ad657611ad6613bb0565b906000526020600020906007020160040160146101000a81548160ff0219169083151502179055506001601260008481526020019081526020016000208281548110611b2457611b24613bb0565b906000526020600020906007020160040160156101000a81548160ff021916908315150217905550611b54613401565b6000838152600f6020818152604080842080548087528684019889523392870192835293835260018085018255908552919093208451600690930201918255945194810194909455516002840180546001600160a01b0319166001600160a01b03909216919091179055606081015160038401556080810151600484015560a001516005909201805460ff19169215159290921790915550565b611bf6613197565b600081118015611c07575060648111155b611c675760405162461bcd60e51b815260206004820152602b60248201527f4665652070657263656e74206d75737420626520696e207468652072616e676560448201526a206f662028312d3130302960a81b6064820152608401610a58565b600b55565b6060600060015b6007548111611cbe57600081815260116020908152604080832033845290915290205460ff1615611cac5781611ca881613b5d565b9250505b80611cb681613b5d565b915050611c73565b508067ffffffffffffffff811115611cd857611cd861373d565b604051908082528060200260200182016040528015611d1157816020015b611cfe613442565b815260200190600190039081611cf65790505b509150600060015b600754811161088e57600081815260116020908152604080832033845290915290205460ff1615611ef55760005b600082815260126020526040902054811015611ee6576000828152601260205260409020805482908110611d7d57611d7d613bb0565b90600052602060002090600702016040518061012001604052908160008201548152602001600182018054611db190613b76565b80601f0160208091040260200160405190810160405280929190818152602001828054611ddd90613b76565b8015611e2a5780601f10611dff57610100808354040283529160200191611e2a565b820191906000526020600020905b815481529060010190602001808311611e0d57829003601f168201915b50505091835250506002820154602082015260038201546001600160a01b0390811660408301526004830154908116606083015260ff600160a01b8204811615156080840152600160a81b90910416151560a0820152600582015460c082015260069091015460e0909101528551869085908110611eaa57611eaa613bb0565b602002602001018190525080858481518110611ec857611ec8613bb0565b60209081029190910101515280611ede81613b5d565b915050611d47565b5081611ef181613b5d565b9250505b80611eff81613b5d565b915050611d19565b60606006805461095990613b76565b606060126000838152602001908152602001600020805480602002602001604051908101604052809291908181526020016000905b8282101561093f57838290600052602060002090600702016040518061012001604052908160008201548152602001600182018054611f8990613b76565b80601f0160208091040260200160405190810160405280929190818152602001828054611fb590613b76565b80156120025780601f10611fd757610100808354040283529160200191612002565b820191906000526020600020905b815481529060010190602001808311611fe557829003601f168201915b5050509183525050600282015460208083019190915260038301546001600160a01b0390811660408401526004840154908116606084015260ff600160a01b8204811615156080850152600160a81b90910416151560a0830152600583015460c083015260069092015460e0909101529082526001929092019101611f4b565b61208a61338c565b600d6000838152602001908152602001600020604051806101a0016040529081600082015481526020016001820180546120c390613b76565b80601f01602080910402602001604051908101604052809291908181526020018280546120ef90613b76565b801561213c5780601f106121115761010080835404028352916020019161213c565b820191906000526020600020905b81548152906001019060200180831161211f57829003601f168201915b5050505050815260200160028201805461215590613b76565b80601f016020809104026020016040519081016040528092919081815260200182805461218190613b76565b80156121ce5780601f106121a3576101008083540402835291602001916121ce565b820191906000526020600020905b8154815290600101906020018083116121b157829003601f168201915b505050918352505060038201546001600160a01b03166020820152600482015460408201526005820154606082015260068201546080820152600782015460a0820152600882015460c0820152600982015460e0820152600a82015461010080830191909152600b9092015460ff808216151561012084015292900490911615156101409091015292915050565b6000338161226a82866125fc565b9050838110156122ca5760405162461bcd60e51b815260206004820152602560248201527f45524332303a2064656372656173656420616c6c6f77616e63652062656c6f77604482015264207a65726f60d81b6064820152608401610a58565b6114608286868403612cc8565b6000336109ea818585612f87565b6060600060015b6007548111612353576000818152600d60205260409020600b015460ff1615801561232e57506000818152600d60205260409020600b0154610100900460ff16155b15612341578161233d81613b5d565b9250505b8061234b81613b5d565b9150506122ec565b508067ffffffffffffffff81111561236d5761236d61373d565b6040519080825280602002602001820160405280156123a657816020015b61239361338c565b81526020019060019003908161238b5790505b509150600060015b600754811161088e576000818152600d60205260409020600b015460ff161580156123f057506000818152600d60205260409020600b0154610100900460ff16155b156125ea57600d6000828152602001908152602001600020604051806101a00160405290816000820154815260200160018201805461242e90613b76565b80601f016020809104026020016040519081016040528092919081815260200182805461245a90613b76565b80156124a75780601f1061247c576101008083540402835291602001916124a7565b820191906000526020600020905b81548152906001019060200180831161248a57829003601f168201915b505050505081526020016002820180546124c090613b76565b80601f01602080910402602001604051908101604052809291908181526020018280546124ec90613b76565b80156125395780601f1061250e57610100808354040283529160200191612539565b820191906000526020600020905b81548152906001019060200180831161251c57829003601f168201915b505050918352505060038201546001600160a01b03166020820152600482015460408201526005820154606082015260068201546080820152600782015460a0820152600882015460c0820152600982015460e0820152600a82015461010080830191909152600b9092015460ff808216151561012084015292900490911615156101409091015284836125cc81613b5d565b9450815181106125de576125de613bb0565b60200260200101819052505b806125f481613b5d565b9150506123ae565b6001600160a01b03918216600090815260036020908152604080832093909416825291909152205490565b61262f613241565b6000818152600c602052604090205460ff166126835760405162461bcd60e51b815260206004820152601360248201527211d85b5948191bd95cc81b9bdd08195e1a5cdd606a1b6044820152606401610a58565b6000818152600d602052604090206009015461269d612dec565b116126e25760405162461bcd60e51b815260206004820152601560248201527423b0b6b29039ba34b6361034b71039b2b9b9b4b7b760591b6044820152606401610a58565b6000818152600d60205260409020600b0154610100900460ff16156127415760405162461bcd60e51b815260206004820152601560248201527411d85b5948185b1c9958591e481c185a59081bdd5d605a1b6044820152606401610a58565b6000600d6000838152602001908152602001600020604051806101a00160405290816000820154815260200160018201805461277c90613b76565b80601f01602080910402602001604051908101604052809291908181526020018280546127a890613b76565b80156127f55780601f106127ca576101008083540402835291602001916127f5565b820191906000526020600020905b8154815290600101906020018083116127d857829003601f168201915b5050505050815260200160028201805461280e90613b76565b80601f016020809104026020016040519081016040528092919081815260200182805461283a90613b76565b80156128875780601f1061285c57610100808354040283529160200191612887565b820191906000526020600020905b81548152906001019060200180831161286a57829003601f168201915b505050918352505060038201546001600160a01b03166020820152600482015460408201526005820154606082015260068201546080820152600782015460a0820152600882015460c080830191909152600983015460e080840191909152600a84015461010080850191909152600b9094015460ff8082161515610120860152949004909316151561014090920191909152820151908201519192506000916129309161329a565b90506000612954606461294e600b548561329a90919063ffffffff16565b906132ad565b9050600061296d6129668360026132ad565b83906132b9565b905060006129858261297f86866132b9565b906132b9565b90506129a261299c6000546001600160a01b031690565b84613132565b6129b0856060015183613132565b6000868152600f602052604081205467ffffffffffffffff8111156129d7576129d761373d565b604051908082528060200260200182016040528015612a1057816020015b6129fd613401565b8152602001906001900390816129f55790505b506000888152600f602090815260408083208054825181850281018501909352808352949550612ac0949193909284015b82821015612ab75760008481526020908190206040805160c08101825260068602909201805483526001808201548486015260028201546001600160a01b03169284019290925260038101546060840152600481015460808401526005015460ff16151560a08301529083529092019101612a41565b505050506115fc565b90506000612adb8760a00151846132ad90919063ffffffff16565b905060005b8760a00151811015612c1f57612b13838281518110612b0157612b01613bb0565b60200260200101516040015183613132565b612b3a838281518110612b2857612b28613bb0565b602002602001015160400151836132c5565b60005b60008a8152600f6020526040902054811015612c0c5760008a8152600f60205260409020805482908110612b7357612b73613bb0565b600091825260209091206002600690920201015484516001600160a01b0390911690859084908110612ba757612ba7613bb0565b6020026020010151604001516001600160a01b031603612bfa5760008a8152600f60205260409020805484919083908110612be457612be4613bb0565b9060005260206000209060060201600401819055505b80612c0481613b5d565b915050612b3d565b5080612c1781613b5d565b915050612ae0565b5050506000868152600d60205260409020600b01805461ff00191661010017905550612c4f935061338692505050565b50565b612c5a613197565b6001600160a01b038116612cbf5760405162461bcd60e51b815260206004820152602660248201527f4f776e61626c653a206e6577206f776e657220697320746865207a65726f206160448201526564647265737360d01b6064820152608401610a58565b612c4f816131f1565b6001600160a01b038316612d2a5760405162461bcd60e51b8152602060048201526024808201527f45524332303a20617070726f76652066726f6d20746865207a65726f206164646044820152637265737360e01b6064820152608401610a58565b6001600160a01b038216612d8b5760405162461bcd60e51b815260206004820152602260248201527f45524332303a20617070726f766520746f20746865207a65726f206164647265604482015261737360f01b6064820152608401610a58565b6001600160a01b0383811660008181526003602090815260408083209487168084529482529182902085905590518481527f8c5be1e5ebec7d5bd14f71427d1e84f3dd0314c0f7b2291e5b200ac8c7c3b925910160405180910390a3505050565b6000612dfa42612710613d7c565b612e0690612710613d69565b905090565b6000612e1b600780546001019055565b612e486040518060600160405280600081526020016000815260200160006001600160a01b031681525090565b600854815260208082018481523360408085018281526000888152600e8652828120805460018082018355918352878320895160039092020190815586518183018190559351600290910180546001600160a01b0319166001600160a01b0390921691909117905591815260108652828120938152928552818320805460ff1916909117905591518152600d9092528120600601805491612ee883613b5d565b919050555034600a6000828254612eff9190613d69565b909155506001949350505050565b6000612f1984846125fc565b90506000198114612f815781811015612f745760405162461bcd60e51b815260206004820152601d60248201527f45524332303a20696e73756666696369656e7420616c6c6f77616e63650000006044820152606401610a58565b612f818484848403612cc8565b50505050565b6001600160a01b038316612feb5760405162461bcd60e51b815260206004820152602560248201527f45524332303a207472616e736665722066726f6d20746865207a65726f206164604482015264647265737360d81b6064820152608401610a58565b6001600160a01b03821661304d5760405162461bcd60e51b815260206004820152602360248201527f45524332303a207472616e7366657220746f20746865207a65726f206164647260448201526265737360e81b6064820152608401610a58565b6001600160a01b038316600090815260026020526040902054818110156130c55760405162461bcd60e51b815260206004820152602660248201527f45524332303a207472616e7366657220616d6f756e7420657863656564732062604482015265616c616e636560d01b6064820152608401610a58565b6001600160a01b0380851660008181526002602052604080822086860390559286168082529083902080548601905591517fddf252ad1be2c89b69c2b068fc378daa952ba7f163c4a11628f55a4df523b3ef906131259086815260200190565b60405180910390a3612f81565b6000826001600160a01b03168260405160006040518083038185875af1925050503d806000811461317f576040519150601f19603f3d011682016040523d82523d6000602084013e613184565b606091505b505090508061319257600080fd5b505050565b6000546001600160a01b031633146119805760405162461bcd60e51b815260206004820181905260248201527f4f776e61626c653a2063616c6c6572206973206e6f7420746865206f776e65726044820152606401610a58565b600080546001600160a01b038381166001600160a01b0319831681178455604051919092169283917f8be0079c531659141344cd1fd0a4f28419497f9722a3daafe3b4186f6b6457e09190a35050565b6002600154036132935760405162461bcd60e51b815260206004820152601f60248201527f5265656e7472616e637947756172643a207265656e7472616e742063616c6c006044820152606401610a58565b6002600155565b60006132a68284613d7c565b9392505050565b60006132a68284613d93565b60006132a68284613d56565b6001600160a01b03821661331b5760405162461bcd60e51b815260206004820152601f60248201527f45524332303a206d696e7420746f20746865207a65726f2061646472657373006044820152606401610a58565b806004600082825461332d9190613d69565b90915550506001600160a01b0382166000818152600260209081526040808320805486019055518481527fddf252ad1be2c89b69c2b068fc378daa952ba7f163c4a11628f55a4df523b3ef910160405180910390a35050565b60018055565b604051806101a0016040528060008152602001606081526020016060815260200160006001600160a01b03168152602001600081526020016000815260200160008152602001600081526020016000815260200160008152602001600081526020016000151581526020016000151581525090565b6040518060c00160405280600081526020016000815260200160006001600160a01b0316815260200160008152602001600081526020016000151581525090565b60405180610120016040528060008152602001606081526020016000815260200160006001600160a01b0316815260200160006001600160a01b0316815260200160001515815260200160001515815260200160008152602001600081525090565b6000815180845260005b818110156134ca576020818501810151868301820152016134ae565b506000602082860101526020601f19601f83011685010191505092915050565b60006101a082518452602083015181602086015261350a828601826134a4565b9150506040830151848203604086015261352482826134a4565b915050606083015161354160608601826001600160a01b03169052565b506080830151608085015260a083015160a085015260c083015160c085015260e083015160e0850152610100808401518186015250610120808401518186015250610140808401518186015250610160808401516135a28287018215159052565b50506101809283015115159390920192909252919050565b6000602080830181845280855180835260408601915060408160051b870101925083870160005b8281101561360f57603f198886030184526135fd8583516134ea565b945092850192908501906001016135e1565b5092979650505050505050565b60006020828403121561362e57600080fd5b5035919050565b602080825282518282018190526000919060409081850190868401855b828110156136ab578151805185528681015187860152858101516001600160a01b031686860152606080820151908601526080808201519086015260a09081015115159085015260c09093019290850190600101613652565b5091979650505050505050565b6020815260006132a660208301846134a4565b80356001600160a01b03811681146136e257600080fd5b919050565b600080604083850312156136fa57600080fd5b613703836136cb565b946020939093013593505050565b60008060006060848603121561372657600080fd5b505081359360208301359350604090920135919050565b634e487b7160e01b600052604160045260246000fd5b60405160c0810167ffffffffffffffff811182821017156137765761377661373d565b60405290565b604051601f8201601f1916810167ffffffffffffffff811182821017156137a5576137a561373d565b604052919050565b600082601f8301126137be57600080fd5b813567ffffffffffffffff8111156137d8576137d861373d565b6137eb601f8201601f191660200161377c565b81815284602083860101111561380057600080fd5b816020850160208301376000918101602001919091529392505050565b60008060008060008060c0878903121561383657600080fd5b863567ffffffffffffffff8082111561384e57600080fd5b61385a8a838b016137ad565b9750602089013591508082111561387057600080fd5b5061387d89828a016137ad565b96999698505050506040850135946060810135946080820135945060a09091013592509050565b6000806000606084860312156138b957600080fd5b6138c2846136cb565b92506138d0602085016136cb565b9150604084013590509250925092565b600060208083850312156138f357600080fd5b823567ffffffffffffffff8082111561390b57600080fd5b818501915085601f83011261391f57600080fd5b8135818111156139315761393161373d565b61393f848260051b0161377c565b818152848101925060c091820284018501918883111561395e57600080fd5b938501935b828510156139dc5780858a03121561397b5760008081fd5b613983613753565b853581528686013587820152604061399c8188016136cb565b90820152606086810135908201526080808701359082015260a08087013580151581146139c95760008081fd5b9082015284529384019392850192613963565b50979650505050505050565b600080604083850312156139fb57600080fd5b50508035926020909101359150565b600060208284031215613a1c57600080fd5b6132a6826136cb565b60006020808301818452808551808352604092508286019150828160051b87010184880160005b83811015613af357603f1989840301855281516101208151855288820151818a870152613a7b828701826134a4565b9150508782015188860152606080830151613aa0828801826001600160a01b03169052565b50506080828101516001600160a01b03169086015260a08083015115159086015260c08083015115159086015260e080830151908601526101009182015191909401529386019390860190600101613a4c565b509098975050505050505050565b6020815260006132a660208301846134ea565b60008060408385031215613b2757600080fd5b613b30836136cb565b9150613b3e602084016136cb565b90509250929050565b634e487b7160e01b600052601160045260246000fd5b600060018201613b6f57613b6f613b47565b5060010190565b600181811c90821680613b8a57607f821691505b602082108103613baa57634e487b7160e01b600052602260045260246000fd5b50919050565b634e487b7160e01b600052603260045260246000fd5b602080825260139082015272556e617574686f72697a656420656e7469747960681b604082015260600190565b601f82111561319257600081815260208120601f850160051c81016020861015613c1a5750805b601f850160051c820191505b81811015613c3957828155600101613c26565b505050505050565b815167ffffffffffffffff811115613c5b57613c5b61373d565b613c6f81613c698454613b76565b84613bf3565b602080601f831160018114613ca45760008415613c8c5750858301515b600019600386901b1c1916600185901b178555613c39565b600085815260208120601f198616915b82811015613cd357888601518255948401946001909101908401613cb4565b5085821015613cf15787850151600019600388901b60f8161c191681555b5050505050600190811b01905550565b6020808252600e908201526d11d85b59481b9bdd08199bdd5b9960921b604082015260600190565b634e487b7160e01b600052603160045260246000fd5b600081613d4e57613d4e613b47565b506000190190565b818103818111156109f0576109f0613b47565b808201808211156109f0576109f0613b47565b80820281158282048414176109f0576109f0613b47565b600082613db057634e487b7160e01b600052601260045260246000fd5b50049056fea2646970667358221220f4bd858532493b704e5258b107e6b87139dae29c51876d936c389c5a5b98b83b64736f6c63430008110033","opcodes":"PUSH1 0x80 PUSH1 0x40 MSTORE CALLVALUE DUP1 ISZERO PUSH3 0x11 JUMPI PUSH1 0x0 DUP1 REVERT JUMPDEST POP PUSH1 0x40 MLOAD PUSH3 0x4096 CODESIZE SUB DUP1 PUSH3 0x4096 DUP4 CODECOPY DUP2 ADD PUSH1 0x40 DUP2 SWAP1 MSTORE PUSH3 0x34 SWAP2 PUSH3 0x110 JUMP JUMPDEST PUSH1 0x40 MLOAD DUP1 PUSH1 0x40 ADD PUSH1 0x40 MSTORE DUP1 PUSH1 0xC DUP2 MSTORE PUSH1 0x20 ADD PUSH12 0x283630BC903A379022B0B937 PUSH1 0xA1 SHL DUP2 MSTORE POP PUSH1 0x40 MLOAD DUP1 PUSH1 0x40 ADD PUSH1 0x40 MSTORE DUP1 PUSH1 0x3 DUP2 MSTORE PUSH1 0x20 ADD PUSH3 0x503245 PUSH1 0xE8 SHL DUP2 MSTORE POP PUSH3 0x8F PUSH3 0x89 PUSH3 0xBC PUSH1 0x20 SHL PUSH1 0x20 SHR JUMP JUMPDEST PUSH3 0xC0 JUMP JUMPDEST PUSH1 0x1 DUP1 SSTORE PUSH1 0x5 PUSH3 0xA1 DUP4 DUP3 PUSH3 0x1CF JUMP JUMPDEST POP PUSH1 0x6 PUSH3 0xB0 DUP3 DUP3 PUSH3 0x1CF JUMP JUMPDEST POP POP POP PUSH1 0xB SSTORE PUSH3 0x29B JUMP JUMPDEST CALLER SWAP1 JUMP JUMPDEST PUSH1 0x0 DUP1 SLOAD PUSH1 0x1 PUSH1 0x1 PUSH1 0xA0 SHL SUB DUP4 DUP2 AND PUSH1 0x1 PUSH1 0x1 PUSH1 0xA0 SHL SUB NOT DUP4 AND DUP2 OR DUP5 SSTORE PUSH1 0x40 MLOAD SWAP2 SWAP1 SWAP3 AND SWAP3 DUP4 SWAP2 PUSH32 0x8BE0079C531659141344CD1FD0A4F28419497F9722A3DAAFE3B4186F6B6457E0 SWAP2 SWAP1 LOG3 POP POP JUMP JUMPDEST PUSH1 0x0 PUSH1 0x20 DUP3 DUP5 SUB SLT ISZERO PUSH3 0x123 JUMPI PUSH1 0x0 DUP1 REVERT JUMPDEST POP MLOAD SWAP2 SWAP1 POP JUMP JUMPDEST PUSH4 0x4E487B71 PUSH1 0xE0 SHL PUSH1 0x0 MSTORE PUSH1 0x41 PUSH1 0x4 MSTORE PUSH1 0x24 PUSH1 0x0 REVERT JUMPDEST PUSH1 0x1 DUP2 DUP2 SHR SWAP1 DUP3 AND DUP1 PUSH3 0x155 JUMPI PUSH1 0x7F DUP3 AND SWAP2 POP JUMPDEST PUSH1 0x20 DUP3 LT DUP2 SUB PUSH3 0x176 JUMPI PUSH4 0x4E487B71 PUSH1 0xE0 SHL PUSH1 0x0 MSTORE PUSH1 0x22 PUSH1 0x4 MSTORE PUSH1 0x24 PUSH1 0x0 REVERT JUMPDEST POP SWAP2 SWAP1 POP JUMP JUMPDEST PUSH1 0x1F DUP3 GT ISZERO PUSH3 0x1CA JUMPI PUSH1 0x0 DUP2 DUP2 MSTORE PUSH1 0x20 DUP2 KECCAK256 PUSH1 0x1F DUP6 ADD PUSH1 0x5 SHR DUP2 ADD PUSH1 0x20 DUP7 LT ISZERO PUSH3 0x1A5 JUMPI POP DUP1 JUMPDEST PUSH1 0x1F DUP6 ADD PUSH1 0x5 SHR DUP3 ADD SWAP2 POP JUMPDEST DUP2 DUP2 LT ISZERO PUSH3 0x1C6 JUMPI DUP3 DUP2 SSTORE PUSH1 0x1 ADD PUSH3 0x1B1 JUMP JUMPDEST POP POP POP JUMPDEST POP POP POP JUMP JUMPDEST DUP2 MLOAD PUSH1 0x1 PUSH1 0x1 PUSH1 0x40 SHL SUB DUP2 GT ISZERO PUSH3 0x1EB JUMPI PUSH3 0x1EB PUSH3 0x12A JUMP JUMPDEST PUSH3 0x203 DUP2 PUSH3 0x1FC DUP5 SLOAD PUSH3 0x140 JUMP JUMPDEST DUP5 PUSH3 0x17C JUMP JUMPDEST PUSH1 0x20 DUP1 PUSH1 0x1F DUP4 GT PUSH1 0x1 DUP2 EQ PUSH3 0x23B JUMPI PUSH1 0x0 DUP5 ISZERO PUSH3 0x222 JUMPI POP DUP6 DUP4 ADD MLOAD JUMPDEST PUSH1 0x0 NOT PUSH1 0x3 DUP7 SWAP1 SHL SHR NOT AND PUSH1 0x1 DUP6 SWAP1 SHL OR DUP6 SSTORE PUSH3 0x1C6 JUMP JUMPDEST PUSH1 0x0 DUP6 DUP2 MSTORE PUSH1 0x20 DUP2 KECCAK256 PUSH1 0x1F NOT DUP7 AND SWAP2 JUMPDEST DUP3 DUP2 LT ISZERO PUSH3 0x26C JUMPI DUP9 DUP7 ADD MLOAD DUP3 SSTORE SWAP5 DUP5 ADD SWAP5 PUSH1 0x1 SWAP1 SWAP2 ADD SWAP1 DUP5 ADD PUSH3 0x24B JUMP JUMPDEST POP DUP6 DUP3 LT ISZERO PUSH3 0x28B JUMPI DUP8 DUP6 ADD MLOAD PUSH1 0x0 NOT PUSH1 0x3 DUP9 SWAP1 SHL PUSH1 0xF8 AND SHR NOT AND DUP2 SSTORE JUMPDEST POP POP POP POP POP PUSH1 0x1 SWAP1 DUP2 SHL ADD SWAP1 SSTORE POP JUMP JUMPDEST PUSH2 0x3DEB DUP1 PUSH3 0x2AB PUSH1 0x0 CODECOPY PUSH1 0x0 RETURN INVALID PUSH1 0x80 PUSH1 0x40 MSTORE PUSH1 0x4 CALLDATASIZE LT PUSH2 0x1C2 JUMPI PUSH1 0x0 CALLDATALOAD PUSH1 0xE0 SHR DUP1 PUSH4 0x70A08231 GT PUSH2 0xF7 JUMPI DUP1 PUSH4 0xA09621C7 GT PUSH2 0x95 JUMPI DUP1 PUSH4 0xC04C5947 GT PUSH2 0x64 JUMPI DUP1 PUSH4 0xC04C5947 EQ PUSH2 0x4FE JUMPI DUP1 PUSH4 0xDD62ED3E EQ PUSH2 0x513 JUMPI DUP1 PUSH4 0xE1152343 EQ PUSH2 0x533 JUMPI DUP1 PUSH4 0xF2FDE38B EQ PUSH2 0x553 JUMPI PUSH1 0x0 DUP1 REVERT JUMPDEST DUP1 PUSH4 0xA09621C7 EQ PUSH2 0x471 JUMPI DUP1 PUSH4 0xA2F77BCC EQ PUSH2 0x491 JUMPI DUP1 PUSH4 0xA457C2D7 EQ PUSH2 0x4BE JUMPI DUP1 PUSH4 0xA9059CBB EQ PUSH2 0x4DE JUMPI PUSH1 0x0 DUP1 REVERT JUMPDEST DUP1 PUSH4 0x7CE3489B GT PUSH2 0xD1 JUMPI DUP1 PUSH4 0x7CE3489B EQ PUSH2 0x3F2 JUMPI DUP1 PUSH4 0x8DA5CB5B EQ PUSH2 0x412 JUMPI DUP1 PUSH4 0x90D559A7 EQ PUSH2 0x43A JUMPI DUP1 PUSH4 0x95D89B41 EQ PUSH2 0x45C JUMPI PUSH1 0x0 DUP1 REVERT JUMPDEST DUP1 PUSH4 0x70A08231 EQ PUSH2 0x394 JUMPI DUP1 PUSH4 0x715018A6 EQ PUSH2 0x3CA JUMPI DUP1 PUSH4 0x7A2F2136 EQ PUSH2 0x3DF JUMPI PUSH1 0x0 DUP1 REVERT JUMPDEST DUP1 PUSH4 0x2246FE0B GT PUSH2 0x164 JUMPI DUP1 PUSH4 0x313CE567 GT PUSH2 0x13E JUMPI DUP1 PUSH4 0x313CE567 EQ PUSH2 0x325 JUMPI DUP1 PUSH4 0x337B67DB EQ PUSH2 0x341 JUMPI DUP1 PUSH4 0x39509351 EQ PUSH2 0x361 JUMPI DUP1 PUSH4 0x39BD3BBB EQ PUSH2 0x381 JUMPI PUSH1 0x0 DUP1 REVERT JUMPDEST DUP1 PUSH4 0x2246FE0B EQ PUSH2 0x2C5 JUMPI DUP1 PUSH4 0x23B872DD EQ PUSH2 0x2E5 JUMPI DUP1 PUSH4 0x248A55A1 EQ PUSH2 0x305 JUMPI PUSH1 0x0 DUP1 REVERT JUMPDEST DUP1 PUSH4 0x95EA7B3 GT PUSH2 0x1A0 JUMPI DUP1 PUSH4 0x95EA7B3 EQ PUSH2 0x241 JUMPI DUP1 PUSH4 0xAF87C58 EQ PUSH2 0x271 JUMPI DUP1 PUSH4 0x18160DDD EQ PUSH2 0x293 JUMPI DUP1 PUSH4 0x1EB4A1E5 EQ PUSH2 0x2B2 JUMPI PUSH1 0x0 DUP1 REVERT JUMPDEST DUP1 PUSH4 0x210D751 EQ PUSH2 0x1C7 JUMPI DUP1 PUSH4 0x4527D90 EQ PUSH2 0x1F2 JUMPI DUP1 PUSH4 0x6FDDE03 EQ PUSH2 0x21F JUMPI JUMPDEST PUSH1 0x0 DUP1 REVERT JUMPDEST CALLVALUE DUP1 ISZERO PUSH2 0x1D3 JUMPI PUSH1 0x0 DUP1 REVERT JUMPDEST POP PUSH2 0x1DC PUSH2 0x573 JUMP JUMPDEST PUSH1 0x40 MLOAD PUSH2 0x1E9 SWAP2 SWAP1 PUSH2 0x35BA JUMP JUMPDEST PUSH1 0x40 MLOAD DUP1 SWAP2 SUB SWAP1 RETURN JUMPDEST CALLVALUE DUP1 ISZERO PUSH2 0x1FE JUMPI PUSH1 0x0 DUP1 REVERT JUMPDEST POP PUSH2 0x212 PUSH2 0x20D CALLDATASIZE PUSH1 0x4 PUSH2 0x361C JUMP JUMPDEST PUSH2 0x894 JUMP JUMPDEST PUSH1 0x40 MLOAD PUSH2 0x1E9 SWAP2 SWAP1 PUSH2 0x3635 JUMP JUMPDEST CALLVALUE DUP1 ISZERO PUSH2 0x22B JUMPI PUSH1 0x0 DUP1 REVERT JUMPDEST POP PUSH2 0x234 PUSH2 0x94A JUMP JUMPDEST PUSH1 0x40 MLOAD PUSH2 0x1E9 SWAP2 SWAP1 PUSH2 0x36B8 JUMP JUMPDEST CALLVALUE DUP1 ISZERO PUSH2 0x24D JUMPI PUSH1 0x0 DUP1 REVERT JUMPDEST POP PUSH2 0x261 PUSH2 0x25C CALLDATASIZE PUSH1 0x4 PUSH2 0x36E7 JUMP JUMPDEST PUSH2 0x9DC JUMP JUMPDEST PUSH1 0x40 MLOAD SWAP1 ISZERO ISZERO DUP2 MSTORE PUSH1 0x20 ADD PUSH2 0x1E9 JUMP JUMPDEST CALLVALUE DUP1 ISZERO PUSH2 0x27D JUMPI PUSH1 0x0 DUP1 REVERT JUMPDEST POP PUSH2 0x291 PUSH2 0x28C CALLDATASIZE PUSH1 0x4 PUSH2 0x3711 JUMP JUMPDEST PUSH2 0x9F6 JUMP JUMPDEST STOP JUMPDEST CALLVALUE DUP1 ISZERO PUSH2 0x29F JUMPI PUSH1 0x0 DUP1 REVERT JUMPDEST POP PUSH1 0x4 SLOAD JUMPDEST PUSH1 0x40 MLOAD SWAP1 DUP2 MSTORE PUSH1 0x20 ADD PUSH2 0x1E9 JUMP JUMPDEST PUSH2 0x291 PUSH2 0x2C0 CALLDATASIZE PUSH1 0x4 PUSH2 0x381D JUMP JUMPDEST PUSH2 0xC9C JUMP JUMPDEST CALLVALUE DUP1 ISZERO PUSH2 0x2D1 JUMPI PUSH1 0x0 DUP1 REVERT JUMPDEST POP PUSH2 0x291 PUSH2 0x2E0 CALLDATASIZE PUSH1 0x4 PUSH2 0x36E7 JUMP JUMPDEST PUSH2 0x1148 JUMP JUMPDEST CALLVALUE DUP1 ISZERO PUSH2 0x2F1 JUMPI PUSH1 0x0 DUP1 REVERT JUMPDEST POP PUSH2 0x261 PUSH2 0x300 CALLDATASIZE PUSH1 0x4 PUSH2 0x38A4 JUMP JUMPDEST PUSH2 0x1447 JUMP JUMPDEST CALLVALUE DUP1 ISZERO PUSH2 0x311 JUMPI PUSH1 0x0 DUP1 REVERT JUMPDEST POP PUSH2 0x291 PUSH2 0x320 CALLDATASIZE PUSH1 0x4 PUSH2 0x361C JUMP JUMPDEST PUSH2 0x146B JUMP JUMPDEST CALLVALUE DUP1 ISZERO PUSH2 0x331 JUMPI PUSH1 0x0 DUP1 REVERT JUMPDEST POP PUSH1 0x40 MLOAD PUSH1 0x12 DUP2 MSTORE PUSH1 0x20 ADD PUSH2 0x1E9 JUMP JUMPDEST CALLVALUE DUP1 ISZERO PUSH2 0x34D JUMPI PUSH1 0x0 DUP1 REVERT JUMPDEST POP PUSH2 0x212 PUSH2 0x35C CALLDATASIZE PUSH1 0x4 PUSH2 0x38E0 JUMP JUMPDEST PUSH2 0x15FC JUMP JUMPDEST CALLVALUE DUP1 ISZERO PUSH2 0x36D JUMPI PUSH1 0x0 DUP1 REVERT JUMPDEST POP PUSH2 0x261 PUSH2 0x37C CALLDATASIZE PUSH1 0x4 PUSH2 0x36E7 JUMP JUMPDEST PUSH2 0x1871 JUMP JUMPDEST PUSH2 0x291 PUSH2 0x38F CALLDATASIZE PUSH1 0x4 PUSH2 0x39E8 JUMP JUMPDEST PUSH2 0x1893 JUMP JUMPDEST CALLVALUE DUP1 ISZERO PUSH2 0x3A0 JUMPI PUSH1 0x0 DUP1 REVERT JUMPDEST POP PUSH2 0x2A4 PUSH2 0x3AF CALLDATASIZE PUSH1 0x4 PUSH2 0x3A0A JUMP JUMPDEST PUSH1 0x1 PUSH1 0x1 PUSH1 0xA0 SHL SUB AND PUSH1 0x0 SWAP1 DUP2 MSTORE PUSH1 0x2 PUSH1 0x20 MSTORE PUSH1 0x40 SWAP1 KECCAK256 SLOAD SWAP1 JUMP JUMPDEST CALLVALUE DUP1 ISZERO PUSH2 0x3D6 JUMPI PUSH1 0x0 DUP1 REVERT JUMPDEST POP PUSH2 0x291 PUSH2 0x196E JUMP JUMPDEST PUSH2 0x291 PUSH2 0x3ED CALLDATASIZE PUSH1 0x4 PUSH2 0x39E8 JUMP JUMPDEST PUSH2 0x1982 JUMP JUMPDEST CALLVALUE DUP1 ISZERO PUSH2 0x3FE JUMPI PUSH1 0x0 DUP1 REVERT JUMPDEST POP PUSH2 0x291 PUSH2 0x40D CALLDATASIZE PUSH1 0x4 PUSH2 0x361C JUMP JUMPDEST PUSH2 0x1BEE JUMP JUMPDEST CALLVALUE DUP1 ISZERO PUSH2 0x41E JUMPI PUSH1 0x0 DUP1 REVERT JUMPDEST POP PUSH1 0x0 SLOAD PUSH1 0x40 MLOAD PUSH1 0x1 PUSH1 0x1 PUSH1 0xA0 SHL SUB SWAP1 SWAP2 AND DUP2 MSTORE PUSH1 0x20 ADD PUSH2 0x1E9 JUMP JUMPDEST CALLVALUE DUP1 ISZERO PUSH2 0x446 JUMPI PUSH1 0x0 DUP1 REVERT JUMPDEST POP PUSH2 0x44F PUSH2 0x1C6C JUMP JUMPDEST PUSH1 0x40 MLOAD PUSH2 0x1E9 SWAP2 SWAP1 PUSH2 0x3A25 JUMP JUMPDEST CALLVALUE DUP1 ISZERO PUSH2 0x468 JUMPI PUSH1 0x0 DUP1 REVERT JUMPDEST POP PUSH2 0x234 PUSH2 0x1F07 JUMP JUMPDEST CALLVALUE DUP1 ISZERO PUSH2 0x47D JUMPI PUSH1 0x0 DUP1 REVERT JUMPDEST POP PUSH2 0x44F PUSH2 0x48C CALLDATASIZE PUSH1 0x4 PUSH2 0x361C JUMP JUMPDEST PUSH2 0x1F16 JUMP JUMPDEST CALLVALUE DUP1 ISZERO PUSH2 0x49D JUMPI PUSH1 0x0 DUP1 REVERT JUMPDEST POP PUSH2 0x4B1 PUSH2 0x4AC CALLDATASIZE PUSH1 0x4 PUSH2 0x361C JUMP JUMPDEST PUSH2 0x2082 JUMP JUMPDEST PUSH1 0x40 MLOAD PUSH2 0x1E9 SWAP2 SWAP1 PUSH2 0x3B01 JUMP JUMPDEST CALLVALUE DUP1 ISZERO PUSH2 0x4CA JUMPI PUSH1 0x0 DUP1 REVERT JUMPDEST POP PUSH2 0x261 PUSH2 0x4D9 CALLDATASIZE PUSH1 0x4 PUSH2 0x36E7 JUMP JUMPDEST PUSH2 0x225C JUMP JUMPDEST CALLVALUE DUP1 ISZERO PUSH2 0x4EA JUMPI PUSH1 0x0 DUP1 REVERT JUMPDEST POP PUSH2 0x261 PUSH2 0x4F9 CALLDATASIZE PUSH1 0x4 PUSH2 0x36E7 JUMP JUMPDEST PUSH2 0x22D7 JUMP JUMPDEST CALLVALUE DUP1 ISZERO PUSH2 0x50A JUMPI PUSH1 0x0 DUP1 REVERT JUMPDEST POP PUSH2 0x1DC PUSH2 0x22E5 JUMP JUMPDEST CALLVALUE DUP1 ISZERO PUSH2 0x51F JUMPI PUSH1 0x0 DUP1 REVERT JUMPDEST POP PUSH2 0x2A4 PUSH2 0x52E CALLDATASIZE PUSH1 0x4 PUSH2 0x3B14 JUMP JUMPDEST PUSH2 0x25FC JUMP JUMPDEST CALLVALUE DUP1 ISZERO PUSH2 0x53F JUMPI PUSH1 0x0 DUP1 REVERT JUMPDEST POP PUSH2 0x291 PUSH2 0x54E CALLDATASIZE PUSH1 0x4 PUSH2 0x361C JUMP JUMPDEST PUSH2 0x2627 JUMP JUMPDEST CALLVALUE DUP1 ISZERO PUSH2 0x55F JUMPI PUSH1 0x0 DUP1 REVERT JUMPDEST POP PUSH2 0x291 PUSH2 0x56E CALLDATASIZE PUSH1 0x4 PUSH2 0x3A0A JUMP JUMPDEST PUSH2 0x2C52 JUMP JUMPDEST PUSH1 0x60 PUSH1 0x0 PUSH1 0x1 JUMPDEST PUSH1 0x7 SLOAD DUP2 GT PUSH2 0x5E3 JUMPI PUSH1 0x0 DUP2 DUP2 MSTORE PUSH1 0xD PUSH1 0x20 MSTORE PUSH1 0x40 SWAP1 KECCAK256 PUSH1 0xB ADD SLOAD PUSH1 0xFF AND ISZERO DUP1 ISZERO PUSH2 0x5BE JUMPI POP PUSH1 0x0 DUP2 DUP2 MSTORE PUSH1 0xD PUSH1 0x20 MSTORE PUSH1 0x40 SWAP1 KECCAK256 PUSH1 0x3 ADD SLOAD PUSH1 0x1 PUSH1 0x1 PUSH1 0xA0 SHL SUB AND CALLER EQ JUMPDEST ISZERO PUSH2 0x5D1 JUMPI DUP2 PUSH2 0x5CD DUP2 PUSH2 0x3B5D JUMP JUMPDEST SWAP3 POP POP JUMPDEST DUP1 PUSH2 0x5DB DUP2 PUSH2 0x3B5D JUMP JUMPDEST SWAP2 POP POP PUSH2 0x57A JUMP JUMPDEST POP DUP1 PUSH8 0xFFFFFFFFFFFFFFFF DUP2 GT ISZERO PUSH2 0x5FD JUMPI PUSH2 0x5FD PUSH2 0x373D JUMP JUMPDEST PUSH1 0x40 MLOAD SWAP1 DUP1 DUP3 MSTORE DUP1 PUSH1 0x20 MUL PUSH1 0x20 ADD DUP3 ADD PUSH1 0x40 MSTORE DUP1 ISZERO PUSH2 0x636 JUMPI DUP2 PUSH1 0x20 ADD JUMPDEST PUSH2 0x623 PUSH2 0x338C JUMP JUMPDEST DUP2 MSTORE PUSH1 0x20 ADD SWAP1 PUSH1 0x1 SWAP1 SUB SWAP1 DUP2 PUSH2 0x61B JUMPI SWAP1 POP JUMPDEST POP SWAP2 POP PUSH1 0x0 PUSH1 0x1 JUMPDEST PUSH1 0x7 SLOAD DUP2 GT PUSH2 0x88E JUMPI PUSH1 0x0 DUP2 DUP2 MSTORE PUSH1 0xD PUSH1 0x20 MSTORE PUSH1 0x40 SWAP1 KECCAK256 PUSH1 0xB ADD SLOAD PUSH1 0xFF AND ISZERO DUP1 ISZERO PUSH2 0x682 JUMPI POP PUSH1 0x0 DUP2 DUP2 MSTORE PUSH1 0xD PUSH1 0x20 MSTORE PUSH1 0x40 SWAP1 KECCAK256 PUSH1 0x3 ADD SLOAD PUSH1 0x1 PUSH1 0x1 PUSH1 0xA0 SHL SUB AND CALLER EQ JUMPDEST ISZERO PUSH2 0x87C JUMPI PUSH1 0xD PUSH1 0x0 DUP3 DUP2 MSTORE PUSH1 0x20 ADD SWAP1 DUP2 MSTORE PUSH1 0x20 ADD PUSH1 0x0 KECCAK256 PUSH1 0x40 MLOAD DUP1 PUSH2 0x1A0 ADD PUSH1 0x40 MSTORE SWAP1 DUP2 PUSH1 0x0 DUP3 ADD SLOAD DUP2 MSTORE PUSH1 0x20 ADD PUSH1 0x1 DUP3 ADD DUP1 SLOAD PUSH2 0x6C0 SWAP1 PUSH2 0x3B76 JUMP JUMPDEST DUP1 PUSH1 0x1F ADD PUSH1 0x20 DUP1 SWAP2 DIV MUL PUSH1 0x20 ADD PUSH1 0x40 MLOAD SWAP1 DUP2 ADD PUSH1 0x40 MSTORE DUP1 SWAP3 SWAP2 SWAP1 DUP2 DUP2 MSTORE PUSH1 0x20 ADD DUP3 DUP1 SLOAD PUSH2 0x6EC SWAP1 PUSH2 0x3B76 JUMP JUMPDEST DUP1 ISZERO PUSH2 0x739 JUMPI DUP1 PUSH1 0x1F LT PUSH2 0x70E JUMPI PUSH2 0x100 DUP1 DUP4 SLOAD DIV MUL DUP4 MSTORE SWAP2 PUSH1 0x20 ADD SWAP2 PUSH2 0x739 JUMP JUMPDEST DUP3 ADD SWAP2 SWAP1 PUSH1 0x0 MSTORE PUSH1 0x20 PUSH1 0x0 KECCAK256 SWAP1 JUMPDEST DUP2 SLOAD DUP2 MSTORE SWAP1 PUSH1 0x1 ADD SWAP1 PUSH1 0x20 ADD DUP1 DUP4 GT PUSH2 0x71C JUMPI DUP3 SWAP1 SUB PUSH1 0x1F AND DUP3 ADD SWAP2 JUMPDEST POP POP POP POP POP DUP2 MSTORE PUSH1 0x20 ADD PUSH1 0x2 DUP3 ADD DUP1 SLOAD PUSH2 0x752 SWAP1 PUSH2 0x3B76 JUMP JUMPDEST DUP1 PUSH1 0x1F ADD PUSH1 0x20 DUP1 SWAP2 DIV MUL PUSH1 0x20 ADD PUSH1 0x40 MLOAD SWAP1 DUP2 ADD PUSH1 0x40 MSTORE DUP1 SWAP3 SWAP2 SWAP1 DUP2 DUP2 MSTORE PUSH1 0x20 ADD DUP3 DUP1 SLOAD PUSH2 0x77E SWAP1 PUSH2 0x3B76 JUMP JUMPDEST DUP1 ISZERO PUSH2 0x7CB JUMPI DUP1 PUSH1 0x1F LT PUSH2 0x7A0 JUMPI PUSH2 0x100 DUP1 DUP4 SLOAD DIV MUL DUP4 MSTORE SWAP2 PUSH1 0x20 ADD SWAP2 PUSH2 0x7CB JUMP JUMPDEST DUP3 ADD SWAP2 SWAP1 PUSH1 0x0 MSTORE PUSH1 0x20 PUSH1 0x0 KECCAK256 SWAP1 JUMPDEST DUP2 SLOAD DUP2 MSTORE SWAP1 PUSH1 0x1 ADD SWAP1 PUSH1 0x20 ADD DUP1 DUP4 GT PUSH2 0x7AE JUMPI DUP3 SWAP1 SUB PUSH1 0x1F AND DUP3 ADD SWAP2 JUMPDEST POP POP POP SWAP2 DUP4 MSTORE POP POP PUSH1 0x3 DUP3 ADD SLOAD PUSH1 0x1 PUSH1 0x1 PUSH1 0xA0 SHL SUB AND PUSH1 0x20 DUP3 ADD MSTORE PUSH1 0x4 DUP3 ADD SLOAD PUSH1 0x40 DUP3 ADD MSTORE PUSH1 0x5 DUP3 ADD SLOAD PUSH1 0x60 DUP3 ADD MSTORE PUSH1 0x6 DUP3 ADD SLOAD PUSH1 0x80 DUP3 ADD MSTORE PUSH1 0x7 DUP3 ADD SLOAD PUSH1 0xA0 DUP3 ADD MSTORE PUSH1 0x8 DUP3 ADD SLOAD PUSH1 0xC0 DUP3 ADD MSTORE PUSH1 0x9 DUP3 ADD SLOAD PUSH1 0xE0 DUP3 ADD MSTORE PUSH1 0xA DUP3 ADD SLOAD PUSH2 0x100 DUP1 DUP4 ADD SWAP2 SWAP1 SWAP2 MSTORE PUSH1 0xB SWAP1 SWAP3 ADD SLOAD PUSH1 0xFF DUP1 DUP3 AND ISZERO ISZERO PUSH2 0x120 DUP5 ADD MSTORE SWAP3 SWAP1 DIV SWAP1 SWAP2 AND ISZERO ISZERO PUSH2 0x140 SWAP1 SWAP2 ADD MSTORE DUP5 DUP4 PUSH2 0x85E DUP2 PUSH2 0x3B5D JUMP JUMPDEST SWAP5 POP DUP2 MLOAD DUP2 LT PUSH2 0x870 JUMPI PUSH2 0x870 PUSH2 0x3BB0 JUMP JUMPDEST PUSH1 0x20 MUL PUSH1 0x20 ADD ADD DUP2 SWAP1 MSTORE POP JUMPDEST DUP1 PUSH2 0x886 DUP2 PUSH2 0x3B5D JUMP JUMPDEST SWAP2 POP POP PUSH2 0x63E JUMP JUMPDEST POP POP POP SWAP1 JUMP JUMPDEST PUSH1 0x60 PUSH1 0xF PUSH1 0x0 DUP4 DUP2 MSTORE PUSH1 0x20 ADD SWAP1 DUP2 MSTORE PUSH1 0x20 ADD PUSH1 0x0 KECCAK256 DUP1 SLOAD DUP1 PUSH1 0x20 MUL PUSH1 0x20 ADD PUSH1 0x40 MLOAD SWAP1 DUP2 ADD PUSH1 0x40 MSTORE DUP1 SWAP3 SWAP2 SWAP1 DUP2 DUP2 MSTORE PUSH1 0x20 ADD PUSH1 0x0 SWAP1 JUMPDEST DUP3 DUP3 LT ISZERO PUSH2 0x93F JUMPI PUSH1 0x0 DUP5 DUP2 MSTORE PUSH1 0x20 SWAP1 DUP2 SWAP1 KECCAK256 PUSH1 0x40 DUP1 MLOAD PUSH1 0xC0 DUP2 ADD DUP3 MSTORE PUSH1 0x6 DUP7 MUL SWAP1 SWAP3 ADD DUP1 SLOAD DUP4 MSTORE PUSH1 0x1 DUP1 DUP3 ADD SLOAD DUP5 DUP7 ADD MSTORE PUSH1 0x2 DUP3 ADD SLOAD PUSH1 0x1 PUSH1 0x1 PUSH1 0xA0 SHL SUB AND SWAP3 DUP5 ADD SWAP3 SWAP1 SWAP3 MSTORE PUSH1 0x3 DUP2 ADD SLOAD PUSH1 0x60 DUP5 ADD MSTORE PUSH1 0x4 DUP2 ADD SLOAD PUSH1 0x80 DUP5 ADD MSTORE PUSH1 0x5 ADD SLOAD PUSH1 0xFF AND ISZERO ISZERO PUSH1 0xA0 DUP4 ADD MSTORE SWAP1 DUP4 MSTORE SWAP1 SWAP3 ADD SWAP2 ADD PUSH2 0x8C9 JUMP JUMPDEST POP POP POP POP SWAP1 POP SWAP2 SWAP1 POP JUMP JUMPDEST PUSH1 0x60 PUSH1 0x5 DUP1 SLOAD PUSH2 0x959 SWAP1 PUSH2 0x3B76 JUMP JUMPDEST DUP1 PUSH1 0x1F ADD PUSH1 0x20 DUP1 SWAP2 DIV MUL PUSH1 0x20 ADD PUSH1 0x40 MLOAD SWAP1 DUP2 ADD PUSH1 0x40 MSTORE DUP1 SWAP3 SWAP2 SWAP1 DUP2 DUP2 MSTORE PUSH1 0x20 ADD DUP3 DUP1 SLOAD PUSH2 0x985 SWAP1 PUSH2 0x3B76 JUMP JUMPDEST DUP1 ISZERO PUSH2 0x9D2 JUMPI DUP1 PUSH1 0x1F LT PUSH2 0x9A7 JUMPI PUSH2 0x100 DUP1 DUP4 SLOAD DIV MUL DUP4 MSTORE SWAP2 PUSH1 0x20 ADD SWAP2 PUSH2 0x9D2 JUMP JUMPDEST DUP3 ADD SWAP2 SWAP1 PUSH1 0x0 MSTORE PUSH1 0x20 PUSH1 0x0 KECCAK256 SWAP1 JUMPDEST DUP2 SLOAD DUP2 MSTORE SWAP1 PUSH1 0x1 ADD SWAP1 PUSH1 0x20 ADD DUP1 DUP4 GT PUSH2 0x9B5 JUMPI DUP3 SWAP1 SUB PUSH1 0x1F AND DUP3 ADD SWAP2 JUMPDEST POP POP POP POP POP SWAP1 POP SWAP1 JUMP JUMPDEST PUSH1 0x0 CALLER PUSH2 0x9EA DUP2 DUP6 DUP6 PUSH2 0x2CC8 JUMP JUMPDEST PUSH1 0x1 SWAP2 POP POP JUMPDEST SWAP3 SWAP2 POP POP JUMP JUMPDEST PUSH1 0x0 DUP4 DUP2 MSTORE PUSH1 0xD PUSH1 0x20 MSTORE PUSH1 0x40 SWAP1 KECCAK256 PUSH1 0x5 DUP2 ADD SLOAD PUSH1 0x6 SWAP1 SWAP2 ADD SLOAD GT PUSH2 0xA61 JUMPI PUSH1 0x40 MLOAD PUSH3 0x461BCD PUSH1 0xE5 SHL DUP2 MSTORE PUSH1 0x20 PUSH1 0x4 DUP3 ADD MSTORE PUSH1 0x17 PUSH1 0x24 DUP3 ADD MSTORE PUSH32 0x4E6F7420656E6F75676820706C61617965727320796574000000000000000000 PUSH1 0x44 DUP3 ADD MSTORE PUSH1 0x64 ADD JUMPDEST PUSH1 0x40 MLOAD DUP1 SWAP2 SUB SWAP1 REVERT JUMPDEST PUSH1 0x0 DUP4 DUP2 MSTORE PUSH1 0xF PUSH1 0x20 MSTORE PUSH1 0x40 SWAP1 KECCAK256 DUP1 SLOAD DUP5 SWAP2 SWAP1 DUP5 SWAP1 DUP2 LT PUSH2 0xA84 JUMPI PUSH2 0xA84 PUSH2 0x3BB0 JUMP JUMPDEST SWAP1 PUSH1 0x0 MSTORE PUSH1 0x20 PUSH1 0x0 KECCAK256 SWAP1 PUSH1 0x6 MUL ADD PUSH1 0x1 ADD SLOAD EQ PUSH2 0xAD6 JUMPI PUSH1 0x40 MLOAD PUSH3 0x461BCD PUSH1 0xE5 SHL DUP2 MSTORE PUSH1 0x20 PUSH1 0x4 DUP3 ADD MSTORE PUSH1 0x10 PUSH1 0x24 DUP3 ADD MSTORE PUSH16 0x141B185E595C881B9BDD08199BDD5B99 PUSH1 0x82 SHL PUSH1 0x44 DUP3 ADD MSTORE PUSH1 0x64 ADD PUSH2 0xA58 JUMP JUMPDEST PUSH1 0x0 DUP4 DUP2 MSTORE PUSH1 0xF PUSH1 0x20 MSTORE PUSH1 0x40 SWAP1 KECCAK256 DUP1 SLOAD DUP4 SWAP1 DUP2 LT PUSH2 0xAF6 JUMPI PUSH2 0xAF6 PUSH2 0x3BB0 JUMP JUMPDEST PUSH1 0x0 SWAP2 DUP3 MSTORE PUSH1 0x20 SWAP1 SWAP2 KECCAK256 PUSH1 0x5 PUSH1 0x6 SWAP1 SWAP3 MUL ADD ADD SLOAD PUSH1 0xFF AND ISZERO PUSH2 0xB5A JUMPI PUSH1 0x40 MLOAD PUSH3 0x461BCD PUSH1 0xE5 SHL DUP2 MSTORE PUSH1 0x20 PUSH1 0x4 DUP3 ADD MSTORE PUSH1 0x17 PUSH1 0x24 DUP3 ADD MSTORE PUSH32 0x506C6179657220616C7265616479207265636F72646564000000000000000000 PUSH1 0x44 DUP3 ADD MSTORE PUSH1 0x64 ADD PUSH2 0xA58 JUMP JUMPDEST PUSH1 0x0 DUP4 DUP2 MSTORE PUSH1 0xF PUSH1 0x20 MSTORE PUSH1 0x40 SWAP1 KECCAK256 DUP1 SLOAD CALLER SWAP2 SWAP1 DUP5 SWAP1 DUP2 LT PUSH2 0xB7D JUMPI PUSH2 0xB7D PUSH2 0x3BB0 JUMP JUMPDEST PUSH1 0x0 SWAP2 DUP3 MSTORE PUSH1 0x20 SWAP1 SWAP2 KECCAK256 PUSH1 0x2 PUSH1 0x6 SWAP1 SWAP3 MUL ADD ADD SLOAD PUSH1 0x1 PUSH1 0x1 PUSH1 0xA0 SHL SUB AND EQ PUSH2 0xBB7 JUMPI PUSH1 0x40 MLOAD PUSH3 0x461BCD PUSH1 0xE5 SHL DUP2 MSTORE PUSH1 0x4 ADD PUSH2 0xA58 SWAP1 PUSH2 0x3BC6 JUMP JUMPDEST PUSH1 0x0 DUP4 DUP2 MSTORE PUSH1 0xF PUSH1 0x20 MSTORE PUSH1 0x40 SWAP1 KECCAK256 DUP1 SLOAD DUP3 SWAP2 SWAP1 DUP5 SWAP1 DUP2 LT PUSH2 0xBDA JUMPI PUSH2 0xBDA PUSH2 0x3BB0 JUMP JUMPDEST SWAP1 PUSH1 0x0 MSTORE PUSH1 0x20 PUSH1 0x0 KECCAK256 SWAP1 PUSH1 0x6 MUL ADD PUSH1 0x3 ADD DUP2 SWAP1 SSTORE POP PUSH1 0x1 PUSH1 0xF PUSH1 0x0 DUP6 DUP2 MSTORE PUSH1 0x20 ADD SWAP1 DUP2 MSTORE PUSH1 0x20 ADD PUSH1 0x0 KECCAK256 DUP4 DUP2 SLOAD DUP2 LT PUSH2 0xC15 JUMPI PUSH2 0xC15 PUSH2 0x3BB0 JUMP JUMPDEST SWAP1 PUSH1 0x0 MSTORE PUSH1 0x20 PUSH1 0x0 KECCAK256 SWAP1 PUSH1 0x6 MUL ADD PUSH1 0x5 ADD PUSH1 0x0 PUSH2 0x100 EXP DUP2 SLOAD DUP2 PUSH1 0xFF MUL NOT AND SWAP1 DUP4 ISZERO ISZERO MUL OR SWAP1 SSTORE POP CALLER PUSH1 0xF PUSH1 0x0 DUP6 DUP2 MSTORE PUSH1 0x20 ADD SWAP1 DUP2 MSTORE PUSH1 0x20 ADD PUSH1 0x0 KECCAK256 DUP4 DUP2 SLOAD DUP2 LT PUSH2 0xC62 JUMPI PUSH2 0xC62 PUSH2 0x3BB0 JUMP JUMPDEST SWAP1 PUSH1 0x0 MSTORE PUSH1 0x20 PUSH1 0x0 KECCAK256 SWAP1 PUSH1 0x6 MUL ADD PUSH1 0x2 ADD PUSH1 0x0 PUSH2 0x100 EXP DUP2 SLOAD DUP2 PUSH1 0x1 PUSH1 0x1 PUSH1 0xA0 SHL SUB MUL NOT AND SWAP1 DUP4 PUSH1 0x1 PUSH1 0x1 PUSH1 0xA0 SHL SUB AND MUL OR SWAP1 SSTORE POP POP POP POP JUMP JUMPDEST PUSH1 0x0 CALLVALUE GT PUSH2 0xCEC JUMPI PUSH1 0x40 MLOAD PUSH3 0x461BCD PUSH1 0xE5 SHL DUP2 MSTORE PUSH1 0x20 PUSH1 0x4 DUP3 ADD MSTORE PUSH1 0x1F PUSH1 0x24 DUP3 ADD MSTORE PUSH32 0x5374616B65206D7573742062652067726561746572207468616E207A65726F00 PUSH1 0x44 DUP3 ADD MSTORE PUSH1 0x64 ADD PUSH2 0xA58 JUMP JUMPDEST PUSH1 0x1 DUP5 GT PUSH2 0xD4A JUMPI PUSH1 0x40 MLOAD PUSH3 0x461BCD PUSH1 0xE5 SHL DUP2 MSTORE PUSH1 0x20 PUSH1 0x4 DUP3 ADD MSTORE PUSH1 0x25 PUSH1 0x24 DUP3 ADD MSTORE PUSH32 0x5061727469636970616E7473206D757374206265206772656174657220746861 PUSH1 0x44 DUP3 ADD MSTORE PUSH5 0x6E206F6E65 PUSH1 0xD8 SHL PUSH1 0x64 DUP3 ADD MSTORE PUSH1 0x84 ADD PUSH2 0xA58 JUMP JUMPDEST PUSH1 0x0 DUP7 MLOAD GT PUSH2 0xD93 JUMPI PUSH1 0x40 MLOAD PUSH3 0x461BCD PUSH1 0xE5 SHL DUP2 MSTORE PUSH1 0x20 PUSH1 0x4 DUP3 ADD MSTORE PUSH1 0x15 PUSH1 0x24 DUP3 ADD MSTORE PUSH21 0x5469746C652063616E6E6F7420626520656D707479 PUSH1 0x58 SHL PUSH1 0x44 DUP3 ADD MSTORE PUSH1 0x64 ADD PUSH2 0xA58 JUMP JUMPDEST PUSH1 0x0 DUP6 MLOAD GT PUSH2 0xDE4 JUMPI PUSH1 0x40 MLOAD PUSH3 0x461BCD PUSH1 0xE5 SHL DUP2 MSTORE PUSH1 0x20 PUSH1 0x4 DUP3 ADD MSTORE PUSH1 0x1B PUSH1 0x24 DUP3 ADD MSTORE PUSH32 0x4465736372697074696F6E2063616E6E6F7420626520656D7074790000000000 PUSH1 0x44 DUP3 ADD MSTORE PUSH1 0x64 ADD PUSH2 0xA58 JUMP JUMPDEST PUSH1 0x0 DUP3 GT PUSH2 0xE40 JUMPI PUSH1 0x40 MLOAD PUSH3 0x461BCD PUSH1 0xE5 SHL DUP2 MSTORE PUSH1 0x20 PUSH1 0x4 DUP3 ADD MSTORE PUSH1 0x24 DUP1 DUP3 ADD MSTORE PUSH32 0x53746172742064617465206D7573742062652067726561746572207468616E20 PUSH1 0x44 DUP3 ADD MSTORE PUSH4 0x7A65726F PUSH1 0xE0 SHL PUSH1 0x64 DUP3 ADD MSTORE PUSH1 0x84 ADD PUSH2 0xA58 JUMP JUMPDEST DUP2 DUP2 GT PUSH2 0xEA0 JUMPI PUSH1 0x40 MLOAD PUSH3 0x461BCD PUSH1 0xE5 SHL DUP2 MSTORE PUSH1 0x20 PUSH1 0x4 DUP3 ADD MSTORE PUSH1 0x28 PUSH1 0x24 DUP3 ADD MSTORE PUSH32 0x456E642064617465206D7573742062652067726561746572207468616E207374 PUSH1 0x44 DUP3 ADD MSTORE PUSH8 0x6172742064617465 PUSH1 0xC0 SHL PUSH1 0x64 DUP3 ADD MSTORE PUSH1 0x84 ADD PUSH2 0xA58 JUMP JUMPDEST PUSH1 0x0 DUP4 GT PUSH2 0xEF0 JUMPI PUSH1 0x40 MLOAD PUSH3 0x461BCD PUSH1 0xE5 SHL DUP2 MSTORE PUSH1 0x20 PUSH1 0x4 DUP3 ADD DUP2 SWAP1 MSTORE PUSH1 0x24 DUP3 ADD MSTORE PUSH32 0x4E756D626572204F662077696E6E6572732063616E6E6F74206265207A65726F PUSH1 0x44 DUP3 ADD MSTORE PUSH1 0x64 ADD PUSH2 0xA58 JUMP JUMPDEST PUSH2 0xEFE PUSH1 0x7 DUP1 SLOAD PUSH1 0x1 ADD SWAP1 SSTORE JUMP JUMPDEST PUSH2 0xF06 PUSH2 0x338C JUMP JUMPDEST PUSH1 0x7 SLOAD DUP2 MSTORE PUSH1 0x20 DUP2 ADD DUP8 SWAP1 MSTORE PUSH1 0x40 DUP2 ADD DUP7 SWAP1 MSTORE PUSH1 0x80 DUP2 ADD DUP6 SWAP1 MSTORE PUSH1 0xA0 DUP2 ADD DUP5 SWAP1 MSTORE PUSH2 0x100 DUP2 ADD DUP4 SWAP1 MSTORE PUSH2 0x120 DUP2 ADD DUP3 SWAP1 MSTORE CALLVALUE PUSH1 0xE0 DUP3 ADD MSTORE CALLER PUSH1 0x60 DUP3 ADD MSTORE PUSH2 0xF4B PUSH2 0x2DEC JUMP JUMPDEST PUSH2 0x140 DUP3 ADD MSTORE PUSH2 0xF59 PUSH2 0x3401 JUMP JUMPDEST DUP2 MLOAD PUSH1 0x0 SWAP1 DUP2 MSTORE PUSH1 0xF PUSH1 0x20 DUP2 DUP2 MSTORE PUSH1 0x40 DUP1 DUP5 KECCAK256 SLOAD DUP6 MSTORE DUP6 MLOAD DUP6 DUP4 ADD SWAP1 DUP2 MSTORE CALLER DUP7 DUP4 ADD SWAP1 DUP2 MSTORE DUP8 MLOAD DUP7 MSTORE SWAP4 DUP4 MSTORE DUP2 DUP6 KECCAK256 DUP1 SLOAD PUSH1 0x1 DUP1 DUP3 ADD DUP4 SSTORE SWAP2 DUP8 MSTORE DUP5 DUP8 KECCAK256 DUP9 MLOAD PUSH1 0x6 SWAP1 SWAP3 MUL ADD SWAP1 DUP2 SSTORE SWAP2 MLOAD DUP3 DUP3 ADD SSTORE SWAP4 MLOAD PUSH1 0x2 DUP3 ADD DUP1 SLOAD PUSH1 0x1 PUSH1 0x1 PUSH1 0xA0 SHL SUB NOT AND PUSH1 0x1 PUSH1 0x1 PUSH1 0xA0 SHL SUB SWAP1 SWAP3 AND SWAP2 SWAP1 SWAP2 OR SWAP1 SSTORE PUSH1 0x60 DUP7 ADD MLOAD PUSH1 0x3 DUP3 ADD SSTORE PUSH1 0x80 DUP7 ADD MLOAD PUSH1 0x4 DUP3 ADD SSTORE PUSH1 0xA0 DUP7 ADD MLOAD PUSH1 0x5 SWAP1 SWAP2 ADD DUP1 SLOAD PUSH1 0xFF NOT AND SWAP2 ISZERO ISZERO SWAP2 SWAP1 SWAP2 OR SWAP1 SSTORE DUP6 MLOAD DUP5 MSTORE PUSH1 0xD DUP3 MSTORE SWAP1 SWAP3 KECCAK256 DUP5 MLOAD DUP2 SSTORE SWAP2 DUP5 ADD MLOAD DUP5 SWAP3 SWAP2 DUP3 ADD SWAP1 PUSH2 0x101B SWAP1 DUP3 PUSH2 0x3C41 JUMP JUMPDEST POP PUSH1 0x40 DUP3 ADD MLOAD PUSH1 0x2 DUP3 ADD SWAP1 PUSH2 0x1030 SWAP1 DUP3 PUSH2 0x3C41 JUMP JUMPDEST POP PUSH1 0x60 DUP3 ADD MLOAD PUSH1 0x3 DUP3 ADD DUP1 SLOAD PUSH1 0x1 PUSH1 0x1 PUSH1 0xA0 SHL SUB NOT AND PUSH1 0x1 PUSH1 0x1 PUSH1 0xA0 SHL SUB SWAP1 SWAP3 AND SWAP2 SWAP1 SWAP2 OR SWAP1 SSTORE PUSH1 0x80 DUP3 ADD MLOAD PUSH1 0x4 DUP3 ADD SSTORE PUSH1 0xA0 DUP3 ADD MLOAD PUSH1 0x5 DUP3 ADD SSTORE PUSH1 0xC0 DUP3 ADD MLOAD PUSH1 0x6 DUP3 ADD SSTORE PUSH1 0xE0 DUP3 ADD MLOAD PUSH1 0x7 DUP3 ADD SSTORE PUSH2 0x100 DUP1 DUP4 ADD MLOAD PUSH1 0x8 DUP4 ADD SSTORE PUSH2 0x120 DUP4 ADD MLOAD PUSH1 0x9 DUP4 ADD SSTORE PUSH2 0x140 DUP4 ADD MLOAD PUSH1 0xA DUP4 ADD SSTORE PUSH2 0x160 DUP4 ADD MLOAD PUSH1 0xB SWAP1 SWAP3 ADD DUP1 SLOAD PUSH2 0x180 SWAP1 SWAP5 ADD MLOAD PUSH2 0xFFFF NOT SWAP1 SWAP5 AND SWAP3 ISZERO ISZERO PUSH2 0xFF00 NOT AND SWAP3 SWAP1 SWAP3 OR SWAP3 ISZERO ISZERO MUL SWAP2 SWAP1 SWAP2 OR SWAP1 SSTORE DUP2 MLOAD PUSH1 0x0 SWAP1 DUP2 MSTORE PUSH1 0xC PUSH1 0x20 MSTORE PUSH1 0x40 SWAP1 KECCAK256 DUP1 SLOAD PUSH1 0xFF NOT AND PUSH1 0x1 OR SWAP1 SSTORE DUP2 MLOAD PUSH2 0x10F8 SWAP1 PUSH2 0x2E0B JUMP JUMPDEST PUSH2 0x113E JUMPI PUSH1 0x40 MLOAD PUSH3 0x461BCD PUSH1 0xE5 SHL DUP2 MSTORE PUSH1 0x20 PUSH1 0x4 DUP3 ADD MSTORE PUSH1 0x17 PUSH1 0x24 DUP3 ADD MSTORE PUSH23 0x2330B4B632B2103A379031B932B0BA3290383630BCB2B9 PUSH1 0x49 SHL PUSH1 0x44 DUP3 ADD MSTORE PUSH1 0x64 ADD PUSH2 0xA58 JUMP JUMPDEST POP POP POP POP POP POP POP POP JUMP JUMPDEST PUSH1 0x0 DUP2 DUP2 MSTORE PUSH1 0xC PUSH1 0x20 MSTORE PUSH1 0x40 SWAP1 KECCAK256 SLOAD PUSH1 0xFF AND PUSH2 0x1197 JUMPI PUSH1 0x40 MLOAD PUSH3 0x461BCD PUSH1 0xE5 SHL DUP2 MSTORE PUSH1 0x20 PUSH1 0x4 DUP3 ADD MSTORE PUSH1 0xE PUSH1 0x24 DUP3 ADD MSTORE PUSH14 0x11D85B59481B9BDD08119BDD5B99 PUSH1 0x92 SHL PUSH1 0x44 DUP3 ADD MSTORE PUSH1 0x64 ADD PUSH2 0xA58 JUMP JUMPDEST PUSH1 0x0 DUP2 DUP2 MSTORE PUSH1 0xD PUSH1 0x20 MSTORE PUSH1 0x40 SWAP1 KECCAK256 PUSH1 0x4 DUP2 ADD SLOAD PUSH1 0x6 SWAP1 SWAP2 ADD SLOAD GT ISZERO PUSH2 0x11F0 JUMPI PUSH1 0x40 MLOAD PUSH3 0x461BCD PUSH1 0xE5 SHL DUP2 MSTORE PUSH1 0x20 PUSH1 0x4 DUP3 ADD MSTORE PUSH1 0xF PUSH1 0x24 DUP3 ADD MSTORE PUSH15 0x4F7574206F66204361706163697479 PUSH1 0x88 SHL PUSH1 0x44 DUP3 ADD MSTORE PUSH1 0x64 ADD PUSH2 0xA58 JUMP JUMPDEST PUSH1 0x0 DUP2 DUP2 MSTORE PUSH1 0x10 PUSH1 0x20 SWAP1 DUP2 MSTORE PUSH1 0x40 DUP1 DUP4 KECCAK256 PUSH1 0x1 PUSH1 0x1 PUSH1 0xA0 SHL SUB DUP7 AND DUP5 MSTORE SWAP1 SWAP2 MSTORE SWAP1 KECCAK256 SLOAD PUSH1 0xFF AND ISZERO PUSH2 0x1263 JUMPI PUSH1 0x40 MLOAD PUSH3 0x461BCD PUSH1 0xE5 SHL DUP2 MSTORE PUSH1 0x20 PUSH1 0x4 DUP3 ADD MSTORE PUSH1 0x1E PUSH1 0x24 DUP3 ADD MSTORE PUSH32 0x506C6179657220697320616C726561647920696E20746869732067616D650000 PUSH1 0x44 DUP3 ADD MSTORE PUSH1 0x64 ADD PUSH2 0xA58 JUMP JUMPDEST PUSH2 0x1271 PUSH1 0x9 DUP1 SLOAD PUSH1 0x1 ADD SWAP1 SSTORE JUMP JUMPDEST PUSH2 0x1279 PUSH2 0x3442 JUMP JUMPDEST PUSH1 0x9 SLOAD DUP2 MSTORE PUSH1 0x40 DUP1 DUP3 ADD DUP4 SWAP1 MSTORE PUSH1 0x0 DUP4 DUP2 MSTORE PUSH1 0xD PUSH1 0x20 MSTORE KECCAK256 PUSH1 0x1 ADD DUP1 SLOAD PUSH2 0x129F SWAP1 PUSH2 0x3B76 JUMP JUMPDEST DUP1 PUSH1 0x1F ADD PUSH1 0x20 DUP1 SWAP2 DIV MUL PUSH1 0x20 ADD PUSH1 0x40 MLOAD SWAP1 DUP2 ADD PUSH1 0x40 MSTORE DUP1 SWAP3 SWAP2 SWAP1 DUP2 DUP2 MSTORE PUSH1 0x20 ADD DUP3 DUP1 SLOAD PUSH2 0x12CB SWAP1 PUSH2 0x3B76 JUMP JUMPDEST DUP1 ISZERO PUSH2 0x1318 JUMPI DUP1 PUSH1 0x1F LT PUSH2 0x12ED JUMPI PUSH2 0x100 DUP1 DUP4 SLOAD DIV MUL DUP4 MSTORE SWAP2 PUSH1 0x20 ADD SWAP2 PUSH2 0x1318 JUMP JUMPDEST DUP3 ADD SWAP2 SWAP1 PUSH1 0x0 MSTORE PUSH1 0x20 PUSH1 0x0 KECCAK256 SWAP1 JUMPDEST DUP2 SLOAD DUP2 MSTORE SWAP1 PUSH1 0x1 ADD SWAP1 PUSH1 0x20 ADD DUP1 DUP4 GT PUSH2 0x12FB JUMPI DUP3 SWAP1 SUB PUSH1 0x1F AND DUP3 ADD SWAP2 JUMPDEST POP POP POP POP POP PUSH1 0x20 DUP3 ADD MSTORE CALLER PUSH1 0x80 DUP3 ADD MSTORE PUSH2 0x1330 PUSH2 0x2DEC JUMP JUMPDEST PUSH2 0x100 DUP3 ADD MSTORE PUSH1 0x0 DUP3 DUP2 MSTORE PUSH1 0xD PUSH1 0x20 SWAP1 DUP2 MSTORE PUSH1 0x40 DUP1 DUP4 KECCAK256 PUSH1 0x7 SWAP1 DUP2 ADD SLOAD PUSH1 0xE0 DUP7 ADD MSTORE DUP6 DUP5 MSTORE PUSH1 0x11 DUP4 MSTORE DUP2 DUP5 KECCAK256 PUSH1 0x1 PUSH1 0x1 PUSH1 0xA0 SHL SUB DUP9 AND DUP6 MSTORE DUP4 MSTORE DUP2 DUP5 KECCAK256 DUP1 SLOAD PUSH1 0xFF NOT AND PUSH1 0x1 SWAP1 DUP2 OR SWAP1 SWAP2 SSTORE DUP7 DUP6 MSTORE PUSH1 0x12 DUP5 MSTORE SWAP2 DUP5 KECCAK256 DUP1 SLOAD DUP1 DUP5 ADD DUP3 SSTORE SWAP1 DUP6 MSTORE SWAP4 DUP4 SWAP1 KECCAK256 DUP6 MLOAD SWAP5 SWAP1 SWAP2 MUL ADD SWAP3 DUP4 SSTORE SWAP1 DUP4 ADD MLOAD DUP4 SWAP3 SWAP2 DUP3 ADD SWAP1 PUSH2 0x13B1 SWAP1 DUP3 PUSH2 0x3C41 JUMP JUMPDEST POP PUSH1 0x40 DUP3 ADD MLOAD PUSH1 0x2 DUP3 ADD SSTORE PUSH1 0x60 DUP3 ADD MLOAD PUSH1 0x3 DUP3 ADD DUP1 SLOAD PUSH1 0x1 PUSH1 0x1 PUSH1 0xA0 SHL SUB NOT AND PUSH1 0x1 PUSH1 0x1 PUSH1 0xA0 SHL SUB SWAP3 DUP4 AND OR SWAP1 SSTORE PUSH1 0x80 DUP4 ADD MLOAD PUSH1 0x4 DUP4 ADD DUP1 SLOAD PUSH1 0xA0 DUP7 ADD MLOAD PUSH1 0xC0 DUP8 ADD MLOAD SWAP4 SWAP1 SWAP5 AND PUSH1 0x1 PUSH1 0x1 PUSH1 0xA8 SHL SUB NOT SWAP1 SWAP2 AND OR PUSH1 0x1 PUSH1 0xA0 SHL SWAP4 ISZERO ISZERO SWAP4 SWAP1 SWAP4 MUL SWAP3 SWAP1 SWAP3 OR PUSH1 0xFF PUSH1 0xA8 SHL NOT AND PUSH1 0x1 PUSH1 0xA8 SHL SWAP2 ISZERO ISZERO SWAP2 SWAP1 SWAP2 MUL OR SWAP1 SSTORE PUSH1 0xE0 DUP3 ADD MLOAD PUSH1 0x5 DUP3 ADD SSTORE PUSH2 0x100 SWAP1 SWAP2 ADD MLOAD PUSH1 0x6 SWAP1 SWAP2 ADD SSTORE POP POP POP JUMP JUMPDEST PUSH1 0x0 CALLER PUSH2 0x1455 DUP6 DUP3 DUP6 PUSH2 0x2F0D JUMP JUMPDEST PUSH2 0x1460 DUP6 DUP6 DUP6 PUSH2 0x2F87 JUMP JUMPDEST POP PUSH1 0x1 SWAP5 SWAP4 POP POP POP POP JUMP JUMPDEST PUSH1 0x0 DUP2 DUP2 MSTORE PUSH1 0xC PUSH1 0x20 MSTORE PUSH1 0x40 SWAP1 KECCAK256 SLOAD PUSH1 0xFF AND PUSH2 0x1499 JUMPI PUSH1 0x40 MLOAD PUSH3 0x461BCD PUSH1 0xE5 SHL DUP2 MSTORE PUSH1 0x4 ADD PUSH2 0xA58 SWAP1 PUSH2 0x3D01 JUMP JUMPDEST PUSH1 0x0 DUP2 DUP2 MSTORE PUSH1 0xD PUSH1 0x20 MSTORE PUSH1 0x40 SWAP1 KECCAK256 PUSH1 0x3 ADD SLOAD PUSH1 0x1 PUSH1 0x1 PUSH1 0xA0 SHL SUB AND CALLER EQ PUSH2 0x14D2 JUMPI PUSH1 0x40 MLOAD PUSH3 0x461BCD PUSH1 0xE5 SHL DUP2 MSTORE PUSH1 0x4 ADD PUSH2 0xA58 SWAP1 PUSH2 0x3BC6 JUMP JUMPDEST PUSH1 0x0 DUP2 DUP2 MSTORE PUSH1 0xD PUSH1 0x20 MSTORE PUSH1 0x40 SWAP1 KECCAK256 PUSH1 0x6 ADD SLOAD PUSH1 0x1 EQ PUSH2 0x1533 JUMPI PUSH1 0x40 MLOAD PUSH3 0x461BCD PUSH1 0xE5 SHL DUP2 MSTORE PUSH1 0x20 PUSH1 0x4 DUP3 ADD DUP2 SWAP1 MSTORE PUSH1 0x24 DUP3 ADD MSTORE PUSH32 0x5061727469636970616E747320616C726561647920696E207468652067616D65 PUSH1 0x44 DUP3 ADD MSTORE PUSH1 0x64 ADD PUSH2 0xA58 JUMP JUMPDEST PUSH1 0x0 DUP2 DUP2 MSTORE PUSH1 0xE PUSH1 0x20 MSTORE PUSH1 0x40 SWAP1 KECCAK256 DUP1 SLOAD DUP1 PUSH2 0x1550 JUMPI PUSH2 0x1550 PUSH2 0x3D29 JUMP JUMPDEST PUSH1 0x0 DUP3 DUP2 MSTORE PUSH1 0x20 DUP1 DUP3 KECCAK256 PUSH1 0x3 PUSH1 0x0 NOT SWAP1 SWAP5 ADD SWAP4 DUP5 MUL ADD DUP3 DUP2 SSTORE PUSH1 0x1 DUP2 ADD DUP4 SWAP1 SSTORE PUSH1 0x2 ADD DUP1 SLOAD PUSH1 0x1 PUSH1 0x1 PUSH1 0xA0 SHL SUB NOT AND SWAP1 SSTORE SWAP2 SWAP1 SWAP3 SSTORE DUP3 DUP3 MSTORE PUSH1 0x10 DUP2 MSTORE PUSH1 0x40 DUP1 DUP4 KECCAK256 CALLER DUP1 DUP6 MSTORE SWAP1 DUP4 MSTORE DUP2 DUP5 KECCAK256 DUP1 SLOAD PUSH1 0xFF NOT AND SWAP1 SSTORE DUP5 DUP5 MSTORE PUSH1 0xD SWAP1 SWAP3 MSTORE SWAP1 SWAP2 KECCAK256 PUSH1 0x7 ADD SLOAD PUSH2 0x15BC SWAP2 SWAP1 PUSH2 0x3132 JUMP JUMPDEST PUSH1 0x0 DUP2 DUP2 MSTORE PUSH1 0xD PUSH1 0x20 MSTORE PUSH1 0x40 DUP2 KECCAK256 PUSH1 0x6 ADD DUP1 SLOAD SWAP2 PUSH2 0x15D9 DUP4 PUSH2 0x3D3F JUMP JUMPDEST SWAP1 SWAP2 SSTORE POP POP PUSH1 0x0 SWAP1 DUP2 MSTORE PUSH1 0xD PUSH1 0x20 MSTORE PUSH1 0x40 SWAP1 KECCAK256 PUSH1 0xB ADD DUP1 SLOAD PUSH1 0xFF NOT AND PUSH1 0x1 OR SWAP1 SSTORE JUMP JUMPDEST DUP1 MLOAD PUSH1 0x60 SWAP1 PUSH1 0x0 JUMPDEST PUSH2 0x160F PUSH1 0x1 DUP4 PUSH2 0x3D56 JUMP JUMPDEST DUP2 LT ISZERO PUSH2 0x1869 JUMPI PUSH1 0x0 JUMPDEST PUSH1 0x1 PUSH2 0x1625 DUP4 DUP6 PUSH2 0x3D56 JUMP JUMPDEST PUSH2 0x162F SWAP2 SWAP1 PUSH2 0x3D56 JUMP JUMPDEST DUP2 LT ISZERO PUSH2 0x1856 JUMPI DUP5 DUP2 DUP2 MLOAD DUP2 LT PUSH2 0x1648 JUMPI PUSH2 0x1648 PUSH2 0x3BB0 JUMP JUMPDEST PUSH1 0x20 MUL PUSH1 0x20 ADD ADD MLOAD PUSH1 0xA0 ADD MLOAD DUP1 ISZERO PUSH2 0x1684 JUMPI POP DUP5 PUSH2 0x1667 DUP3 PUSH1 0x1 PUSH2 0x3D69 JUMP JUMPDEST DUP2 MLOAD DUP2 LT PUSH2 0x1677 JUMPI PUSH2 0x1677 PUSH2 0x3BB0 JUMP JUMPDEST PUSH1 0x20 MUL PUSH1 0x20 ADD ADD MLOAD PUSH1 0xA0 ADD MLOAD JUMPDEST ISZERO PUSH2 0x1765 JUMPI DUP5 PUSH2 0x1695 DUP3 PUSH1 0x1 PUSH2 0x3D69 JUMP JUMPDEST DUP2 MLOAD DUP2 LT PUSH2 0x16A5 JUMPI PUSH2 0x16A5 PUSH2 0x3BB0 JUMP JUMPDEST PUSH1 0x20 MUL PUSH1 0x20 ADD ADD MLOAD PUSH1 0x60 ADD MLOAD DUP6 DUP3 DUP2 MLOAD DUP2 LT PUSH2 0x16C3 JUMPI PUSH2 0x16C3 PUSH2 0x3BB0 JUMP JUMPDEST PUSH1 0x20 MUL PUSH1 0x20 ADD ADD MLOAD PUSH1 0x60 ADD MLOAD GT ISZERO PUSH2 0x1760 JUMPI PUSH1 0x0 DUP6 DUP3 DUP2 MLOAD DUP2 LT PUSH2 0x16E9 JUMPI PUSH2 0x16E9 PUSH2 0x3BB0 JUMP JUMPDEST PUSH1 0x20 MUL PUSH1 0x20 ADD ADD MLOAD SWAP1 POP DUP6 DUP3 PUSH1 0x1 PUSH2 0x1701 SWAP2 SWAP1 PUSH2 0x3D69 JUMP JUMPDEST DUP2 MLOAD DUP2 LT PUSH2 0x1711 JUMPI PUSH2 0x1711 PUSH2 0x3BB0 JUMP JUMPDEST PUSH1 0x20 MUL PUSH1 0x20 ADD ADD MLOAD DUP7 DUP4 DUP2 MLOAD DUP2 LT PUSH2 0x172B JUMPI PUSH2 0x172B PUSH2 0x3BB0 JUMP JUMPDEST PUSH1 0x20 SWAP1 DUP2 MUL SWAP2 SWAP1 SWAP2 ADD ADD MSTORE DUP1 DUP7 PUSH2 0x1743 DUP5 PUSH1 0x1 PUSH2 0x3D69 JUMP JUMPDEST DUP2 MLOAD DUP2 LT PUSH2 0x1753 JUMPI PUSH2 0x1753 PUSH2 0x3BB0 JUMP JUMPDEST PUSH1 0x20 MUL PUSH1 0x20 ADD ADD DUP2 SWAP1 MSTORE POP POP JUMPDEST PUSH2 0x1844 JUMP JUMPDEST DUP5 DUP2 DUP2 MLOAD DUP2 LT PUSH2 0x1777 JUMPI PUSH2 0x1777 PUSH2 0x3BB0 JUMP JUMPDEST PUSH1 0x20 MUL PUSH1 0x20 ADD ADD MLOAD PUSH1 0xA0 ADD MLOAD ISZERO DUP1 ISZERO PUSH2 0x17B4 JUMPI POP DUP5 PUSH2 0x1797 DUP3 PUSH1 0x1 PUSH2 0x3D69 JUMP JUMPDEST DUP2 MLOAD DUP2 LT PUSH2 0x17A7 JUMPI PUSH2 0x17A7 PUSH2 0x3BB0 JUMP JUMPDEST PUSH1 0x20 MUL PUSH1 0x20 ADD ADD MLOAD PUSH1 0xA0 ADD MLOAD JUMPDEST ISZERO PUSH2 0x1844 JUMPI PUSH1 0x0 DUP6 DUP3 DUP2 MLOAD DUP2 LT PUSH2 0x17CD JUMPI PUSH2 0x17CD PUSH2 0x3BB0 JUMP JUMPDEST PUSH1 0x20 MUL PUSH1 0x20 ADD ADD MLOAD SWAP1 POP DUP6 DUP3 PUSH1 0x1 PUSH2 0x17E5 SWAP2 SWAP1 PUSH2 0x3D69 JUMP JUMPDEST DUP2 MLOAD DUP2 LT PUSH2 0x17F5 JUMPI PUSH2 0x17F5 PUSH2 0x3BB0 JUMP JUMPDEST PUSH1 0x20 MUL PUSH1 0x20 ADD ADD MLOAD DUP7 DUP4 DUP2 MLOAD DUP2 LT PUSH2 0x180F JUMPI PUSH2 0x180F PUSH2 0x3BB0 JUMP JUMPDEST PUSH1 0x20 SWAP1 DUP2 MUL SWAP2 SWAP1 SWAP2 ADD ADD MSTORE DUP1 DUP7 PUSH2 0x1827 DUP5 PUSH1 0x1 PUSH2 0x3D69 JUMP JUMPDEST DUP2 MLOAD DUP2 LT PUSH2 0x1837 JUMPI PUSH2 0x1837 PUSH2 0x3BB0 JUMP JUMPDEST PUSH1 0x20 MUL PUSH1 0x20 ADD ADD DUP2 SWAP1 MSTORE POP POP JUMPDEST DUP1 PUSH2 0x184E DUP2 PUSH2 0x3B5D JUMP JUMPDEST SWAP2 POP POP PUSH2 0x1619 JUMP JUMPDEST POP DUP1 PUSH2 0x1861 DUP2 PUSH2 0x3B5D JUMP JUMPDEST SWAP2 POP POP PUSH2 0x1604 JUMP JUMPDEST POP SWAP2 SWAP3 SWAP2 POP POP JUMP JUMPDEST PUSH1 0x0 CALLER PUSH2 0x9EA DUP2 DUP6 DUP6 PUSH2 0x1884 DUP4 DUP4 PUSH2 0x25FC JUMP JUMPDEST PUSH2 0x188E SWAP2 SWAP1 PUSH2 0x3D69 JUMP JUMPDEST PUSH2 0x2CC8 JUMP JUMPDEST PUSH1 0x0 DUP3 DUP2 MSTORE PUSH1 0xC PUSH1 0x20 MSTORE PUSH1 0x40 SWAP1 KECCAK256 SLOAD PUSH1 0xFF AND PUSH2 0x18C1 JUMPI PUSH1 0x40 MLOAD PUSH3 0x461BCD PUSH1 0xE5 SHL DUP2 MSTORE PUSH1 0x4 ADD PUSH2 0xA58 SWAP1 PUSH2 0x3D01 JUMP JUMPDEST PUSH1 0x0 DUP3 DUP2 MSTORE PUSH1 0x12 PUSH1 0x20 MSTORE PUSH1 0x40 SWAP1 KECCAK256 DUP1 SLOAD CALLER SWAP2 SWAP1 DUP4 SWAP1 DUP2 LT PUSH2 0x18E4 JUMPI PUSH2 0x18E4 PUSH2 0x3BB0 JUMP JUMPDEST PUSH1 0x0 SWAP2 DUP3 MSTORE PUSH1 0x20 SWAP1 SWAP2 KECCAK256 PUSH1 0x3 PUSH1 0x7 SWAP1 SWAP3 MUL ADD ADD SLOAD PUSH1 0x1 PUSH1 0x1 PUSH1 0xA0 SHL SUB AND EQ PUSH2 0x191E JUMPI PUSH1 0x40 MLOAD PUSH3 0x461BCD PUSH1 0xE5 SHL DUP2 MSTORE PUSH1 0x4 ADD PUSH2 0xA58 SWAP1 PUSH2 0x3BC6 JUMP JUMPDEST PUSH1 0x0 DUP3 DUP2 MSTORE PUSH1 0x12 PUSH1 0x20 MSTORE PUSH1 0x40 SWAP1 KECCAK256 DUP1 SLOAD PUSH1 0x1 SWAP2 SWAP1 DUP4 SWAP1 DUP2 LT PUSH2 0x1942 JUMPI PUSH2 0x1942 PUSH2 0x3BB0 JUMP JUMPDEST SWAP1 PUSH1 0x0 MSTORE PUSH1 0x20 PUSH1 0x0 KECCAK256 SWAP1 PUSH1 0x7 MUL ADD PUSH1 0x4 ADD PUSH1 0x14 PUSH2 0x100 EXP DUP2 SLOAD DUP2 PUSH1 0xFF MUL NOT AND SWAP1 DUP4 ISZERO ISZERO MUL OR SWAP1 SSTORE POP POP POP JUMP JUMPDEST PUSH2 0x1976 PUSH2 0x3197 JUMP JUMPDEST PUSH2 0x1980 PUSH1 0x0 PUSH2 0x31F1 JUMP JUMPDEST JUMP JUMPDEST PUSH1 0x0 DUP3 DUP2 MSTORE PUSH1 0xC PUSH1 0x20 MSTORE PUSH1 0x40 SWAP1 KECCAK256 SLOAD PUSH1 0xFF AND PUSH2 0x19B0 JUMPI PUSH1 0x40 MLOAD PUSH3 0x461BCD PUSH1 0xE5 SHL DUP2 MSTORE PUSH1 0x4 ADD PUSH2 0xA58 SWAP1 PUSH2 0x3D01 JUMP JUMPDEST PUSH1 0x0 DUP3 DUP2 MSTORE PUSH1 0xD PUSH1 0x20 MSTORE PUSH1 0x40 SWAP1 KECCAK256 PUSH1 0x7 ADD SLOAD CALLVALUE LT ISZERO PUSH2 0x1A06 JUMPI PUSH1 0x40 MLOAD PUSH3 0x461BCD PUSH1 0xE5 SHL DUP2 MSTORE PUSH1 0x20 PUSH1 0x4 DUP3 ADD MSTORE PUSH1 0x12 PUSH1 0x24 DUP3 ADD MSTORE PUSH18 0x496E73756666696369656E742066756E6473 PUSH1 0x70 SHL PUSH1 0x44 DUP3 ADD MSTORE PUSH1 0x64 ADD PUSH2 0xA58 JUMP JUMPDEST PUSH1 0x0 DUP3 DUP2 MSTORE PUSH1 0x12 PUSH1 0x20 MSTORE PUSH1 0x40 SWAP1 KECCAK256 DUP1 SLOAD CALLER SWAP2 SWAP1 DUP4 SWAP1 DUP2 LT PUSH2 0x1A29 JUMPI PUSH2 0x1A29 PUSH2 0x3BB0 JUMP JUMPDEST PUSH1 0x0 SWAP2 DUP3 MSTORE PUSH1 0x20 SWAP1 SWAP2 KECCAK256 PUSH1 0x3 PUSH1 0x7 SWAP1 SWAP3 MUL ADD ADD SLOAD PUSH1 0x1 PUSH1 0x1 PUSH1 0xA0 SHL SUB AND EQ PUSH2 0x1A63 JUMPI PUSH1 0x40 MLOAD PUSH3 0x461BCD PUSH1 0xE5 SHL DUP2 MSTORE PUSH1 0x4 ADD PUSH2 0xA58 SWAP1 PUSH2 0x3BC6 JUMP JUMPDEST PUSH2 0x1A6C DUP3 PUSH2 0x2E0B JUMP JUMPDEST PUSH2 0x1AB2 JUMPI PUSH1 0x40 MLOAD PUSH3 0x461BCD PUSH1 0xE5 SHL DUP2 MSTORE PUSH1 0x20 PUSH1 0x4 DUP3 ADD MSTORE PUSH1 0x17 PUSH1 0x24 DUP3 ADD MSTORE PUSH23 0x2330B4B632B2103A379031B932B0BA3290383630BCB2B9 PUSH1 0x49 SHL PUSH1 0x44 DUP3 ADD MSTORE PUSH1 0x64 ADD PUSH2 0xA58 JUMP JUMPDEST PUSH1 0x0 DUP3 DUP2 MSTORE PUSH1 0x12 PUSH1 0x20 MSTORE PUSH1 0x40 SWAP1 KECCAK256 DUP1 SLOAD PUSH1 0x1 SWAP2 SWAP1 DUP4 SWAP1 DUP2 LT PUSH2 0x1AD6 JUMPI PUSH2 0x1AD6 PUSH2 0x3BB0 JUMP JUMPDEST SWAP1 PUSH1 0x0 MSTORE PUSH1 0x20 PUSH1 0x0 KECCAK256 SWAP1 PUSH1 0x7 MUL ADD PUSH1 0x4 ADD PUSH1 0x14 PUSH2 0x100 EXP DUP2 SLOAD DUP2 PUSH1 0xFF MUL NOT AND SWAP1 DUP4 ISZERO ISZERO MUL OR SWAP1 SSTORE POP PUSH1 0x1 PUSH1 0x12 PUSH1 0x0 DUP5 DUP2 MSTORE PUSH1 0x20 ADD SWAP1 DUP2 MSTORE PUSH1 0x20 ADD PUSH1 0x0 KECCAK256 DUP3 DUP2 SLOAD DUP2 LT PUSH2 0x1B24 JUMPI PUSH2 0x1B24 PUSH2 0x3BB0 JUMP JUMPDEST SWAP1 PUSH1 0x0 MSTORE PUSH1 0x20 PUSH1 0x0 KECCAK256 SWAP1 PUSH1 0x7 MUL ADD PUSH1 0x4 ADD PUSH1 0x15 PUSH2 0x100 EXP DUP2 SLOAD DUP2 PUSH1 0xFF MUL NOT AND SWAP1 DUP4 ISZERO ISZERO MUL OR SWAP1 SSTORE POP PUSH2 0x1B54 PUSH2 0x3401 JUMP JUMPDEST PUSH1 0x0 DUP4 DUP2 MSTORE PUSH1 0xF PUSH1 0x20 DUP2 DUP2 MSTORE PUSH1 0x40 DUP1 DUP5 KECCAK256 DUP1 SLOAD DUP1 DUP8 MSTORE DUP7 DUP5 ADD SWAP9 DUP10 MSTORE CALLER SWAP3 DUP8 ADD SWAP3 DUP4 MSTORE SWAP4 DUP4 MSTORE PUSH1 0x1 DUP1 DUP6 ADD DUP3 SSTORE SWAP1 DUP6 MSTORE SWAP2 SWAP1 SWAP4 KECCAK256 DUP5 MLOAD PUSH1 0x6 SWAP1 SWAP4 MUL ADD SWAP2 DUP3 SSTORE SWAP5 MLOAD SWAP5 DUP2 ADD SWAP5 SWAP1 SWAP5 SSTORE MLOAD PUSH1 0x2 DUP5 ADD DUP1 SLOAD PUSH1 0x1 PUSH1 0x1 PUSH1 0xA0 SHL SUB NOT AND PUSH1 0x1 PUSH1 0x1 PUSH1 0xA0 SHL SUB SWAP1 SWAP3 AND SWAP2 SWAP1 SWAP2 OR SWAP1 SSTORE PUSH1 0x60 DUP2 ADD MLOAD PUSH1 0x3 DUP5 ADD SSTORE PUSH1 0x80 DUP2 ADD MLOAD PUSH1 0x4 DUP5 ADD SSTORE PUSH1 0xA0 ADD MLOAD PUSH1 0x5 SWAP1 SWAP3 ADD DUP1 SLOAD PUSH1 0xFF NOT AND SWAP3 ISZERO ISZERO SWAP3 SWAP1 SWAP3 OR SWAP1 SWAP2 SSTORE POP JUMP JUMPDEST PUSH2 0x1BF6 PUSH2 0x3197 JUMP JUMPDEST PUSH1 0x0 DUP2 GT DUP1 ISZERO PUSH2 0x1C07 JUMPI POP PUSH1 0x64 DUP2 GT ISZERO JUMPDEST PUSH2 0x1C67 JUMPI PUSH1 0x40 MLOAD PUSH3 0x461BCD PUSH1 0xE5 SHL DUP2 MSTORE PUSH1 0x20 PUSH1 0x4 DUP3 ADD MSTORE PUSH1 0x2B PUSH1 0x24 DUP3 ADD MSTORE PUSH32 0x4665652070657263656E74206D75737420626520696E207468652072616E6765 PUSH1 0x44 DUP3 ADD MSTORE PUSH11 0x206F662028312D31303029 PUSH1 0xA8 SHL PUSH1 0x64 DUP3 ADD MSTORE PUSH1 0x84 ADD PUSH2 0xA58 JUMP JUMPDEST PUSH1 0xB SSTORE JUMP JUMPDEST PUSH1 0x60 PUSH1 0x0 PUSH1 0x1 JUMPDEST PUSH1 0x7 SLOAD DUP2 GT PUSH2 0x1CBE JUMPI PUSH1 0x0 DUP2 DUP2 MSTORE PUSH1 0x11 PUSH1 0x20 SWAP1 DUP2 MSTORE PUSH1 0x40 DUP1 DUP4 KECCAK256 CALLER DUP5 MSTORE SWAP1 SWAP2 MSTORE SWAP1 KECCAK256 SLOAD PUSH1 0xFF AND ISZERO PUSH2 0x1CAC JUMPI DUP2 PUSH2 0x1CA8 DUP2 PUSH2 0x3B5D JUMP JUMPDEST SWAP3 POP POP JUMPDEST DUP1 PUSH2 0x1CB6 DUP2 PUSH2 0x3B5D JUMP JUMPDEST SWAP2 POP POP PUSH2 0x1C73 JUMP JUMPDEST POP DUP1 PUSH8 0xFFFFFFFFFFFFFFFF DUP2 GT ISZERO PUSH2 0x1CD8 JUMPI PUSH2 0x1CD8 PUSH2 0x373D JUMP JUMPDEST PUSH1 0x40 MLOAD SWAP1 DUP1 DUP3 MSTORE DUP1 PUSH1 0x20 MUL PUSH1 0x20 ADD DUP3 ADD PUSH1 0x40 MSTORE DUP1 ISZERO PUSH2 0x1D11 JUMPI DUP2 PUSH1 0x20 ADD JUMPDEST PUSH2 0x1CFE PUSH2 0x3442 JUMP JUMPDEST DUP2 MSTORE PUSH1 0x20 ADD SWAP1 PUSH1 0x1 SWAP1 SUB SWAP1 DUP2 PUSH2 0x1CF6 JUMPI SWAP1 POP JUMPDEST POP SWAP2 POP PUSH1 0x0 PUSH1 0x1 JUMPDEST PUSH1 0x7 SLOAD DUP2 GT PUSH2 0x88E JUMPI PUSH1 0x0 DUP2 DUP2 MSTORE PUSH1 0x11 PUSH1 0x20 SWAP1 DUP2 MSTORE PUSH1 0x40 DUP1 DUP4 KECCAK256 CALLER DUP5 MSTORE SWAP1 SWAP2 MSTORE SWAP1 KECCAK256 SLOAD PUSH1 0xFF AND ISZERO PUSH2 0x1EF5 JUMPI PUSH1 0x0 JUMPDEST PUSH1 0x0 DUP3 DUP2 MSTORE PUSH1 0x12 PUSH1 0x20 MSTORE PUSH1 0x40 SWAP1 KECCAK256 SLOAD DUP2 LT ISZERO PUSH2 0x1EE6 JUMPI PUSH1 0x0 DUP3 DUP2 MSTORE PUSH1 0x12 PUSH1 0x20 MSTORE PUSH1 0x40 SWAP1 KECCAK256 DUP1 SLOAD DUP3 SWAP1 DUP2 LT PUSH2 0x1D7D JUMPI PUSH2 0x1D7D PUSH2 0x3BB0 JUMP JUMPDEST SWAP1 PUSH1 0x0 MSTORE PUSH1 0x20 PUSH1 0x0 KECCAK256 SWAP1 PUSH1 0x7 MUL ADD PUSH1 0x40 MLOAD DUP1 PUSH2 0x120 ADD PUSH1 0x40 MSTORE SWAP1 DUP2 PUSH1 0x0 DUP3 ADD SLOAD DUP2 MSTORE PUSH1 0x20 ADD PUSH1 0x1 DUP3 ADD DUP1 SLOAD PUSH2 0x1DB1 SWAP1 PUSH2 0x3B76 JUMP JUMPDEST DUP1 PUSH1 0x1F ADD PUSH1 0x20 DUP1 SWAP2 DIV MUL PUSH1 0x20 ADD PUSH1 0x40 MLOAD SWAP1 DUP2 ADD PUSH1 0x40 MSTORE DUP1 SWAP3 SWAP2 SWAP1 DUP2 DUP2 MSTORE PUSH1 0x20 ADD DUP3 DUP1 SLOAD PUSH2 0x1DDD SWAP1 PUSH2 0x3B76 JUMP JUMPDEST DUP1 ISZERO PUSH2 0x1E2A JUMPI DUP1 PUSH1 0x1F LT PUSH2 0x1DFF JUMPI PUSH2 0x100 DUP1 DUP4 SLOAD DIV MUL DUP4 MSTORE SWAP2 PUSH1 0x20 ADD SWAP2 PUSH2 0x1E2A JUMP JUMPDEST DUP3 ADD SWAP2 SWAP1 PUSH1 0x0 MSTORE PUSH1 0x20 PUSH1 0x0 KECCAK256 SWAP1 JUMPDEST DUP2 SLOAD DUP2 MSTORE SWAP1 PUSH1 0x1 ADD SWAP1 PUSH1 0x20 ADD DUP1 DUP4 GT PUSH2 0x1E0D JUMPI DUP3 SWAP1 SUB PUSH1 0x1F AND DUP3 ADD SWAP2 JUMPDEST POP POP POP SWAP2 DUP4 MSTORE POP POP PUSH1 0x2 DUP3 ADD SLOAD PUSH1 0x20 DUP3 ADD MSTORE PUSH1 0x3 DUP3 ADD SLOAD PUSH1 0x1 PUSH1 0x1 PUSH1 0xA0 SHL SUB SWAP1 DUP2 AND PUSH1 0x40 DUP4 ADD MSTORE PUSH1 0x4 DUP4 ADD SLOAD SWAP1 DUP2 AND PUSH1 0x60 DUP4 ADD MSTORE PUSH1 0xFF PUSH1 0x1 PUSH1 0xA0 SHL DUP3 DIV DUP2 AND ISZERO ISZERO PUSH1 0x80 DUP5 ADD MSTORE PUSH1 0x1 PUSH1 0xA8 SHL SWAP1 SWAP2 DIV AND ISZERO ISZERO PUSH1 0xA0 DUP3 ADD MSTORE PUSH1 0x5 DUP3 ADD SLOAD PUSH1 0xC0 DUP3 ADD MSTORE PUSH1 0x6 SWAP1 SWAP2 ADD SLOAD PUSH1 0xE0 SWAP1 SWAP2 ADD MSTORE DUP6 MLOAD DUP7 SWAP1 DUP6 SWAP1 DUP2 LT PUSH2 0x1EAA JUMPI PUSH2 0x1EAA PUSH2 0x3BB0 JUMP JUMPDEST PUSH1 0x20 MUL PUSH1 0x20 ADD ADD DUP2 SWAP1 MSTORE POP DUP1 DUP6 DUP5 DUP2 MLOAD DUP2 LT PUSH2 0x1EC8 JUMPI PUSH2 0x1EC8 PUSH2 0x3BB0 JUMP JUMPDEST PUSH1 0x20 SWAP1 DUP2 MUL SWAP2 SWAP1 SWAP2 ADD ADD MLOAD MSTORE DUP1 PUSH2 0x1EDE DUP2 PUSH2 0x3B5D JUMP JUMPDEST SWAP2 POP POP PUSH2 0x1D47 JUMP JUMPDEST POP DUP2 PUSH2 0x1EF1 DUP2 PUSH2 0x3B5D JUMP JUMPDEST SWAP3 POP POP JUMPDEST DUP1 PUSH2 0x1EFF DUP2 PUSH2 0x3B5D JUMP JUMPDEST SWAP2 POP POP PUSH2 0x1D19 JUMP JUMPDEST PUSH1 0x60 PUSH1 0x6 DUP1 SLOAD PUSH2 0x959 SWAP1 PUSH2 0x3B76 JUMP JUMPDEST PUSH1 0x60 PUSH1 0x12 PUSH1 0x0 DUP4 DUP2 MSTORE PUSH1 0x20 ADD SWAP1 DUP2 MSTORE PUSH1 0x20 ADD PUSH1 0x0 KECCAK256 DUP1 SLOAD DUP1 PUSH1 0x20 MUL PUSH1 0x20 ADD PUSH1 0x40 MLOAD SWAP1 DUP2 ADD PUSH1 0x40 MSTORE DUP1 SWAP3 SWAP2 SWAP1 DUP2 DUP2 MSTORE PUSH1 0x20 ADD PUSH1 0x0 SWAP1 JUMPDEST DUP3 DUP3 LT ISZERO PUSH2 0x93F JUMPI DUP4 DUP3 SWAP1 PUSH1 0x0 MSTORE PUSH1 0x20 PUSH1 0x0 KECCAK256 SWAP1 PUSH1 0x7 MUL ADD PUSH1 0x40 MLOAD DUP1 PUSH2 0x120 ADD PUSH1 0x40 MSTORE SWAP1 DUP2 PUSH1 0x0 DUP3 ADD SLOAD DUP2 MSTORE PUSH1 0x20 ADD PUSH1 0x1 DUP3 ADD DUP1 SLOAD PUSH2 0x1F89 SWAP1 PUSH2 0x3B76 JUMP JUMPDEST DUP1 PUSH1 0x1F ADD PUSH1 0x20 DUP1 SWAP2 DIV MUL PUSH1 0x20 ADD PUSH1 0x40 MLOAD SWAP1 DUP2 ADD PUSH1 0x40 MSTORE DUP1 SWAP3 SWAP2 SWAP1 DUP2 DUP2 MSTORE PUSH1 0x20 ADD DUP3 DUP1 SLOAD PUSH2 0x1FB5 SWAP1 PUSH2 0x3B76 JUMP JUMPDEST DUP1 ISZERO PUSH2 0x2002 JUMPI DUP1 PUSH1 0x1F LT PUSH2 0x1FD7 JUMPI PUSH2 0x100 DUP1 DUP4 SLOAD DIV MUL DUP4 MSTORE SWAP2 PUSH1 0x20 ADD SWAP2 PUSH2 0x2002 JUMP JUMPDEST DUP3 ADD SWAP2 SWAP1 PUSH1 0x0 MSTORE PUSH1 0x20 PUSH1 0x0 KECCAK256 SWAP1 JUMPDEST DUP2 SLOAD DUP2 MSTORE SWAP1 PUSH1 0x1 ADD SWAP1 PUSH1 0x20 ADD DUP1 DUP4 GT PUSH2 0x1FE5 JUMPI DUP3 SWAP1 SUB PUSH1 0x1F AND DUP3 ADD SWAP2 JUMPDEST POP POP POP SWAP2 DUP4 MSTORE POP POP PUSH1 0x2 DUP3 ADD SLOAD PUSH1 0x20 DUP1 DUP4 ADD SWAP2 SWAP1 SWAP2 MSTORE PUSH1 0x3 DUP4 ADD SLOAD PUSH1 0x1 PUSH1 0x1 PUSH1 0xA0 SHL SUB SWAP1 DUP2 AND PUSH1 0x40 DUP5 ADD MSTORE PUSH1 0x4 DUP5 ADD SLOAD SWAP1 DUP2 AND PUSH1 0x60 DUP5 ADD MSTORE PUSH1 0xFF PUSH1 0x1 PUSH1 0xA0 SHL DUP3 DIV DUP2 AND ISZERO ISZERO PUSH1 0x80 DUP6 ADD MSTORE PUSH1 0x1 PUSH1 0xA8 SHL SWAP1 SWAP2 DIV AND ISZERO ISZERO PUSH1 0xA0 DUP4 ADD MSTORE PUSH1 0x5 DUP4 ADD SLOAD PUSH1 0xC0 DUP4 ADD MSTORE PUSH1 0x6 SWAP1 SWAP3 ADD SLOAD PUSH1 0xE0 SWAP1 SWAP2 ADD MSTORE SWAP1 DUP3 MSTORE PUSH1 0x1 SWAP3 SWAP1 SWAP3 ADD SWAP2 ADD PUSH2 0x1F4B JUMP JUMPDEST PUSH2 0x208A PUSH2 0x338C JUMP JUMPDEST PUSH1 0xD PUSH1 0x0 DUP4 DUP2 MSTORE PUSH1 0x20 ADD SWAP1 DUP2 MSTORE PUSH1 0x20 ADD PUSH1 0x0 KECCAK256 PUSH1 0x40 MLOAD DUP1 PUSH2 0x1A0 ADD PUSH1 0x40 MSTORE SWAP1 DUP2 PUSH1 0x0 DUP3 ADD SLOAD DUP2 MSTORE PUSH1 0x20 ADD PUSH1 0x1 DUP3 ADD DUP1 SLOAD PUSH2 0x20C3 SWAP1 PUSH2 0x3B76 JUMP JUMPDEST DUP1 PUSH1 0x1F ADD PUSH1 0x20 DUP1 SWAP2 DIV MUL PUSH1 0x20 ADD PUSH1 0x40 MLOAD SWAP1 DUP2 ADD PUSH1 0x40 MSTORE DUP1 SWAP3 SWAP2 SWAP1 DUP2 DUP2 MSTORE PUSH1 0x20 ADD DUP3 DUP1 SLOAD PUSH2 0x20EF SWAP1 PUSH2 0x3B76 JUMP JUMPDEST DUP1 ISZERO PUSH2 0x213C JUMPI DUP1 PUSH1 0x1F LT PUSH2 0x2111 JUMPI PUSH2 0x100 DUP1 DUP4 SLOAD DIV MUL DUP4 MSTORE SWAP2 PUSH1 0x20 ADD SWAP2 PUSH2 0x213C JUMP JUMPDEST DUP3 ADD SWAP2 SWAP1 PUSH1 0x0 MSTORE PUSH1 0x20 PUSH1 0x0 KECCAK256 SWAP1 JUMPDEST DUP2 SLOAD DUP2 MSTORE SWAP1 PUSH1 0x1 ADD SWAP1 PUSH1 0x20 ADD DUP1 DUP4 GT PUSH2 0x211F JUMPI DUP3 SWAP1 SUB PUSH1 0x1F AND DUP3 ADD SWAP2 JUMPDEST POP POP POP POP POP DUP2 MSTORE PUSH1 0x20 ADD PUSH1 0x2 DUP3 ADD DUP1 SLOAD PUSH2 0x2155 SWAP1 PUSH2 0x3B76 JUMP JUMPDEST DUP1 PUSH1 0x1F ADD PUSH1 0x20 DUP1 SWAP2 DIV MUL PUSH1 0x20 ADD PUSH1 0x40 MLOAD SWAP1 DUP2 ADD PUSH1 0x40 MSTORE DUP1 SWAP3 SWAP2 SWAP1 DUP2 DUP2 MSTORE PUSH1 0x20 ADD DUP3 DUP1 SLOAD PUSH2 0x2181 SWAP1 PUSH2 0x3B76 JUMP JUMPDEST DUP1 ISZERO PUSH2 0x21CE JUMPI DUP1 PUSH1 0x1F LT PUSH2 0x21A3 JUMPI PUSH2 0x100 DUP1 DUP4 SLOAD DIV MUL DUP4 MSTORE SWAP2 PUSH1 0x20 ADD SWAP2 PUSH2 0x21CE JUMP JUMPDEST DUP3 ADD SWAP2 SWAP1 PUSH1 0x0 MSTORE PUSH1 0x20 PUSH1 0x0 KECCAK256 SWAP1 JUMPDEST DUP2 SLOAD DUP2 MSTORE SWAP1 PUSH1 0x1 ADD SWAP1 PUSH1 0x20 ADD DUP1 DUP4 GT PUSH2 0x21B1 JUMPI DUP3 SWAP1 SUB PUSH1 0x1F AND DUP3 ADD SWAP2 JUMPDEST POP POP POP SWAP2 DUP4 MSTORE POP POP PUSH1 0x3 DUP3 ADD SLOAD PUSH1 0x1 PUSH1 0x1 PUSH1 0xA0 SHL SUB AND PUSH1 0x20 DUP3 ADD MSTORE PUSH1 0x4 DUP3 ADD SLOAD PUSH1 0x40 DUP3 ADD MSTORE PUSH1 0x5 DUP3 ADD SLOAD PUSH1 0x60 DUP3 ADD MSTORE PUSH1 0x6 DUP3 ADD SLOAD PUSH1 0x80 DUP3 ADD MSTORE PUSH1 0x7 DUP3 ADD SLOAD PUSH1 0xA0 DUP3 ADD MSTORE PUSH1 0x8 DUP3 ADD SLOAD PUSH1 0xC0 DUP3 ADD MSTORE PUSH1 0x9 DUP3 ADD SLOAD PUSH1 0xE0 DUP3 ADD MSTORE PUSH1 0xA DUP3 ADD SLOAD PUSH2 0x100 DUP1 DUP4 ADD SWAP2 SWAP1 SWAP2 MSTORE PUSH1 0xB SWAP1 SWAP3 ADD SLOAD PUSH1 0xFF DUP1 DUP3 AND ISZERO ISZERO PUSH2 0x120 DUP5 ADD MSTORE SWAP3 SWAP1 DIV SWAP1 SWAP2 AND ISZERO ISZERO PUSH2 0x140 SWAP1 SWAP2 ADD MSTORE SWAP3 SWAP2 POP POP JUMP JUMPDEST PUSH1 0x0 CALLER DUP2 PUSH2 0x226A DUP3 DUP7 PUSH2 0x25FC JUMP JUMPDEST SWAP1 POP DUP4 DUP2 LT ISZERO PUSH2 0x22CA JUMPI PUSH1 0x40 MLOAD PUSH3 0x461BCD PUSH1 0xE5 SHL DUP2 MSTORE PUSH1 0x20 PUSH1 0x4 DUP3 ADD MSTORE PUSH1 0x25 PUSH1 0x24 DUP3 ADD MSTORE PUSH32 0x45524332303A2064656372656173656420616C6C6F77616E63652062656C6F77 PUSH1 0x44 DUP3 ADD MSTORE PUSH5 0x207A65726F PUSH1 0xD8 SHL PUSH1 0x64 DUP3 ADD MSTORE PUSH1 0x84 ADD PUSH2 0xA58 JUMP JUMPDEST PUSH2 0x1460 DUP3 DUP7 DUP7 DUP5 SUB PUSH2 0x2CC8 JUMP JUMPDEST PUSH1 0x0 CALLER PUSH2 0x9EA DUP2 DUP6 DUP6 PUSH2 0x2F87 JUMP JUMPDEST PUSH1 0x60 PUSH1 0x0 PUSH1 0x1 JUMPDEST PUSH1 0x7 SLOAD DUP2 GT PUSH2 0x2353 JUMPI PUSH1 0x0 DUP2 DUP2 MSTORE PUSH1 0xD PUSH1 0x20 MSTORE PUSH1 0x40 SWAP1 KECCAK256 PUSH1 0xB ADD SLOAD PUSH1 0xFF AND ISZERO DUP1 ISZERO PUSH2 0x232E JUMPI POP PUSH1 0x0 DUP2 DUP2 MSTORE PUSH1 0xD PUSH1 0x20 MSTORE PUSH1 0x40 SWAP1 KECCAK256 PUSH1 0xB ADD SLOAD PUSH2 0x100 SWAP1 DIV PUSH1 0xFF AND ISZERO JUMPDEST ISZERO PUSH2 0x2341 JUMPI DUP2 PUSH2 0x233D DUP2 PUSH2 0x3B5D JUMP JUMPDEST SWAP3 POP POP JUMPDEST DUP1 PUSH2 0x234B DUP2 PUSH2 0x3B5D JUMP JUMPDEST SWAP2 POP POP PUSH2 0x22EC JUMP JUMPDEST POP DUP1 PUSH8 0xFFFFFFFFFFFFFFFF DUP2 GT ISZERO PUSH2 0x236D JUMPI PUSH2 0x236D PUSH2 0x373D JUMP JUMPDEST PUSH1 0x40 MLOAD SWAP1 DUP1 DUP3 MSTORE DUP1 PUSH1 0x20 MUL PUSH1 0x20 ADD DUP3 ADD PUSH1 0x40 MSTORE DUP1 ISZERO PUSH2 0x23A6 JUMPI DUP2 PUSH1 0x20 ADD JUMPDEST PUSH2 0x2393 PUSH2 0x338C JUMP JUMPDEST DUP2 MSTORE PUSH1 0x20 ADD SWAP1 PUSH1 0x1 SWAP1 SUB SWAP1 DUP2 PUSH2 0x238B JUMPI SWAP1 POP JUMPDEST POP SWAP2 POP PUSH1 0x0 PUSH1 0x1 JUMPDEST PUSH1 0x7 SLOAD DUP2 GT PUSH2 0x88E JUMPI PUSH1 0x0 DUP2 DUP2 MSTORE PUSH1 0xD PUSH1 0x20 MSTORE PUSH1 0x40 SWAP1 KECCAK256 PUSH1 0xB ADD SLOAD PUSH1 0xFF AND ISZERO DUP1 ISZERO PUSH2 0x23F0 JUMPI POP PUSH1 0x0 DUP2 DUP2 MSTORE PUSH1 0xD PUSH1 0x20 MSTORE PUSH1 0x40 SWAP1 KECCAK256 PUSH1 0xB ADD SLOAD PUSH2 0x100 SWAP1 DIV PUSH1 0xFF AND ISZERO JUMPDEST ISZERO PUSH2 0x25EA JUMPI PUSH1 0xD PUSH1 0x0 DUP3 DUP2 MSTORE PUSH1 0x20 ADD SWAP1 DUP2 MSTORE PUSH1 0x20 ADD PUSH1 0x0 KECCAK256 PUSH1 0x40 MLOAD DUP1 PUSH2 0x1A0 ADD PUSH1 0x40 MSTORE SWAP1 DUP2 PUSH1 0x0 DUP3 ADD SLOAD DUP2 MSTORE PUSH1 0x20 ADD PUSH1 0x1 DUP3 ADD DUP1 SLOAD PUSH2 0x242E SWAP1 PUSH2 0x3B76 JUMP JUMPDEST DUP1 PUSH1 0x1F ADD PUSH1 0x20 DUP1 SWAP2 DIV MUL PUSH1 0x20 ADD PUSH1 0x40 MLOAD SWAP1 DUP2 ADD PUSH1 0x40 MSTORE DUP1 SWAP3 SWAP2 SWAP1 DUP2 DUP2 MSTORE PUSH1 0x20 ADD DUP3 DUP1 SLOAD PUSH2 0x245A SWAP1 PUSH2 0x3B76 JUMP JUMPDEST DUP1 ISZERO PUSH2 0x24A7 JUMPI DUP1 PUSH1 0x1F LT PUSH2 0x247C JUMPI PUSH2 0x100 DUP1 DUP4 SLOAD DIV MUL DUP4 MSTORE SWAP2 PUSH1 0x20 ADD SWAP2 PUSH2 0x24A7 JUMP JUMPDEST DUP3 ADD SWAP2 SWAP1 PUSH1 0x0 MSTORE PUSH1 0x20 PUSH1 0x0 KECCAK256 SWAP1 JUMPDEST DUP2 SLOAD DUP2 MSTORE SWAP1 PUSH1 0x1 ADD SWAP1 PUSH1 0x20 ADD DUP1 DUP4 GT PUSH2 0x248A JUMPI DUP3 SWAP1 SUB PUSH1 0x1F AND DUP3 ADD SWAP2 JUMPDEST POP POP POP POP POP DUP2 MSTORE PUSH1 0x20 ADD PUSH1 0x2 DUP3 ADD DUP1 SLOAD PUSH2 0x24C0 SWAP1 PUSH2 0x3B76 JUMP JUMPDEST DUP1 PUSH1 0x1F ADD PUSH1 0x20 DUP1 SWAP2 DIV MUL PUSH1 0x20 ADD PUSH1 0x40 MLOAD SWAP1 DUP2 ADD PUSH1 0x40 MSTORE DUP1 SWAP3 SWAP2 SWAP1 DUP2 DUP2 MSTORE PUSH1 0x20 ADD DUP3 DUP1 SLOAD PUSH2 0x24EC SWAP1 PUSH2 0x3B76 JUMP JUMPDEST DUP1 ISZERO PUSH2 0x2539 JUMPI DUP1 PUSH1 0x1F LT PUSH2 0x250E JUMPI PUSH2 0x100 DUP1 DUP4 SLOAD DIV MUL DUP4 MSTORE SWAP2 PUSH1 0x20 ADD SWAP2 PUSH2 0x2539 JUMP JUMPDEST DUP3 ADD SWAP2 SWAP1 PUSH1 0x0 MSTORE PUSH1 0x20 PUSH1 0x0 KECCAK256 SWAP1 JUMPDEST DUP2 SLOAD DUP2 MSTORE SWAP1 PUSH1 0x1 ADD SWAP1 PUSH1 0x20 ADD DUP1 DUP4 GT PUSH2 0x251C JUMPI DUP3 SWAP1 SUB PUSH1 0x1F AND DUP3 ADD SWAP2 JUMPDEST POP POP POP SWAP2 DUP4 MSTORE POP POP PUSH1 0x3 DUP3 ADD SLOAD PUSH1 0x1 PUSH1 0x1 PUSH1 0xA0 SHL SUB AND PUSH1 0x20 DUP3 ADD MSTORE PUSH1 0x4 DUP3 ADD SLOAD PUSH1 0x40 DUP3 ADD MSTORE PUSH1 0x5 DUP3 ADD SLOAD PUSH1 0x60 DUP3 ADD MSTORE PUSH1 0x6 DUP3 ADD SLOAD PUSH1 0x80 DUP3 ADD MSTORE PUSH1 0x7 DUP3 ADD SLOAD PUSH1 0xA0 DUP3 ADD MSTORE PUSH1 0x8 DUP3 ADD SLOAD PUSH1 0xC0 DUP3 ADD MSTORE PUSH1 0x9 DUP3 ADD SLOAD PUSH1 0xE0 DUP3 ADD MSTORE PUSH1 0xA DUP3 ADD SLOAD PUSH2 0x100 DUP1 DUP4 ADD SWAP2 SWAP1 SWAP2 MSTORE PUSH1 0xB SWAP1 SWAP3 ADD SLOAD PUSH1 0xFF DUP1 DUP3 AND ISZERO ISZERO PUSH2 0x120 DUP5 ADD MSTORE SWAP3 SWAP1 DIV SWAP1 SWAP2 AND ISZERO ISZERO PUSH2 0x140 SWAP1 SWAP2 ADD MSTORE DUP5 DUP4 PUSH2 0x25CC DUP2 PUSH2 0x3B5D JUMP JUMPDEST SWAP5 POP DUP2 MLOAD DUP2 LT PUSH2 0x25DE JUMPI PUSH2 0x25DE PUSH2 0x3BB0 JUMP JUMPDEST PUSH1 0x20 MUL PUSH1 0x20 ADD ADD DUP2 SWAP1 MSTORE POP JUMPDEST DUP1 PUSH2 0x25F4 DUP2 PUSH2 0x3B5D JUMP JUMPDEST SWAP2 POP POP PUSH2 0x23AE JUMP JUMPDEST PUSH1 0x1 PUSH1 0x1 PUSH1 0xA0 SHL SUB SWAP2 DUP3 AND PUSH1 0x0 SWAP1 DUP2 MSTORE PUSH1 0x3 PUSH1 0x20 SWAP1 DUP2 MSTORE PUSH1 0x40 DUP1 DUP4 KECCAK256 SWAP4 SWAP1 SWAP5 AND DUP3 MSTORE SWAP2 SWAP1 SWAP2 MSTORE KECCAK256 SLOAD SWAP1 JUMP JUMPDEST PUSH2 0x262F PUSH2 0x3241 JUMP JUMPDEST PUSH1 0x0 DUP2 DUP2 MSTORE PUSH1 0xC PUSH1 0x20 MSTORE PUSH1 0x40 SWAP1 KECCAK256 SLOAD PUSH1 0xFF AND PUSH2 0x2683 JUMPI PUSH1 0x40 MLOAD PUSH3 0x461BCD PUSH1 0xE5 SHL DUP2 MSTORE PUSH1 0x20 PUSH1 0x4 DUP3 ADD MSTORE PUSH1 0x13 PUSH1 0x24 DUP3 ADD MSTORE PUSH19 0x11D85B5948191BD95CC81B9BDD08195E1A5CDD PUSH1 0x6A SHL PUSH1 0x44 DUP3 ADD MSTORE PUSH1 0x64 ADD PUSH2 0xA58 JUMP JUMPDEST PUSH1 0x0 DUP2 DUP2 MSTORE PUSH1 0xD PUSH1 0x20 MSTORE PUSH1 0x40 SWAP1 KECCAK256 PUSH1 0x9 ADD SLOAD PUSH2 0x269D PUSH2 0x2DEC JUMP JUMPDEST GT PUSH2 0x26E2 JUMPI PUSH1 0x40 MLOAD PUSH3 0x461BCD PUSH1 0xE5 SHL DUP2 MSTORE PUSH1 0x20 PUSH1 0x4 DUP3 ADD MSTORE PUSH1 0x15 PUSH1 0x24 DUP3 ADD MSTORE PUSH21 0x23B0B6B29039BA34B6361034B71039B2B9B9B4B7B7 PUSH1 0x59 SHL PUSH1 0x44 DUP3 ADD MSTORE PUSH1 0x64 ADD PUSH2 0xA58 JUMP JUMPDEST PUSH1 0x0 DUP2 DUP2 MSTORE PUSH1 0xD PUSH1 0x20 MSTORE PUSH1 0x40 SWAP1 KECCAK256 PUSH1 0xB ADD SLOAD PUSH2 0x100 SWAP1 DIV PUSH1 0xFF AND ISZERO PUSH2 0x2741 JUMPI PUSH1 0x40 MLOAD PUSH3 0x461BCD PUSH1 0xE5 SHL DUP2 MSTORE PUSH1 0x20 PUSH1 0x4 DUP3 ADD MSTORE PUSH1 0x15 PUSH1 0x24 DUP3 ADD MSTORE PUSH21 0x11D85B5948185B1C9958591E481C185A59081BDD5D PUSH1 0x5A SHL PUSH1 0x44 DUP3 ADD MSTORE PUSH1 0x64 ADD PUSH2 0xA58 JUMP JUMPDEST PUSH1 0x0 PUSH1 0xD PUSH1 0x0 DUP4 DUP2 MSTORE PUSH1 0x20 ADD SWAP1 DUP2 MSTORE PUSH1 0x20 ADD PUSH1 0x0 KECCAK256 PUSH1 0x40 MLOAD DUP1 PUSH2 0x1A0 ADD PUSH1 0x40 MSTORE SWAP1 DUP2 PUSH1 0x0 DUP3 ADD SLOAD DUP2 MSTORE PUSH1 0x20 ADD PUSH1 0x1 DUP3 ADD DUP1 SLOAD PUSH2 0x277C SWAP1 PUSH2 0x3B76 JUMP JUMPDEST DUP1 PUSH1 0x1F ADD PUSH1 0x20 DUP1 SWAP2 DIV MUL PUSH1 0x20 ADD PUSH1 0x40 MLOAD SWAP1 DUP2 ADD PUSH1 0x40 MSTORE DUP1 SWAP3 SWAP2 SWAP1 DUP2 DUP2 MSTORE PUSH1 0x20 ADD DUP3 DUP1 SLOAD PUSH2 0x27A8 SWAP1 PUSH2 0x3B76 JUMP JUMPDEST DUP1 ISZERO PUSH2 0x27F5 JUMPI DUP1 PUSH1 0x1F LT PUSH2 0x27CA JUMPI PUSH2 0x100 DUP1 DUP4 SLOAD DIV MUL DUP4 MSTORE SWAP2 PUSH1 0x20 ADD SWAP2 PUSH2 0x27F5 JUMP JUMPDEST DUP3 ADD SWAP2 SWAP1 PUSH1 0x0 MSTORE PUSH1 0x20 PUSH1 0x0 KECCAK256 SWAP1 JUMPDEST DUP2 SLOAD DUP2 MSTORE SWAP1 PUSH1 0x1 ADD SWAP1 PUSH1 0x20 ADD DUP1 DUP4 GT PUSH2 0x27D8 JUMPI DUP3 SWAP1 SUB PUSH1 0x1F AND DUP3 ADD SWAP2 JUMPDEST POP POP POP POP POP DUP2 MSTORE PUSH1 0x20 ADD PUSH1 0x2 DUP3 ADD DUP1 SLOAD PUSH2 0x280E SWAP1 PUSH2 0x3B76 JUMP JUMPDEST DUP1 PUSH1 0x1F ADD PUSH1 0x20 DUP1 SWAP2 DIV MUL PUSH1 0x20 ADD PUSH1 0x40 MLOAD SWAP1 DUP2 ADD PUSH1 0x40 MSTORE DUP1 SWAP3 SWAP2 SWAP1 DUP2 DUP2 MSTORE PUSH1 0x20 ADD DUP3 DUP1 SLOAD PUSH2 0x283A SWAP1 PUSH2 0x3B76 JUMP JUMPDEST DUP1 ISZERO PUSH2 0x2887 JUMPI DUP1 PUSH1 0x1F LT PUSH2 0x285C JUMPI PUSH2 0x100 DUP1 DUP4 SLOAD DIV MUL DUP4 MSTORE SWAP2 PUSH1 0x20 ADD SWAP2 PUSH2 0x2887 JUMP JUMPDEST DUP3 ADD SWAP2 SWAP1 PUSH1 0x0 MSTORE PUSH1 0x20 PUSH1 0x0 KECCAK256 SWAP1 JUMPDEST DUP2 SLOAD DUP2 MSTORE SWAP1 PUSH1 0x1 ADD SWAP1 PUSH1 0x20 ADD DUP1 DUP4 GT PUSH2 0x286A JUMPI DUP3 SWAP1 SUB PUSH1 0x1F AND DUP3 ADD SWAP2 JUMPDEST POP POP POP SWAP2 DUP4 MSTORE POP POP PUSH1 0x3 DUP3 ADD SLOAD PUSH1 0x1 PUSH1 0x1 PUSH1 0xA0 SHL SUB AND PUSH1 0x20 DUP3 ADD MSTORE PUSH1 0x4 DUP3 ADD SLOAD PUSH1 0x40 DUP3 ADD MSTORE PUSH1 0x5 DUP3 ADD SLOAD PUSH1 0x60 DUP3 ADD MSTORE PUSH1 0x6 DUP3 ADD SLOAD PUSH1 0x80 DUP3 ADD MSTORE PUSH1 0x7 DUP3 ADD SLOAD PUSH1 0xA0 DUP3 ADD MSTORE PUSH1 0x8 DUP3 ADD SLOAD PUSH1 0xC0 DUP1 DUP4 ADD SWAP2 SWAP1 SWAP2 MSTORE PUSH1 0x9 DUP4 ADD SLOAD PUSH1 0xE0 DUP1 DUP5 ADD SWAP2 SWAP1 SWAP2 MSTORE PUSH1 0xA DUP5 ADD SLOAD PUSH2 0x100 DUP1 DUP6 ADD SWAP2 SWAP1 SWAP2 MSTORE PUSH1 0xB SWAP1 SWAP5 ADD SLOAD PUSH1 0xFF DUP1 DUP3 AND ISZERO ISZERO PUSH2 0x120 DUP7 ADD MSTORE SWAP5 SWAP1 DIV SWAP1 SWAP4 AND ISZERO ISZERO PUSH2 0x140 SWAP1 SWAP3 ADD SWAP2 SWAP1 SWAP2 MSTORE DUP3 ADD MLOAD SWAP1 DUP3 ADD MLOAD SWAP2 SWAP3 POP PUSH1 0x0 SWAP2 PUSH2 0x2930 SWAP2 PUSH2 0x329A JUMP JUMPDEST SWAP1 POP PUSH1 0x0 PUSH2 0x2954 PUSH1 0x64 PUSH2 0x294E PUSH1 0xB SLOAD DUP6 PUSH2 0x329A SWAP1 SWAP2 SWAP1 PUSH4 0xFFFFFFFF AND JUMP JUMPDEST SWAP1 PUSH2 0x32AD JUMP JUMPDEST SWAP1 POP PUSH1 0x0 PUSH2 0x296D PUSH2 0x2966 DUP4 PUSH1 0x2 PUSH2 0x32AD JUMP JUMPDEST DUP4 SWAP1 PUSH2 0x32B9 JUMP JUMPDEST SWAP1 POP PUSH1 0x0 PUSH2 0x2985 DUP3 PUSH2 0x297F DUP7 DUP7 PUSH2 0x32B9 JUMP JUMPDEST SWAP1 PUSH2 0x32B9 JUMP JUMPDEST SWAP1 POP PUSH2 0x29A2 PUSH2 0x299C PUSH1 0x0 SLOAD PUSH1 0x1 PUSH1 0x1 PUSH1 0xA0 SHL SUB AND SWAP1 JUMP JUMPDEST DUP5 PUSH2 0x3132 JUMP JUMPDEST PUSH2 0x29B0 DUP6 PUSH1 0x60 ADD MLOAD DUP4 PUSH2 0x3132 JUMP JUMPDEST PUSH1 0x0 DUP7 DUP2 MSTORE PUSH1 0xF PUSH1 0x20 MSTORE PUSH1 0x40 DUP2 KECCAK256 SLOAD PUSH8 0xFFFFFFFFFFFFFFFF DUP2 GT ISZERO PUSH2 0x29D7 JUMPI PUSH2 0x29D7 PUSH2 0x373D JUMP JUMPDEST PUSH1 0x40 MLOAD SWAP1 DUP1 DUP3 MSTORE DUP1 PUSH1 0x20 MUL PUSH1 0x20 ADD DUP3 ADD PUSH1 0x40 MSTORE DUP1 ISZERO PUSH2 0x2A10 JUMPI DUP2 PUSH1 0x20 ADD JUMPDEST PUSH2 0x29FD PUSH2 0x3401 JUMP JUMPDEST DUP2 MSTORE PUSH1 0x20 ADD SWAP1 PUSH1 0x1 SWAP1 SUB SWAP1 DUP2 PUSH2 0x29F5 JUMPI SWAP1 POP JUMPDEST POP PUSH1 0x0 DUP9 DUP2 MSTORE PUSH1 0xF PUSH1 0x20 SWAP1 DUP2 MSTORE PUSH1 0x40 DUP1 DUP4 KECCAK256 DUP1 SLOAD DUP3 MLOAD DUP2 DUP6 MUL DUP2 ADD DUP6 ADD SWAP1 SWAP4 MSTORE DUP1 DUP4 MSTORE SWAP5 SWAP6 POP PUSH2 0x2AC0 SWAP5 SWAP2 SWAP4 SWAP1 SWAP3 DUP5 ADD JUMPDEST DUP3 DUP3 LT ISZERO PUSH2 0x2AB7 JUMPI PUSH1 0x0 DUP5 DUP2 MSTORE PUSH1 0x20 SWAP1 DUP2 SWAP1 KECCAK256 PUSH1 0x40 DUP1 MLOAD PUSH1 0xC0 DUP2 ADD DUP3 MSTORE PUSH1 0x6 DUP7 MUL SWAP1 SWAP3 ADD DUP1 SLOAD DUP4 MSTORE PUSH1 0x1 DUP1 DUP3 ADD SLOAD DUP5 DUP7 ADD MSTORE PUSH1 0x2 DUP3 ADD SLOAD PUSH1 0x1 PUSH1 0x1 PUSH1 0xA0 SHL SUB AND SWAP3 DUP5 ADD SWAP3 SWAP1 SWAP3 MSTORE PUSH1 0x3 DUP2 ADD SLOAD PUSH1 0x60 DUP5 ADD MSTORE PUSH1 0x4 DUP2 ADD SLOAD PUSH1 0x80 DUP5 ADD MSTORE PUSH1 0x5 ADD SLOAD PUSH1 0xFF AND ISZERO ISZERO PUSH1 0xA0 DUP4 ADD MSTORE SWAP1 DUP4 MSTORE SWAP1 SWAP3 ADD SWAP2 ADD PUSH2 0x2A41 JUMP JUMPDEST POP POP POP POP PUSH2 0x15FC JUMP JUMPDEST SWAP1 POP PUSH1 0x0 PUSH2 0x2ADB DUP8 PUSH1 0xA0 ADD MLOAD DUP5 PUSH2 0x32AD SWAP1 SWAP2 SWAP1 PUSH4 0xFFFFFFFF AND JUMP JUMPDEST SWAP1 POP PUSH1 0x0 JUMPDEST DUP8 PUSH1 0xA0 ADD MLOAD DUP2 LT ISZERO PUSH2 0x2C1F JUMPI PUSH2 0x2B13 DUP4 DUP3 DUP2 MLOAD DUP2 LT PUSH2 0x2B01 JUMPI PUSH2 0x2B01 PUSH2 0x3BB0 JUMP JUMPDEST PUSH1 0x20 MUL PUSH1 0x20 ADD ADD MLOAD PUSH1 0x40 ADD MLOAD DUP4 PUSH2 0x3132 JUMP JUMPDEST PUSH2 0x2B3A DUP4 DUP3 DUP2 MLOAD DUP2 LT PUSH2 0x2B28 JUMPI PUSH2 0x2B28 PUSH2 0x3BB0 JUMP JUMPDEST PUSH1 0x20 MUL PUSH1 0x20 ADD ADD MLOAD PUSH1 0x40 ADD MLOAD DUP4 PUSH2 0x32C5 JUMP JUMPDEST PUSH1 0x0 JUMPDEST PUSH1 0x0 DUP11 DUP2 MSTORE PUSH1 0xF PUSH1 0x20 MSTORE PUSH1 0x40 SWAP1 KECCAK256 SLOAD DUP2 LT ISZERO PUSH2 0x2C0C JUMPI PUSH1 0x0 DUP11 DUP2 MSTORE PUSH1 0xF PUSH1 0x20 MSTORE PUSH1 0x40 SWAP1 KECCAK256 DUP1 SLOAD DUP3 SWAP1 DUP2 LT PUSH2 0x2B73 JUMPI PUSH2 0x2B73 PUSH2 0x3BB0 JUMP JUMPDEST PUSH1 0x0 SWAP2 DUP3 MSTORE PUSH1 0x20 SWAP1 SWAP2 KECCAK256 PUSH1 0x2 PUSH1 0x6 SWAP1 SWAP3 MUL ADD ADD SLOAD DUP5 MLOAD PUSH1 0x1 PUSH1 0x1 PUSH1 0xA0 SHL SUB SWAP1 SWAP2 AND SWAP1 DUP6 SWAP1 DUP5 SWAP1 DUP2 LT PUSH2 0x2BA7 JUMPI PUSH2 0x2BA7 PUSH2 0x3BB0 JUMP JUMPDEST PUSH1 0x20 MUL PUSH1 0x20 ADD ADD MLOAD PUSH1 0x40 ADD MLOAD PUSH1 0x1 PUSH1 0x1 PUSH1 0xA0 SHL SUB AND SUB PUSH2 0x2BFA JUMPI PUSH1 0x0 DUP11 DUP2 MSTORE PUSH1 0xF PUSH1 0x20 MSTORE PUSH1 0x40 SWAP1 KECCAK256 DUP1 SLOAD DUP5 SWAP2 SWAP1 DUP4 SWAP1 DUP2 LT PUSH2 0x2BE4 JUMPI PUSH2 0x2BE4 PUSH2 0x3BB0 JUMP JUMPDEST SWAP1 PUSH1 0x0 MSTORE PUSH1 0x20 PUSH1 0x0 KECCAK256 SWAP1 PUSH1 0x6 MUL ADD PUSH1 0x4 ADD DUP2 SWAP1 SSTORE POP JUMPDEST DUP1 PUSH2 0x2C04 DUP2 PUSH2 0x3B5D JUMP JUMPDEST SWAP2 POP POP PUSH2 0x2B3D JUMP JUMPDEST POP DUP1 PUSH2 0x2C17 DUP2 PUSH2 0x3B5D JUMP JUMPDEST SWAP2 POP POP PUSH2 0x2AE0 JUMP JUMPDEST POP POP POP PUSH1 0x0 DUP7 DUP2 MSTORE PUSH1 0xD PUSH1 0x20 MSTORE PUSH1 0x40 SWAP1 KECCAK256 PUSH1 0xB ADD DUP1 SLOAD PUSH2 0xFF00 NOT AND PUSH2 0x100 OR SWAP1 SSTORE POP PUSH2 0x2C4F SWAP4 POP PUSH2 0x3386 SWAP3 POP POP POP JUMP JUMPDEST POP JUMP JUMPDEST PUSH2 0x2C5A PUSH2 0x3197 JUMP JUMPDEST PUSH1 0x1 PUSH1 0x1 PUSH1 0xA0 SHL SUB DUP2 AND PUSH2 0x2CBF JUMPI PUSH1 0x40 MLOAD PUSH3 0x461BCD PUSH1 0xE5 SHL DUP2 MSTORE PUSH1 0x20 PUSH1 0x4 DUP3 ADD MSTORE PUSH1 0x26 PUSH1 0x24 DUP3 ADD MSTORE PUSH32 0x4F776E61626C653A206E6577206F776E657220697320746865207A65726F2061 PUSH1 0x44 DUP3 ADD MSTORE PUSH6 0x646472657373 PUSH1 0xD0 SHL PUSH1 0x64 DUP3 ADD MSTORE PUSH1 0x84 ADD PUSH2 0xA58 JUMP JUMPDEST PUSH2 0x2C4F DUP2 PUSH2 0x31F1 JUMP JUMPDEST PUSH1 0x1 PUSH1 0x1 PUSH1 0xA0 SHL SUB DUP4 AND PUSH2 0x2D2A JUMPI PUSH1 0x40 MLOAD PUSH3 0x461BCD PUSH1 0xE5 SHL DUP2 MSTORE PUSH1 0x20 PUSH1 0x4 DUP3 ADD MSTORE PUSH1 0x24 DUP1 DUP3 ADD MSTORE PUSH32 0x45524332303A20617070726F76652066726F6D20746865207A65726F20616464 PUSH1 0x44 DUP3 ADD MSTORE PUSH4 0x72657373 PUSH1 0xE0 SHL PUSH1 0x64 DUP3 ADD MSTORE PUSH1 0x84 ADD PUSH2 0xA58 JUMP JUMPDEST PUSH1 0x1 PUSH1 0x1 PUSH1 0xA0 SHL SUB DUP3 AND PUSH2 0x2D8B JUMPI PUSH1 0x40 MLOAD PUSH3 0x461BCD PUSH1 0xE5 SHL DUP2 MSTORE PUSH1 0x20 PUSH1 0x4 DUP3 ADD MSTORE PUSH1 0x22 PUSH1 0x24 DUP3 ADD MSTORE PUSH32 0x45524332303A20617070726F766520746F20746865207A65726F206164647265 PUSH1 0x44 DUP3 ADD MSTORE PUSH2 0x7373 PUSH1 0xF0 SHL PUSH1 0x64 DUP3 ADD MSTORE PUSH1 0x84 ADD PUSH2 0xA58 JUMP JUMPDEST PUSH1 0x1 PUSH1 0x1 PUSH1 0xA0 SHL SUB DUP4 DUP2 AND PUSH1 0x0 DUP2 DUP2 MSTORE PUSH1 0x3 PUSH1 0x20 SWAP1 DUP2 MSTORE PUSH1 0x40 DUP1 DUP4 KECCAK256 SWAP5 DUP8 AND DUP1 DUP5 MSTORE SWAP5 DUP3 MSTORE SWAP2 DUP3 SWAP1 KECCAK256 DUP6 SWAP1 SSTORE SWAP1 MLOAD DUP5 DUP2 MSTORE PUSH32 0x8C5BE1E5EBEC7D5BD14F71427D1E84F3DD0314C0F7B2291E5B200AC8C7C3B925 SWAP2 ADD PUSH1 0x40 MLOAD DUP1 SWAP2 SUB SWAP1 LOG3 POP POP POP JUMP JUMPDEST PUSH1 0x0 PUSH2 0x2DFA TIMESTAMP PUSH2 0x2710 PUSH2 0x3D7C JUMP JUMPDEST PUSH2 0x2E06 SWAP1 PUSH2 0x2710 PUSH2 0x3D69 JUMP JUMPDEST SWAP1 POP SWAP1 JUMP JUMPDEST PUSH1 0x0 PUSH2 0x2E1B PUSH1 0x7 DUP1 SLOAD PUSH1 0x1 ADD SWAP1 SSTORE JUMP JUMPDEST PUSH2 0x2E48 PUSH1 0x40 MLOAD DUP1 PUSH1 0x60 ADD PUSH1 0x40 MSTORE DUP1 PUSH1 0x0 DUP2 MSTORE PUSH1 0x20 ADD PUSH1 0x0 DUP2 MSTORE PUSH1 0x20 ADD PUSH1 0x0 PUSH1 0x1 PUSH1 0x1 PUSH1 0xA0 SHL SUB AND DUP2 MSTORE POP SWAP1 JUMP JUMPDEST PUSH1 0x8 SLOAD DUP2 MSTORE PUSH1 0x20 DUP1 DUP3 ADD DUP5 DUP2 MSTORE CALLER PUSH1 0x40 DUP1 DUP6 ADD DUP3 DUP2 MSTORE PUSH1 0x0 DUP9 DUP2 MSTORE PUSH1 0xE DUP7 MSTORE DUP3 DUP2 KECCAK256 DUP1 SLOAD PUSH1 0x1 DUP1 DUP3 ADD DUP4 SSTORE SWAP2 DUP4 MSTORE DUP8 DUP4 KECCAK256 DUP10 MLOAD PUSH1 0x3 SWAP1 SWAP3 MUL ADD SWAP1 DUP2 SSTORE DUP7 MLOAD DUP2 DUP4 ADD DUP2 SWAP1 SSTORE SWAP4 MLOAD PUSH1 0x2 SWAP1 SWAP2 ADD DUP1 SLOAD PUSH1 0x1 PUSH1 0x1 PUSH1 0xA0 SHL SUB NOT AND PUSH1 0x1 PUSH1 0x1 PUSH1 0xA0 SHL SUB SWAP1 SWAP3 AND SWAP2 SWAP1 SWAP2 OR SWAP1 SSTORE SWAP2 DUP2 MSTORE PUSH1 0x10 DUP7 MSTORE DUP3 DUP2 KECCAK256 SWAP4 DUP2 MSTORE SWAP3 DUP6 MSTORE DUP2 DUP4 KECCAK256 DUP1 SLOAD PUSH1 0xFF NOT AND SWAP1 SWAP2 OR SWAP1 SSTORE SWAP2 MLOAD DUP2 MSTORE PUSH1 0xD SWAP1 SWAP3 MSTORE DUP2 KECCAK256 PUSH1 0x6 ADD DUP1 SLOAD SWAP2 PUSH2 0x2EE8 DUP4 PUSH2 0x3B5D JUMP JUMPDEST SWAP2 SWAP1 POP SSTORE POP CALLVALUE PUSH1 0xA PUSH1 0x0 DUP3 DUP3 SLOAD PUSH2 0x2EFF SWAP2 SWAP1 PUSH2 0x3D69 JUMP JUMPDEST SWAP1 SWAP2 SSTORE POP PUSH1 0x1 SWAP5 SWAP4 POP POP POP POP JUMP JUMPDEST PUSH1 0x0 PUSH2 0x2F19 DUP5 DUP5 PUSH2 0x25FC JUMP JUMPDEST SWAP1 POP PUSH1 0x0 NOT DUP2 EQ PUSH2 0x2F81 JUMPI DUP2 DUP2 LT ISZERO PUSH2 0x2F74 JUMPI PUSH1 0x40 MLOAD PUSH3 0x461BCD PUSH1 0xE5 SHL DUP2 MSTORE PUSH1 0x20 PUSH1 0x4 DUP3 ADD MSTORE PUSH1 0x1D PUSH1 0x24 DUP3 ADD MSTORE PUSH32 0x45524332303A20696E73756666696369656E7420616C6C6F77616E6365000000 PUSH1 0x44 DUP3 ADD MSTORE PUSH1 0x64 ADD PUSH2 0xA58 JUMP JUMPDEST PUSH2 0x2F81 DUP5 DUP5 DUP5 DUP5 SUB PUSH2 0x2CC8 JUMP JUMPDEST POP POP POP POP JUMP JUMPDEST PUSH1 0x1 PUSH1 0x1 PUSH1 0xA0 SHL SUB DUP4 AND PUSH2 0x2FEB JUMPI PUSH1 0x40 MLOAD PUSH3 0x461BCD PUSH1 0xE5 SHL DUP2 MSTORE PUSH1 0x20 PUSH1 0x4 DUP3 ADD MSTORE PUSH1 0x25 PUSH1 0x24 DUP3 ADD MSTORE PUSH32 0x45524332303A207472616E736665722066726F6D20746865207A65726F206164 PUSH1 0x44 DUP3 ADD MSTORE PUSH5 0x6472657373 PUSH1 0xD8 SHL PUSH1 0x64 DUP3 ADD MSTORE PUSH1 0x84 ADD PUSH2 0xA58 JUMP JUMPDEST PUSH1 0x1 PUSH1 0x1 PUSH1 0xA0 SHL SUB DUP3 AND PUSH2 0x304D JUMPI PUSH1 0x40 MLOAD PUSH3 0x461BCD PUSH1 0xE5 SHL DUP2 MSTORE PUSH1 0x20 PUSH1 0x4 DUP3 ADD MSTORE PUSH1 0x23 PUSH1 0x24 DUP3 ADD MSTORE PUSH32 0x45524332303A207472616E7366657220746F20746865207A65726F2061646472 PUSH1 0x44 DUP3 ADD MSTORE PUSH3 0x657373 PUSH1 0xE8 SHL PUSH1 0x64 DUP3 ADD MSTORE PUSH1 0x84 ADD PUSH2 0xA58 JUMP JUMPDEST PUSH1 0x1 PUSH1 0x1 PUSH1 0xA0 SHL SUB DUP4 AND PUSH1 0x0 SWAP1 DUP2 MSTORE PUSH1 0x2 PUSH1 0x20 MSTORE PUSH1 0x40 SWAP1 KECCAK256 SLOAD DUP2 DUP2 LT ISZERO PUSH2 0x30C5 JUMPI PUSH1 0x40 MLOAD PUSH3 0x461BCD PUSH1 0xE5 SHL DUP2 MSTORE PUSH1 0x20 PUSH1 0x4 DUP3 ADD MSTORE PUSH1 0x26 PUSH1 0x24 DUP3 ADD MSTORE PUSH32 0x45524332303A207472616E7366657220616D6F756E7420657863656564732062 PUSH1 0x44 DUP3 ADD MSTORE PUSH6 0x616C616E6365 PUSH1 0xD0 SHL PUSH1 0x64 DUP3 ADD MSTORE PUSH1 0x84 ADD PUSH2 0xA58 JUMP JUMPDEST PUSH1 0x1 PUSH1 0x1 PUSH1 0xA0 SHL SUB DUP1 DUP6 AND PUSH1 0x0 DUP2 DUP2 MSTORE PUSH1 0x2 PUSH1 0x20 MSTORE PUSH1 0x40 DUP1 DUP3 KECCAK256 DUP7 DUP7 SUB SWAP1 SSTORE SWAP3 DUP7 AND DUP1 DUP3 MSTORE SWAP1 DUP4 SWAP1 KECCAK256 DUP1 SLOAD DUP7 ADD SWAP1 SSTORE SWAP2 MLOAD PUSH32 0xDDF252AD1BE2C89B69C2B068FC378DAA952BA7F163C4A11628F55A4DF523B3EF SWAP1 PUSH2 0x3125 SWAP1 DUP7 DUP2 MSTORE PUSH1 0x20 ADD SWAP1 JUMP JUMPDEST PUSH1 0x40 MLOAD DUP1 SWAP2 SUB SWAP1 LOG3 PUSH2 0x2F81 JUMP JUMPDEST PUSH1 0x0 DUP3 PUSH1 0x1 PUSH1 0x1 PUSH1 0xA0 SHL SUB AND DUP3 PUSH1 0x40 MLOAD PUSH1 0x0 PUSH1 0x40 MLOAD DUP1 DUP4 SUB DUP2 DUP6 DUP8 GAS CALL SWAP3 POP POP POP RETURNDATASIZE DUP1 PUSH1 0x0 DUP2 EQ PUSH2 0x317F JUMPI PUSH1 0x40 MLOAD SWAP2 POP PUSH1 0x1F NOT PUSH1 0x3F RETURNDATASIZE ADD AND DUP3 ADD PUSH1 0x40 MSTORE RETURNDATASIZE DUP3 MSTORE RETURNDATASIZE PUSH1 0x0 PUSH1 0x20 DUP5 ADD RETURNDATACOPY PUSH2 0x3184 JUMP JUMPDEST PUSH1 0x60 SWAP2 POP JUMPDEST POP POP SWAP1 POP DUP1 PUSH2 0x3192 JUMPI PUSH1 0x0 DUP1 REVERT JUMPDEST POP POP POP JUMP JUMPDEST PUSH1 0x0 SLOAD PUSH1 0x1 PUSH1 0x1 PUSH1 0xA0 SHL SUB AND CALLER EQ PUSH2 0x1980 JUMPI PUSH1 0x40 MLOAD PUSH3 0x461BCD PUSH1 0xE5 SHL DUP2 MSTORE PUSH1 0x20 PUSH1 0x4 DUP3 ADD DUP2 SWAP1 MSTORE PUSH1 0x24 DUP3 ADD MSTORE PUSH32 0x4F776E61626C653A2063616C6C6572206973206E6F7420746865206F776E6572 PUSH1 0x44 DUP3 ADD MSTORE PUSH1 0x64 ADD PUSH2 0xA58 JUMP JUMPDEST PUSH1 0x0 DUP1 SLOAD PUSH1 0x1 PUSH1 0x1 PUSH1 0xA0 SHL SUB DUP4 DUP2 AND PUSH1 0x1 PUSH1 0x1 PUSH1 0xA0 SHL SUB NOT DUP4 AND DUP2 OR DUP5 SSTORE PUSH1 0x40 MLOAD SWAP2 SWAP1 SWAP3 AND SWAP3 DUP4 SWAP2 PUSH32 0x8BE0079C531659141344CD1FD0A4F28419497F9722A3DAAFE3B4186F6B6457E0 SWAP2 SWAP1 LOG3 POP POP JUMP JUMPDEST PUSH1 0x2 PUSH1 0x1 SLOAD SUB PUSH2 0x3293 JUMPI PUSH1 0x40 MLOAD PUSH3 0x461BCD PUSH1 0xE5 SHL DUP2 MSTORE PUSH1 0x20 PUSH1 0x4 DUP3 ADD MSTORE PUSH1 0x1F PUSH1 0x24 DUP3 ADD MSTORE PUSH32 0x5265656E7472616E637947756172643A207265656E7472616E742063616C6C00 PUSH1 0x44 DUP3 ADD MSTORE PUSH1 0x64 ADD PUSH2 0xA58 JUMP JUMPDEST PUSH1 0x2 PUSH1 0x1 SSTORE JUMP JUMPDEST PUSH1 0x0 PUSH2 0x32A6 DUP3 DUP5 PUSH2 0x3D7C JUMP JUMPDEST SWAP4 SWAP3 POP POP POP JUMP JUMPDEST PUSH1 0x0 PUSH2 0x32A6 DUP3 DUP5 PUSH2 0x3D93 JUMP JUMPDEST PUSH1 0x0 PUSH2 0x32A6 DUP3 DUP5 PUSH2 0x3D56 JUMP JUMPDEST PUSH1 0x1 PUSH1 0x1 PUSH1 0xA0 SHL SUB DUP3 AND PUSH2 0x331B JUMPI PUSH1 0x40 MLOAD PUSH3 0x461BCD PUSH1 0xE5 SHL DUP2 MSTORE PUSH1 0x20 PUSH1 0x4 DUP3 ADD MSTORE PUSH1 0x1F PUSH1 0x24 DUP3 ADD MSTORE PUSH32 0x45524332303A206D696E7420746F20746865207A65726F206164647265737300 PUSH1 0x44 DUP3 ADD MSTORE PUSH1 0x64 ADD PUSH2 0xA58 JUMP JUMPDEST DUP1 PUSH1 0x4 PUSH1 0x0 DUP3 DUP3 SLOAD PUSH2 0x332D SWAP2 SWAP1 PUSH2 0x3D69 JUMP JUMPDEST SWAP1 SWAP2 SSTORE POP POP PUSH1 0x1 PUSH1 0x1 PUSH1 0xA0 SHL SUB DUP3 AND PUSH1 0x0 DUP2 DUP2 MSTORE PUSH1 0x2 PUSH1 0x20 SWAP1 DUP2 MSTORE PUSH1 0x40 DUP1 DUP4 KECCAK256 DUP1 SLOAD DUP7 ADD SWAP1 SSTORE MLOAD DUP5 DUP2 MSTORE PUSH32 0xDDF252AD1BE2C89B69C2B068FC378DAA952BA7F163C4A11628F55A4DF523B3EF SWAP2 ADD PUSH1 0x40 MLOAD DUP1 SWAP2 SUB SWAP1 LOG3 POP POP JUMP JUMPDEST PUSH1 0x1 DUP1 SSTORE JUMP JUMPDEST PUSH1 0x40 MLOAD DUP1 PUSH2 0x1A0 ADD PUSH1 0x40 MSTORE DUP1 PUSH1 0x0 DUP2 MSTORE PUSH1 0x20 ADD PUSH1 0x60 DUP2 MSTORE PUSH1 0x20 ADD PUSH1 0x60 DUP2 MSTORE PUSH1 0x20 ADD PUSH1 0x0 PUSH1 0x1 PUSH1 0x1 PUSH1 0xA0 SHL SUB AND DUP2 MSTORE PUSH1 0x20 ADD PUSH1 0x0 DUP2 MSTORE PUSH1 0x20 ADD PUSH1 0x0 DUP2 MSTORE PUSH1 0x20 ADD PUSH1 0x0 DUP2 MSTORE PUSH1 0x20 ADD PUSH1 0x0 DUP2 MSTORE PUSH1 0x20 ADD PUSH1 0x0 DUP2 MSTORE PUSH1 0x20 ADD PUSH1 0x0 DUP2 MSTORE PUSH1 0x20 ADD PUSH1 0x0 DUP2 MSTORE PUSH1 0x20 ADD PUSH1 0x0 ISZERO ISZERO DUP2 MSTORE PUSH1 0x20 ADD PUSH1 0x0 ISZERO ISZERO DUP2 MSTORE POP SWAP1 JUMP JUMPDEST PUSH1 0x40 MLOAD DUP1 PUSH1 0xC0 ADD PUSH1 0x40 MSTORE DUP1 PUSH1 0x0 DUP2 MSTORE PUSH1 0x20 ADD PUSH1 0x0 DUP2 MSTORE PUSH1 0x20 ADD PUSH1 0x0 PUSH1 0x1 PUSH1 0x1 PUSH1 0xA0 SHL SUB AND DUP2 MSTORE PUSH1 0x20 ADD PUSH1 0x0 DUP2 MSTORE PUSH1 0x20 ADD PUSH1 0x0 DUP2 MSTORE PUSH1 0x20 ADD PUSH1 0x0 ISZERO ISZERO DUP2 MSTORE POP SWAP1 JUMP JUMPDEST PUSH1 0x40 MLOAD DUP1 PUSH2 0x120 ADD PUSH1 0x40 MSTORE DUP1 PUSH1 0x0 DUP2 MSTORE PUSH1 0x20 ADD PUSH1 0x60 DUP2 MSTORE PUSH1 0x20 ADD PUSH1 0x0 DUP2 MSTORE PUSH1 0x20 ADD PUSH1 0x0 PUSH1 0x1 PUSH1 0x1 PUSH1 0xA0 SHL SUB AND DUP2 MSTORE PUSH1 0x20 ADD PUSH1 0x0 PUSH1 0x1 PUSH1 0x1 PUSH1 0xA0 SHL SUB AND DUP2 MSTORE PUSH1 0x20 ADD PUSH1 0x0 ISZERO ISZERO DUP2 MSTORE PUSH1 0x20 ADD PUSH1 0x0 ISZERO ISZERO DUP2 MSTORE PUSH1 0x20 ADD PUSH1 0x0 DUP2 MSTORE PUSH1 0x20 ADD PUSH1 0x0 DUP2 MSTORE POP SWAP1 JUMP JUMPDEST PUSH1 0x0 DUP2 MLOAD DUP1 DUP5 MSTORE PUSH1 0x0 JUMPDEST DUP2 DUP2 LT ISZERO PUSH2 0x34CA JUMPI PUSH1 0x20 DUP2 DUP6 ADD DUP2 ADD MLOAD DUP7 DUP4 ADD DUP3 ADD MSTORE ADD PUSH2 0x34AE JUMP JUMPDEST POP PUSH1 0x0 PUSH1 0x20 DUP3 DUP7 ADD ADD MSTORE PUSH1 0x20 PUSH1 0x1F NOT PUSH1 0x1F DUP4 ADD AND DUP6 ADD ADD SWAP2 POP POP SWAP3 SWAP2 POP POP JUMP JUMPDEST PUSH1 0x0 PUSH2 0x1A0 DUP3 MLOAD DUP5 MSTORE PUSH1 0x20 DUP4 ADD MLOAD DUP2 PUSH1 0x20 DUP7 ADD MSTORE PUSH2 0x350A DUP3 DUP7 ADD DUP3 PUSH2 0x34A4 JUMP JUMPDEST SWAP2 POP POP PUSH1 0x40 DUP4 ADD MLOAD DUP5 DUP3 SUB PUSH1 0x40 DUP7 ADD MSTORE PUSH2 0x3524 DUP3 DUP3 PUSH2 0x34A4 JUMP JUMPDEST SWAP2 POP POP PUSH1 0x60 DUP4 ADD MLOAD PUSH2 0x3541 PUSH1 0x60 DUP7 ADD DUP3 PUSH1 0x1 PUSH1 0x1 PUSH1 0xA0 SHL SUB AND SWAP1 MSTORE JUMP JUMPDEST POP PUSH1 0x80 DUP4 ADD MLOAD PUSH1 0x80 DUP6 ADD MSTORE PUSH1 0xA0 DUP4 ADD MLOAD PUSH1 0xA0 DUP6 ADD MSTORE PUSH1 0xC0 DUP4 ADD MLOAD PUSH1 0xC0 DUP6 ADD MSTORE PUSH1 0xE0 DUP4 ADD MLOAD PUSH1 0xE0 DUP6 ADD MSTORE PUSH2 0x100 DUP1 DUP5 ADD MLOAD DUP2 DUP7 ADD MSTORE POP PUSH2 0x120 DUP1 DUP5 ADD MLOAD DUP2 DUP7 ADD MSTORE POP PUSH2 0x140 DUP1 DUP5 ADD MLOAD DUP2 DUP7 ADD MSTORE POP PUSH2 0x160 DUP1 DUP5 ADD MLOAD PUSH2 0x35A2 DUP3 DUP8 ADD DUP3 ISZERO ISZERO SWAP1 MSTORE JUMP JUMPDEST POP POP PUSH2 0x180 SWAP3 DUP4 ADD MLOAD ISZERO ISZERO SWAP4 SWAP1 SWAP3 ADD SWAP3 SWAP1 SWAP3 MSTORE SWAP2 SWAP1 POP JUMP JUMPDEST PUSH1 0x0 PUSH1 0x20 DUP1 DUP4 ADD DUP2 DUP5 MSTORE DUP1 DUP6 MLOAD DUP1 DUP4 MSTORE PUSH1 0x40 DUP7 ADD SWAP2 POP PUSH1 0x40 DUP2 PUSH1 0x5 SHL DUP8 ADD ADD SWAP3 POP DUP4 DUP8 ADD PUSH1 0x0 JUMPDEST DUP3 DUP2 LT ISZERO PUSH2 0x360F JUMPI PUSH1 0x3F NOT DUP9 DUP7 SUB ADD DUP5 MSTORE PUSH2 0x35FD DUP6 DUP4 MLOAD PUSH2 0x34EA JUMP JUMPDEST SWAP5 POP SWAP3 DUP6 ADD SWAP3 SWAP1 DUP6 ADD SWAP1 PUSH1 0x1 ADD PUSH2 0x35E1 JUMP JUMPDEST POP SWAP3 SWAP8 SWAP7 POP POP POP POP POP POP POP JUMP JUMPDEST PUSH1 0x0 PUSH1 0x20 DUP3 DUP5 SUB SLT ISZERO PUSH2 0x362E JUMPI PUSH1 0x0 DUP1 REVERT JUMPDEST POP CALLDATALOAD SWAP2 SWAP1 POP JUMP JUMPDEST PUSH1 0x20 DUP1 DUP3 MSTORE DUP3 MLOAD DUP3 DUP3 ADD DUP2 SWAP1 MSTORE PUSH1 0x0 SWAP2 SWAP1 PUSH1 0x40 SWAP1 DUP2 DUP6 ADD SWAP1 DUP7 DUP5 ADD DUP6 JUMPDEST DUP3 DUP2 LT ISZERO PUSH2 0x36AB JUMPI DUP2 MLOAD DUP1 MLOAD DUP6 MSTORE DUP7 DUP2 ADD MLOAD DUP8 DUP7 ADD MSTORE DUP6 DUP2 ADD MLOAD PUSH1 0x1 PUSH1 0x1 PUSH1 0xA0 SHL SUB AND DUP7 DUP7 ADD MSTORE PUSH1 0x60 DUP1 DUP3 ADD MLOAD SWAP1 DUP7 ADD MSTORE PUSH1 0x80 DUP1 DUP3 ADD MLOAD SWAP1 DUP7 ADD MSTORE PUSH1 0xA0 SWAP1 DUP2 ADD MLOAD ISZERO ISZERO SWAP1 DUP6 ADD MSTORE PUSH1 0xC0 SWAP1 SWAP4 ADD SWAP3 SWAP1 DUP6 ADD SWAP1 PUSH1 0x1 ADD PUSH2 0x3652 JUMP JUMPDEST POP SWAP2 SWAP8 SWAP7 POP POP POP POP POP POP POP JUMP JUMPDEST PUSH1 0x20 DUP2 MSTORE PUSH1 0x0 PUSH2 0x32A6 PUSH1 0x20 DUP4 ADD DUP5 PUSH2 0x34A4 JUMP JUMPDEST DUP1 CALLDATALOAD PUSH1 0x1 PUSH1 0x1 PUSH1 0xA0 SHL SUB DUP2 AND DUP2 EQ PUSH2 0x36E2 JUMPI PUSH1 0x0 DUP1 REVERT JUMPDEST SWAP2 SWAP1 POP JUMP JUMPDEST PUSH1 0x0 DUP1 PUSH1 0x40 DUP4 DUP6 SUB SLT ISZERO PUSH2 0x36FA JUMPI PUSH1 0x0 DUP1 REVERT JUMPDEST PUSH2 0x3703 DUP4 PUSH2 0x36CB JUMP JUMPDEST SWAP5 PUSH1 0x20 SWAP4 SWAP1 SWAP4 ADD CALLDATALOAD SWAP4 POP POP POP JUMP JUMPDEST PUSH1 0x0 DUP1 PUSH1 0x0 PUSH1 0x60 DUP5 DUP7 SUB SLT ISZERO PUSH2 0x3726 JUMPI PUSH1 0x0 DUP1 REVERT JUMPDEST POP POP DUP2 CALLDATALOAD SWAP4 PUSH1 0x20 DUP4 ADD CALLDATALOAD SWAP4 POP PUSH1 0x40 SWAP1 SWAP3 ADD CALLDATALOAD SWAP2 SWAP1 POP JUMP JUMPDEST PUSH4 0x4E487B71 PUSH1 0xE0 SHL PUSH1 0x0 MSTORE PUSH1 0x41 PUSH1 0x4 MSTORE PUSH1 0x24 PUSH1 0x0 REVERT JUMPDEST PUSH1 0x40 MLOAD PUSH1 0xC0 DUP2 ADD PUSH8 0xFFFFFFFFFFFFFFFF DUP2 GT DUP3 DUP3 LT OR ISZERO PUSH2 0x3776 JUMPI PUSH2 0x3776 PUSH2 0x373D JUMP JUMPDEST PUSH1 0x40 MSTORE SWAP1 JUMP JUMPDEST PUSH1 0x40 MLOAD PUSH1 0x1F DUP3 ADD PUSH1 0x1F NOT AND DUP2 ADD PUSH8 0xFFFFFFFFFFFFFFFF DUP2 GT DUP3 DUP3 LT OR ISZERO PUSH2 0x37A5 JUMPI PUSH2 0x37A5 PUSH2 0x373D JUMP JUMPDEST PUSH1 0x40 MSTORE SWAP2 SWAP1 POP JUMP JUMPDEST PUSH1 0x0 DUP3 PUSH1 0x1F DUP4 ADD SLT PUSH2 0x37BE JUMPI PUSH1 0x0 DUP1 REVERT JUMPDEST DUP2 CALLDATALOAD PUSH8 0xFFFFFFFFFFFFFFFF DUP2 GT ISZERO PUSH2 0x37D8 JUMPI PUSH2 0x37D8 PUSH2 0x373D JUMP JUMPDEST PUSH2 0x37EB PUSH1 0x1F DUP3 ADD PUSH1 0x1F NOT AND PUSH1 0x20 ADD PUSH2 0x377C JUMP JUMPDEST DUP2 DUP2 MSTORE DUP5 PUSH1 0x20 DUP4 DUP7 ADD ADD GT ISZERO PUSH2 0x3800 JUMPI PUSH1 0x0 DUP1 REVERT JUMPDEST DUP2 PUSH1 0x20 DUP6 ADD PUSH1 0x20 DUP4 ADD CALLDATACOPY PUSH1 0x0 SWAP2 DUP2 ADD PUSH1 0x20 ADD SWAP2 SWAP1 SWAP2 MSTORE SWAP4 SWAP3 POP POP POP JUMP JUMPDEST PUSH1 0x0 DUP1 PUSH1 0x0 DUP1 PUSH1 0x0 DUP1 PUSH1 0xC0 DUP8 DUP10 SUB SLT ISZERO PUSH2 0x3836 JUMPI PUSH1 0x0 DUP1 REVERT JUMPDEST DUP7 CALLDATALOAD PUSH8 0xFFFFFFFFFFFFFFFF DUP1 DUP3 GT ISZERO PUSH2 0x384E JUMPI PUSH1 0x0 DUP1 REVERT JUMPDEST PUSH2 0x385A DUP11 DUP4 DUP12 ADD PUSH2 0x37AD JUMP JUMPDEST SWAP8 POP PUSH1 0x20 DUP10 ADD CALLDATALOAD SWAP2 POP DUP1 DUP3 GT ISZERO PUSH2 0x3870 JUMPI PUSH1 0x0 DUP1 REVERT JUMPDEST POP PUSH2 0x387D DUP10 DUP3 DUP11 ADD PUSH2 0x37AD JUMP JUMPDEST SWAP7 SWAP10 SWAP7 SWAP9 POP POP POP POP PUSH1 0x40 DUP6 ADD CALLDATALOAD SWAP5 PUSH1 0x60 DUP2 ADD CALLDATALOAD SWAP5 PUSH1 0x80 DUP3 ADD CALLDATALOAD SWAP5 POP PUSH1 0xA0 SWAP1 SWAP2 ADD CALLDATALOAD SWAP3 POP SWAP1 POP JUMP JUMPDEST PUSH1 0x0 DUP1 PUSH1 0x0 PUSH1 0x60 DUP5 DUP7 SUB SLT ISZERO PUSH2 0x38B9 JUMPI PUSH1 0x0 DUP1 REVERT JUMPDEST PUSH2 0x38C2 DUP5 PUSH2 0x36CB JUMP JUMPDEST SWAP3 POP PUSH2 0x38D0 PUSH1 0x20 DUP6 ADD PUSH2 0x36CB JUMP JUMPDEST SWAP2 POP PUSH1 0x40 DUP5 ADD CALLDATALOAD SWAP1 POP SWAP3 POP SWAP3 POP SWAP3 JUMP JUMPDEST PUSH1 0x0 PUSH1 0x20 DUP1 DUP4 DUP6 SUB SLT ISZERO PUSH2 0x38F3 JUMPI PUSH1 0x0 DUP1 REVERT JUMPDEST DUP3 CALLDATALOAD PUSH8 0xFFFFFFFFFFFFFFFF DUP1 DUP3 GT ISZERO PUSH2 0x390B JUMPI PUSH1 0x0 DUP1 REVERT JUMPDEST DUP2 DUP6 ADD SWAP2 POP DUP6 PUSH1 0x1F DUP4 ADD SLT PUSH2 0x391F JUMPI PUSH1 0x0 DUP1 REVERT JUMPDEST DUP2 CALLDATALOAD DUP2 DUP2 GT ISZERO PUSH2 0x3931 JUMPI PUSH2 0x3931 PUSH2 0x373D JUMP JUMPDEST PUSH2 0x393F DUP5 DUP3 PUSH1 0x5 SHL ADD PUSH2 0x377C JUMP JUMPDEST DUP2 DUP2 MSTORE DUP5 DUP2 ADD SWAP3 POP PUSH1 0xC0 SWAP2 DUP3 MUL DUP5 ADD DUP6 ADD SWAP2 DUP9 DUP4 GT ISZERO PUSH2 0x395E JUMPI PUSH1 0x0 DUP1 REVERT JUMPDEST SWAP4 DUP6 ADD SWAP4 JUMPDEST DUP3 DUP6 LT ISZERO PUSH2 0x39DC JUMPI DUP1 DUP6 DUP11 SUB SLT ISZERO PUSH2 0x397B JUMPI PUSH1 0x0 DUP1 DUP2 REVERT JUMPDEST PUSH2 0x3983 PUSH2 0x3753 JUMP JUMPDEST DUP6 CALLDATALOAD DUP2 MSTORE DUP7 DUP7 ADD CALLDATALOAD DUP8 DUP3 ADD MSTORE PUSH1 0x40 PUSH2 0x399C DUP2 DUP9 ADD PUSH2 0x36CB JUMP JUMPDEST SWAP1 DUP3 ADD MSTORE PUSH1 0x60 DUP7 DUP2 ADD CALLDATALOAD SWAP1 DUP3 ADD MSTORE PUSH1 0x80 DUP1 DUP8 ADD CALLDATALOAD SWAP1 DUP3 ADD MSTORE PUSH1 0xA0 DUP1 DUP8 ADD CALLDATALOAD DUP1 ISZERO ISZERO DUP2 EQ PUSH2 0x39C9 JUMPI PUSH1 0x0 DUP1 DUP2 REVERT JUMPDEST SWAP1 DUP3 ADD MSTORE DUP5 MSTORE SWAP4 DUP5 ADD SWAP4 SWAP3 DUP6 ADD SWAP3 PUSH2 0x3963 JUMP JUMPDEST POP SWAP8 SWAP7 POP POP POP POP POP POP POP JUMP JUMPDEST PUSH1 0x0 DUP1 PUSH1 0x40 DUP4 DUP6 SUB SLT ISZERO PUSH2 0x39FB JUMPI PUSH1 0x0 DUP1 REVERT JUMPDEST POP POP DUP1 CALLDATALOAD SWAP3 PUSH1 0x20 SWAP1 SWAP2 ADD CALLDATALOAD SWAP2 POP JUMP JUMPDEST PUSH1 0x0 PUSH1 0x20 DUP3 DUP5 SUB SLT ISZERO PUSH2 0x3A1C JUMPI PUSH1 0x0 DUP1 REVERT JUMPDEST PUSH2 0x32A6 DUP3 PUSH2 0x36CB JUMP JUMPDEST PUSH1 0x0 PUSH1 0x20 DUP1 DUP4 ADD DUP2 DUP5 MSTORE DUP1 DUP6 MLOAD DUP1 DUP4 MSTORE PUSH1 0x40 SWAP3 POP DUP3 DUP7 ADD SWAP2 POP DUP3 DUP2 PUSH1 0x5 SHL DUP8 ADD ADD DUP5 DUP9 ADD PUSH1 0x0 JUMPDEST DUP4 DUP2 LT ISZERO PUSH2 0x3AF3 JUMPI PUSH1 0x3F NOT DUP10 DUP5 SUB ADD DUP6 MSTORE DUP2 MLOAD PUSH2 0x120 DUP2 MLOAD DUP6 MSTORE DUP9 DUP3 ADD MLOAD DUP2 DUP11 DUP8 ADD MSTORE PUSH2 0x3A7B DUP3 DUP8 ADD DUP3 PUSH2 0x34A4 JUMP JUMPDEST SWAP2 POP POP DUP8 DUP3 ADD MLOAD DUP9 DUP7 ADD MSTORE PUSH1 0x60 DUP1 DUP4 ADD MLOAD PUSH2 0x3AA0 DUP3 DUP9 ADD DUP3 PUSH1 0x1 PUSH1 0x1 PUSH1 0xA0 SHL SUB AND SWAP1 MSTORE JUMP JUMPDEST POP POP PUSH1 0x80 DUP3 DUP2 ADD MLOAD PUSH1 0x1 PUSH1 0x1 PUSH1 0xA0 SHL SUB AND SWAP1 DUP7 ADD MSTORE PUSH1 0xA0 DUP1 DUP4 ADD MLOAD ISZERO ISZERO SWAP1 DUP7 ADD MSTORE PUSH1 0xC0 DUP1 DUP4 ADD MLOAD ISZERO ISZERO SWAP1 DUP7 ADD MSTORE PUSH1 0xE0 DUP1 DUP4 ADD MLOAD SWAP1 DUP7 ADD MSTORE PUSH2 0x100 SWAP2 DUP3 ADD MLOAD SWAP2 SWAP1 SWAP5 ADD MSTORE SWAP4 DUP7 ADD SWAP4 SWAP1 DUP7 ADD SWAP1 PUSH1 0x1 ADD PUSH2 0x3A4C JUMP JUMPDEST POP SWAP1 SWAP9 SWAP8 POP POP POP POP POP POP POP POP JUMP JUMPDEST PUSH1 0x20 DUP2 MSTORE PUSH1 0x0 PUSH2 0x32A6 PUSH1 0x20 DUP4 ADD DUP5 PUSH2 0x34EA JUMP JUMPDEST PUSH1 0x0 DUP1 PUSH1 0x40 DUP4 DUP6 SUB SLT ISZERO PUSH2 0x3B27 JUMPI PUSH1 0x0 DUP1 REVERT JUMPDEST PUSH2 0x3B30 DUP4 PUSH2 0x36CB JUMP JUMPDEST SWAP2 POP PUSH2 0x3B3E PUSH1 0x20 DUP5 ADD PUSH2 0x36CB JUMP JUMPDEST SWAP1 POP SWAP3 POP SWAP3 SWAP1 POP JUMP JUMPDEST PUSH4 0x4E487B71 PUSH1 0xE0 SHL PUSH1 0x0 MSTORE PUSH1 0x11 PUSH1 0x4 MSTORE PUSH1 0x24 PUSH1 0x0 REVERT JUMPDEST PUSH1 0x0 PUSH1 0x1 DUP3 ADD PUSH2 0x3B6F JUMPI PUSH2 0x3B6F PUSH2 0x3B47 JUMP JUMPDEST POP PUSH1 0x1 ADD SWAP1 JUMP JUMPDEST PUSH1 0x1 DUP2 DUP2 SHR SWAP1 DUP3 AND DUP1 PUSH2 0x3B8A JUMPI PUSH1 0x7F DUP3 AND SWAP2 POP JUMPDEST PUSH1 0x20 DUP3 LT DUP2 SUB PUSH2 0x3BAA JUMPI PUSH4 0x4E487B71 PUSH1 0xE0 SHL PUSH1 0x0 MSTORE PUSH1 0x22 PUSH1 0x4 MSTORE PUSH1 0x24 PUSH1 0x0 REVERT JUMPDEST POP SWAP2 SWAP1 POP JUMP JUMPDEST PUSH4 0x4E487B71 PUSH1 0xE0 SHL PUSH1 0x0 MSTORE PUSH1 0x32 PUSH1 0x4 MSTORE PUSH1 0x24 PUSH1 0x0 REVERT JUMPDEST PUSH1 0x20 DUP1 DUP3 MSTORE PUSH1 0x13 SWAP1 DUP3 ADD MSTORE PUSH19 0x556E617574686F72697A656420656E74697479 PUSH1 0x68 SHL PUSH1 0x40 DUP3 ADD MSTORE PUSH1 0x60 ADD SWAP1 JUMP JUMPDEST PUSH1 0x1F DUP3 GT ISZERO PUSH2 0x3192 JUMPI PUSH1 0x0 DUP2 DUP2 MSTORE PUSH1 0x20 DUP2 KECCAK256 PUSH1 0x1F DUP6 ADD PUSH1 0x5 SHR DUP2 ADD PUSH1 0x20 DUP7 LT ISZERO PUSH2 0x3C1A JUMPI POP DUP1 JUMPDEST PUSH1 0x1F DUP6 ADD PUSH1 0x5 SHR DUP3 ADD SWAP2 POP JUMPDEST DUP2 DUP2 LT ISZERO PUSH2 0x3C39 JUMPI DUP3 DUP2 SSTORE PUSH1 0x1 ADD PUSH2 0x3C26 JUMP JUMPDEST POP POP POP POP POP POP JUMP JUMPDEST DUP2 MLOAD PUSH8 0xFFFFFFFFFFFFFFFF DUP2 GT ISZERO PUSH2 0x3C5B JUMPI PUSH2 0x3C5B PUSH2 0x373D JUMP JUMPDEST PUSH2 0x3C6F DUP2 PUSH2 0x3C69 DUP5 SLOAD PUSH2 0x3B76 JUMP JUMPDEST DUP5 PUSH2 0x3BF3 JUMP JUMPDEST PUSH1 0x20 DUP1 PUSH1 0x1F DUP4 GT PUSH1 0x1 DUP2 EQ PUSH2 0x3CA4 JUMPI PUSH1 0x0 DUP5 ISZERO PUSH2 0x3C8C JUMPI POP DUP6 DUP4 ADD MLOAD JUMPDEST PUSH1 0x0 NOT PUSH1 0x3 DUP7 SWAP1 SHL SHR NOT AND PUSH1 0x1 DUP6 SWAP1 SHL OR DUP6 SSTORE PUSH2 0x3C39 JUMP JUMPDEST PUSH1 0x0 DUP6 DUP2 MSTORE PUSH1 0x20 DUP2 KECCAK256 PUSH1 0x1F NOT DUP7 AND SWAP2 JUMPDEST DUP3 DUP2 LT ISZERO PUSH2 0x3CD3 JUMPI DUP9 DUP7 ADD MLOAD DUP3 SSTORE SWAP5 DUP5 ADD SWAP5 PUSH1 0x1 SWAP1 SWAP2 ADD SWAP1 DUP5 ADD PUSH2 0x3CB4 JUMP JUMPDEST POP DUP6 DUP3 LT ISZERO PUSH2 0x3CF1 JUMPI DUP8 DUP6 ADD MLOAD PUSH1 0x0 NOT PUSH1 0x3 DUP9 SWAP1 SHL PUSH1 0xF8 AND SHR NOT AND DUP2 SSTORE JUMPDEST POP POP POP POP POP PUSH1 0x1 SWAP1 DUP2 SHL ADD SWAP1 SSTORE POP JUMP JUMPDEST PUSH1 0x20 DUP1 DUP3 MSTORE PUSH1 0xE SWAP1 DUP3 ADD MSTORE PUSH14 0x11D85B59481B9BDD08199BDD5B99 PUSH1 0x92 SHL PUSH1 0x40 DUP3 ADD MSTORE PUSH1 0x60 ADD SWAP1 JUMP JUMPDEST PUSH4 0x4E487B71 PUSH1 0xE0 SHL PUSH1 0x0 MSTORE PUSH1 0x31 PUSH1 0x4 MSTORE PUSH1 0x24 PUSH1 0x0 REVERT JUMPDEST PUSH1 0x0 DUP2 PUSH2 0x3D4E JUMPI PUSH2 0x3D4E PUSH2 0x3B47 JUMP JUMPDEST POP PUSH1 0x0 NOT ADD SWAP1 JUMP JUMPDEST DUP2 DUP2 SUB DUP2 DUP2 GT ISZERO PUSH2 0x9F0 JUMPI PUSH2 0x9F0 PUSH2 0x3B47 JUMP JUMPDEST DUP1 DUP3 ADD DUP1 DUP3 GT ISZERO PUSH2 0x9F0 JUMPI PUSH2 0x9F0 PUSH2 0x3B47 JUMP JUMPDEST DUP1 DUP3 MUL DUP2 ISZERO DUP3 DUP3 DIV DUP5 EQ OR PUSH2 0x9F0 JUMPI PUSH2 0x9F0 PUSH2 0x3B47 JUMP JUMPDEST PUSH1 0x0 DUP3 PUSH2 0x3DB0 JUMPI PUSH4 0x4E487B71 PUSH1 0xE0 SHL PUSH1 0x0 MSTORE PUSH1 0x12 PUSH1 0x4 MSTORE PUSH1 0x24 PUSH1 0x0 REVERT JUMPDEST POP DIV SWAP1 JUMP INVALID LOG2 PUSH5 0x6970667358 0x22 SLT KECCAK256 DELEGATECALL 0xBD DUP6 DUP6 ORIGIN 0x49 EXTCODESIZE PUSH17 0x4E5258B107E6B87139DAE29C51876D936C CODESIZE SWAP13 GAS JUMPDEST SWAP9 0xB8 EXTCODESIZE PUSH5 0x736F6C6343 STOP ADDMOD GT STOP CALLER "},"methodIdentifiers":{"acceptInvitation(uint256,uint256)":"7a2f2136","allowance(address,address)":"dd62ed3e","approve(address,uint256)":"095ea7b3","balanceOf(address)":"70a08231","createGame(string,string,uint256,uint256,uint256,uint256)":"1eb4a1e5","decimals()":"313ce567","decreaseAllowance(address,uint256)":"a457c2d7","deleteGame(uint256)":"248a55a1","getGame(uint256)":"a2f77bcc","getGames()":"c04c5947","getInvitations(uint256)":"a09621c7","getMyGames()":"0210d751","getMyInvitations()":"90d559a7","getScores(uint256)":"04527d90","increaseAllowance(address,uint256)":"39509351","invitePlayer(address,uint256)":"2246fe0b","name()":"06fdde03","owner()":"8da5cb5b","payout(uint256)":"e1152343","rejectInvitation(uint256,uint256)":"39bd3bbb","renounceOwnership()":"715018a6","saveScore(uint256,uint256,uint256)":"0af87c58","setFeePercent(uint256)":"7ce3489b","sortScores((uint256,uint256,address,uint256,uint256,bool)[])":"337b67db","symbol()":"95d89b41","totalSupply()":"18160ddd","transfer(address,uint256)":"a9059cbb","transferFrom(address,address,uint256)":"23b872dd","transferOwnership(address)":"f2fde38b"}}}}}